{
	"contracts/Voting.sol": {
		"Voting": {
			"abi": [
				{
					"inputs": [],
					"stateMutability": "nonpayable",
					"type": "constructor"
				},
				{
					"anonymous": false,
					"inputs": [
						{
							"indexed": true,
							"internalType": "uint256",
							"name": "candidateId",
							"type": "uint256"
						}
					],
					"name": "votingEvent",
					"type": "event"
				},
				{
					"inputs": [
						{
							"internalType": "uint256",
							"name": "",
							"type": "uint256"
						}
					],
					"name": "candidatesMap",
					"outputs": [
						{
							"internalType": "uint256",
							"name": "id",
							"type": "uint256"
						},
						{
							"internalType": "string",
							"name": "name",
							"type": "string"
						},
						{
							"internalType": "uint256",
							"name": "voteCount",
							"type": "uint256"
						}
					],
					"stateMutability": "view",
					"type": "function"
				},
				{
					"inputs": [],
					"name": "count",
					"outputs": [
						{
							"internalType": "uint256",
							"name": "",
							"type": "uint256"
						}
					],
					"stateMutability": "view",
					"type": "function"
				},
				{
					"inputs": [
						{
							"internalType": "uint256",
							"name": "candidateId",
							"type": "uint256"
						}
					],
					"name": "vote",
					"outputs": [],
					"stateMutability": "nonpayable",
					"type": "function"
				},
				{
					"inputs": [
						{
							"internalType": "address",
							"name": "",
							"type": "address"
						}
					],
					"name": "votersMap",
					"outputs": [
						{
							"internalType": "bool",
							"name": "",
							"type": "bool"
						}
					],
					"stateMutability": "view",
					"type": "function"
				}
			],
			"devdoc": {
				"kind": "dev",
				"methods": {},
				"version": 1
			},
			"evm": {
				"assembly": "    /* \"contracts/Voting.sol\":106:1632  contract Voting \r... */\n  mstore(0x40, 0x80)\n    /* \"contracts/Voting.sol\":464:465  0 */\n  0x00\n    /* \"contracts/Voting.sol\":441:465  uint256 public count = 0 */\n  0x01\n  sstore\n    /* \"contracts/Voting.sol\":671:855  constructor() \r... */\n  callvalue\n  dup1\n  iszero\n  tag_1\n  jumpi\n  0x00\n  dup1\n  revert\ntag_1:\n  pop\n    /* \"contracts/Voting.sol\":702:733  addCandidate(\"Murat Muratoglu\") */\n  tag_4\n  mload(0x40)\n  dup1\n  0x40\n  add\n  0x40\n  mstore\n  dup1\n  0x0f\n  dup2\n  mstore\n  0x20\n  add\n  0x4d75726174204d757261746f676c750000000000000000000000000000000000\n  dup2\n  mstore\n  pop\n    /* \"contracts/Voting.sol\":702:714  addCandidate */\n  shl(0x20, tag_5)\n    /* \"contracts/Voting.sol\":702:733  addCandidate(\"Murat Muratoglu\") */\n  0x20\n  shr\n  jump\t// in\ntag_4:\n    /* \"contracts/Voting.sol\":744:769  addCandidate(\"Ipek Koza\") */\n  tag_6\n  mload(0x40)\n  dup1\n  0x40\n  add\n  0x40\n  mstore\n  dup1\n  0x09\n  dup2\n  mstore\n  0x20\n  add\n  0x4970656b204b6f7a610000000000000000000000000000000000000000000000\n  dup2\n  mstore\n  pop\n    /* \"contracts/Voting.sol\":744:756  addCandidate */\n  shl(0x20, tag_5)\n    /* \"contracts/Voting.sol\":744:769  addCandidate(\"Ipek Koza\") */\n  0x20\n  shr\n  jump\t// in\ntag_6:\n    /* \"contracts/Voting.sol\":780:810  addCandidate(\"Ekin Yildizhan\") */\n  tag_7\n  mload(0x40)\n  dup1\n  0x40\n  add\n  0x40\n  mstore\n  dup1\n  0x0e\n  dup2\n  mstore\n  0x20\n  add\n  0x456b696e2059696c64697a68616e000000000000000000000000000000000000\n  dup2\n  mstore\n  pop\n    /* \"contracts/Voting.sol\":780:792  addCandidate */\n  shl(0x20, tag_5)\n    /* \"contracts/Voting.sol\":780:810  addCandidate(\"Ekin Yildizhan\") */\n  0x20\n  shr\n  jump\t// in\ntag_7:\n    /* \"contracts/Voting.sol\":821:847  addCandidate(\"Hilal Sari\") */\n  tag_8\n  mload(0x40)\n  dup1\n  0x40\n  add\n  0x40\n  mstore\n  dup1\n  0x0a\n  dup2\n  mstore\n  0x20\n  add\n  0x48696c616c205361726900000000000000000000000000000000000000000000\n  dup2\n  mstore\n  pop\n    /* \"contracts/Voting.sol\":821:833  addCandidate */\n  shl(0x20, tag_5)\n    /* \"contracts/Voting.sol\":821:847  addCandidate(\"Hilal Sari\") */\n  0x20\n  shr\n  jump\t// in\ntag_8:\n    /* \"contracts/Voting.sol\":106:1632  contract Voting \r... */\n  jump(tag_9)\n    /* \"contracts/Voting.sol\":906:1144  function addCandidate(string memory candidateName) private \r... */\ntag_5:\n    /* \"contracts/Voting.sol\":982:987  count */\n  0x01\n  0x00\n    /* \"contracts/Voting.sol\":982:989  count++ */\n  dup2\n  sload\n  dup1\n  swap3\n  swap2\n  swap1\n  tag_11\n  swap1\n  tag_12\n  jump\t// in\ntag_11:\n  swap2\n  swap1\n  pop\n  sstore\n  pop\n    /* \"contracts/Voting.sol\":1102:1136  Candidate(count, candidateName, 0) */\n  mload(0x40)\n  dup1\n  0x60\n  add\n  0x40\n  mstore\n  dup1\n    /* \"contracts/Voting.sol\":1112:1117  count */\n  sload(0x01)\n    /* \"contracts/Voting.sol\":1102:1136  Candidate(count, candidateName, 0) */\n  dup2\n  mstore\n  0x20\n  add\n    /* \"contracts/Voting.sol\":1119:1132  candidateName */\n  dup3\n    /* \"contracts/Voting.sol\":1102:1136  Candidate(count, candidateName, 0) */\n  dup2\n  mstore\n  0x20\n  add\n    /* \"contracts/Voting.sol\":1134:1135  0 */\n  0x00\n    /* \"contracts/Voting.sol\":1102:1136  Candidate(count, candidateName, 0) */\n  dup2\n  mstore\n  pop\n    /* \"contracts/Voting.sol\":1079:1092  candidatesMap */\n  0x00\n    /* \"contracts/Voting.sol\":1079:1099  candidatesMap[count] */\n  dup1\n    /* \"contracts/Voting.sol\":1093:1098  count */\n  sload(0x01)\n    /* \"contracts/Voting.sol\":1079:1099  candidatesMap[count] */\n  dup2\n  mstore\n  0x20\n  add\n  swap1\n  dup2\n  mstore\n  0x20\n  add\n  0x00\n  keccak256\n    /* \"contracts/Voting.sol\":1079:1136  candidatesMap[count] = Candidate(count, candidateName, 0) */\n  0x00\n  dup3\n  add\n  mload\n  dup2\n  0x00\n  add\n  sstore\n  0x20\n  dup3\n  add\n  mload\n  dup2\n  0x01\n  add\n  swap1\n  dup1\n  mload\n  swap1\n  0x20\n  add\n  swap1\n  tag_13\n  swap3\n  swap2\n  swap1\n  tag_14\n  jump\t// in\ntag_13:\n  pop\n  0x40\n  dup3\n  add\n  mload\n  dup2\n  0x02\n  add\n  sstore\n  swap1\n  pop\n  pop\n    /* \"contracts/Voting.sol\":906:1144  function addCandidate(string memory candidateName) private \r... */\n  pop\n  jump\t// out\n    /* \"contracts/Voting.sol\":106:1632  contract Voting \r... */\ntag_14:\n  dup3\n  dup1\n  sload\n  tag_15\n  swap1\n  tag_16\n  jump\t// in\ntag_15:\n  swap1\n  0x00\n  mstore\n  keccak256(0x00, 0x20)\n  swap1\n  0x1f\n  add\n  0x20\n  swap1\n  div\n  dup2\n  add\n  swap3\n  dup3\n  tag_18\n  jumpi\n  0x00\n  dup6\n  sstore\n  jump(tag_17)\ntag_18:\n  dup3\n  0x1f\n  lt\n  tag_19\n  jumpi\n  dup1\n  mload\n  not(0xff)\n  and\n  dup4\n  dup1\n  add\n  or\n  dup6\n  sstore\n  jump(tag_17)\ntag_19:\n  dup3\n  dup1\n  add\n  0x01\n  add\n  dup6\n  sstore\n  dup3\n  iszero\n  tag_17\n  jumpi\n  swap2\n  dup3\n  add\ntag_20:\n  dup3\n  dup2\n  gt\n  iszero\n  tag_21\n  jumpi\n  dup3\n  mload\n  dup3\n  sstore\n  swap2\n  0x20\n  add\n  swap2\n  swap1\n  0x01\n  add\n  swap1\n  jump(tag_20)\ntag_21:\ntag_17:\n  pop\n  swap1\n  pop\n  tag_22\n  swap2\n  swap1\n  tag_23\n  jump\t// in\ntag_22:\n  pop\n  swap1\n  jump\t// out\ntag_23:\ntag_24:\n  dup1\n  dup3\n  gt\n  iszero\n  tag_25\n  jumpi\n  0x00\n  dup2\n  0x00\n  swap1\n  sstore\n  pop\n  0x01\n  add\n  jump(tag_24)\ntag_25:\n  pop\n  swap1\n  jump\t// out\n    /* \"#utility.yul\":7:84   */\ntag_27:\n    /* \"#utility.yul\":44:51   */\n  0x00\n    /* \"#utility.yul\":73:78   */\n  dup2\n    /* \"#utility.yul\":62:78   */\n  swap1\n  pop\n    /* \"#utility.yul\":7:84   */\n  swap2\n  swap1\n  pop\n  jump\t// out\n    /* \"#utility.yul\":90:410   */\ntag_16:\n    /* \"#utility.yul\":134:140   */\n  0x00\n    /* \"#utility.yul\":171:172   */\n  0x02\n    /* \"#utility.yul\":165:169   */\n  dup3\n    /* \"#utility.yul\":161:173   */\n  div\n    /* \"#utility.yul\":151:173   */\n  swap1\n  pop\n    /* \"#utility.yul\":218:219   */\n  0x01\n    /* \"#utility.yul\":212:216   */\n  dup3\n    /* \"#utility.yul\":208:220   */\n  and\n    /* \"#utility.yul\":239:257   */\n  dup1\n    /* \"#utility.yul\":229:310   */\n  tag_30\n  jumpi\n    /* \"#utility.yul\":295:299   */\n  0x7f\n    /* \"#utility.yul\":287:293   */\n  dup3\n    /* \"#utility.yul\":283:300   */\n  and\n    /* \"#utility.yul\":273:300   */\n  swap2\n  pop\n    /* \"#utility.yul\":229:310   */\ntag_30:\n    /* \"#utility.yul\":357:359   */\n  0x20\n    /* \"#utility.yul\":349:355   */\n  dup3\n    /* \"#utility.yul\":346:360   */\n  lt\n    /* \"#utility.yul\":326:344   */\n  dup2\n    /* \"#utility.yul\":323:361   */\n  eq\n    /* \"#utility.yul\":320:404   */\n  iszero\n  tag_31\n  jumpi\n    /* \"#utility.yul\":376:394   */\n  tag_32\n  tag_33\n  jump\t// in\ntag_32:\n    /* \"#utility.yul\":320:404   */\ntag_31:\n    /* \"#utility.yul\":141:410   */\n  pop\n    /* \"#utility.yul\":90:410   */\n  swap2\n  swap1\n  pop\n  jump\t// out\n    /* \"#utility.yul\":416:649   */\ntag_12:\n    /* \"#utility.yul\":455:458   */\n  0x00\n    /* \"#utility.yul\":478:502   */\n  tag_35\n    /* \"#utility.yul\":496:501   */\n  dup3\n    /* \"#utility.yul\":478:502   */\n  tag_27\n  jump\t// in\ntag_35:\n    /* \"#utility.yul\":469:502   */\n  swap2\n  pop\n    /* \"#utility.yul\":524:590   */\n  0xffffffffffffffffffffffffffffffffffffffffffffffffffffffffffffffff\n    /* \"#utility.yul\":517:522   */\n  dup3\n    /* \"#utility.yul\":514:591   */\n  eq\n    /* \"#utility.yul\":511:614   */\n  iszero\n  tag_36\n  jumpi\n    /* \"#utility.yul\":594:612   */\n  tag_37\n  tag_38\n  jump\t// in\ntag_37:\n    /* \"#utility.yul\":511:614   */\ntag_36:\n    /* \"#utility.yul\":641:642   */\n  0x01\n    /* \"#utility.yul\":634:639   */\n  dup3\n    /* \"#utility.yul\":630:643   */\n  add\n    /* \"#utility.yul\":623:643   */\n  swap1\n  pop\n    /* \"#utility.yul\":416:649   */\n  swap2\n  swap1\n  pop\n  jump\t// out\n    /* \"#utility.yul\":655:835   */\ntag_38:\n    /* \"#utility.yul\":703:780   */\n  0x4e487b7100000000000000000000000000000000000000000000000000000000\n    /* \"#utility.yul\":700:701   */\n  0x00\n    /* \"#utility.yul\":693:781   */\n  mstore\n    /* \"#utility.yul\":800:804   */\n  0x11\n    /* \"#utility.yul\":797:798   */\n  0x04\n    /* \"#utility.yul\":790:805   */\n  mstore\n    /* \"#utility.yul\":824:828   */\n  0x24\n    /* \"#utility.yul\":821:822   */\n  0x00\n    /* \"#utility.yul\":814:829   */\n  revert\n    /* \"#utility.yul\":841:1021   */\ntag_33:\n    /* \"#utility.yul\":889:966   */\n  0x4e487b7100000000000000000000000000000000000000000000000000000000\n    /* \"#utility.yul\":886:887   */\n  0x00\n    /* \"#utility.yul\":879:967   */\n  mstore\n    /* \"#utility.yul\":986:990   */\n  0x22\n    /* \"#utility.yul\":983:984   */\n  0x04\n    /* \"#utility.yul\":976:991   */\n  mstore\n    /* \"#utility.yul\":1010:1014   */\n  0x24\n    /* \"#utility.yul\":1007:1008   */\n  0x00\n    /* \"#utility.yul\":1000:1015   */\n  revert\n    /* \"contracts/Voting.sol\":106:1632  contract Voting \r... */\ntag_9:\n  dataSize(sub_0)\n  dup1\n  dataOffset(sub_0)\n  0x00\n  codecopy\n  0x00\n  return\nstop\n\nsub_0: assembly {\n        /* \"contracts/Voting.sol\":106:1632  contract Voting \r... */\n      mstore(0x40, 0x80)\n      callvalue\n      dup1\n      iszero\n      tag_1\n      jumpi\n      0x00\n      dup1\n      revert\n    tag_1:\n      pop\n      jumpi(tag_2, lt(calldatasize, 0x04))\n      shr(0xe0, calldataload(0x00))\n      dup1\n      0x0121b93f\n      eq\n      tag_3\n      jumpi\n      dup1\n      0x06661abd\n      eq\n      tag_4\n      jumpi\n      dup1\n      0x101ed4e1\n      eq\n      tag_5\n      jumpi\n      dup1\n      0xae66d4f4\n      eq\n      tag_6\n      jumpi\n    tag_2:\n      0x00\n      dup1\n      revert\n        /* \"contracts/Voting.sol\":1152:1629  function vote(uint256 candidateId) public \r... */\n    tag_3:\n      tag_7\n      0x04\n      dup1\n      calldatasize\n      sub\n      dup2\n      add\n      swap1\n      tag_8\n      swap2\n      swap1\n      tag_9\n      jump\t// in\n    tag_8:\n      tag_10\n      jump\t// in\n    tag_7:\n      stop\n        /* \"contracts/Voting.sol\":441:465  uint256 public count = 0 */\n    tag_4:\n      tag_11\n      tag_12\n      jump\t// in\n    tag_11:\n      mload(0x40)\n      tag_13\n      swap2\n      swap1\n      tag_14\n      jump\t// in\n    tag_13:\n      mload(0x40)\n      dup1\n      swap2\n      sub\n      swap1\n      return\n        /* \"contracts/Voting.sol\":330:380  mapping(uint256 => Candidate) public candidatesMap */\n    tag_5:\n      tag_15\n      0x04\n      dup1\n      calldatasize\n      sub\n      dup2\n      add\n      swap1\n      tag_16\n      swap2\n      swap1\n      tag_9\n      jump\t// in\n    tag_16:\n      tag_17\n      jump\t// in\n    tag_15:\n      mload(0x40)\n      tag_18\n      swap4\n      swap3\n      swap2\n      swap1\n      tag_19\n      jump\t// in\n    tag_18:\n      mload(0x40)\n      dup1\n      swap2\n      sub\n      swap1\n      return\n        /* \"contracts/Voting.sol\":546:587  mapping(address => bool) public votersMap */\n    tag_6:\n      tag_20\n      0x04\n      dup1\n      calldatasize\n      sub\n      dup2\n      add\n      swap1\n      tag_21\n      swap2\n      swap1\n      tag_22\n      jump\t// in\n    tag_21:\n      tag_23\n      jump\t// in\n    tag_20:\n      mload(0x40)\n      tag_24\n      swap2\n      swap1\n      tag_25\n      jump\t// in\n    tag_24:\n      mload(0x40)\n      dup1\n      swap2\n      sub\n      swap1\n      return\n        /* \"contracts/Voting.sol\":1152:1629  function vote(uint256 candidateId) public \r... */\n    tag_10:\n        /* \"contracts/Voting.sol\":1313:1318  false */\n      0x00\n        /* \"contracts/Voting.sol\":1288:1318  votersMap[msg.sender] == false */\n      iszero\n      iszero\n        /* \"contracts/Voting.sol\":1288:1297  votersMap */\n      0x02\n        /* \"contracts/Voting.sol\":1288:1309  votersMap[msg.sender] */\n      0x00\n        /* \"contracts/Voting.sol\":1298:1308  msg.sender */\n      caller\n        /* \"contracts/Voting.sol\":1288:1309  votersMap[msg.sender] */\n      0xffffffffffffffffffffffffffffffffffffffff\n      and\n      0xffffffffffffffffffffffffffffffffffffffff\n      and\n      dup2\n      mstore\n      0x20\n      add\n      swap1\n      dup2\n      mstore\n      0x20\n      add\n      0x00\n      keccak256\n      0x00\n      swap1\n      sload\n      swap1\n      0x0100\n      exp\n      swap1\n      div\n      0xff\n      and\n        /* \"contracts/Voting.sol\":1288:1318  votersMap[msg.sender] == false */\n      iszero\n      iszero\n      eq\n        /* \"contracts/Voting.sol\":1280:1319  require(votersMap[msg.sender] == false) */\n      tag_27\n      jumpi\n      0x00\n      dup1\n      revert\n    tag_27:\n        /* \"contracts/Voting.sol\":1392:1393  0 */\n      0x00\n        /* \"contracts/Voting.sol\":1378:1389  candidateId */\n      dup2\n        /* \"contracts/Voting.sol\":1378:1393  candidateId > 0 */\n      gt\n        /* \"contracts/Voting.sol\":1378:1417  candidateId > 0 && candidateId <= count */\n      dup1\n      iszero\n      tag_28\n      jumpi\n      pop\n        /* \"contracts/Voting.sol\":1412:1417  count */\n      sload(0x01)\n        /* \"contracts/Voting.sol\":1397:1408  candidateId */\n      dup2\n        /* \"contracts/Voting.sol\":1397:1417  candidateId <= count */\n      gt\n      iszero\n        /* \"contracts/Voting.sol\":1378:1417  candidateId > 0 && candidateId <= count */\n    tag_28:\n        /* \"contracts/Voting.sol\":1370:1418  require(candidateId > 0 && candidateId <= count) */\n      tag_29\n      jumpi\n      0x00\n      dup1\n      revert\n    tag_29:\n        /* \"contracts/Voting.sol\":1484:1488  true */\n      0x01\n        /* \"contracts/Voting.sol\":1460:1469  votersMap */\n      0x02\n        /* \"contracts/Voting.sol\":1460:1481  votersMap[msg.sender] */\n      0x00\n        /* \"contracts/Voting.sol\":1470:1480  msg.sender */\n      caller\n        /* \"contracts/Voting.sol\":1460:1481  votersMap[msg.sender] */\n      0xffffffffffffffffffffffffffffffffffffffff\n      and\n      0xffffffffffffffffffffffffffffffffffffffff\n      and\n      dup2\n      mstore\n      0x20\n      add\n      swap1\n      dup2\n      mstore\n      0x20\n      add\n      0x00\n      keccak256\n      0x00\n        /* \"contracts/Voting.sol\":1460:1488  votersMap[msg.sender] = true */\n      0x0100\n      exp\n      dup2\n      sload\n      dup2\n      0xff\n      mul\n      not\n      and\n      swap1\n      dup4\n      iszero\n      iszero\n      mul\n      or\n      swap1\n      sstore\n      pop\n        /* \"contracts/Voting.sol\":1541:1554  candidatesMap */\n      0x00\n        /* \"contracts/Voting.sol\":1541:1567  candidatesMap[candidateId] */\n      dup1\n        /* \"contracts/Voting.sol\":1555:1566  candidateId */\n      dup3\n        /* \"contracts/Voting.sol\":1541:1567  candidatesMap[candidateId] */\n      dup2\n      mstore\n      0x20\n      add\n      swap1\n      dup2\n      mstore\n      0x20\n      add\n      0x00\n      keccak256\n        /* \"contracts/Voting.sol\":1541:1577  candidatesMap[candidateId].voteCount */\n      0x02\n      add\n      0x00\n        /* \"contracts/Voting.sol\":1541:1579  candidatesMap[candidateId].voteCount++ */\n      dup2\n      sload\n      dup1\n      swap3\n      swap2\n      swap1\n      tag_30\n      swap1\n      tag_31\n      jump\t// in\n    tag_30:\n      swap2\n      swap1\n      pop\n      sstore\n      pop\n        /* \"contracts/Voting.sol\":1609:1620  candidateId */\n      dup1\n        /* \"contracts/Voting.sol\":1597:1621  votingEvent(candidateId) */\n      0x3474d7a80d734f2c159cbc95fd43cc116f75c5cc5b1b755e0fd91a0dbfc3c8c1\n      mload(0x40)\n      mload(0x40)\n      dup1\n      swap2\n      sub\n      swap1\n      log2\n        /* \"contracts/Voting.sol\":1152:1629  function vote(uint256 candidateId) public \r... */\n      pop\n      jump\t// out\n        /* \"contracts/Voting.sol\":441:465  uint256 public count = 0 */\n    tag_12:\n      sload(0x01)\n      dup2\n      jump\t// out\n        /* \"contracts/Voting.sol\":330:380  mapping(uint256 => Candidate) public candidatesMap */\n    tag_17:\n      mstore(0x20, 0x00)\n      dup1\n      0x00\n      mstore\n      keccak256(0x00, 0x40)\n      0x00\n      swap2\n      pop\n      swap1\n      pop\n      dup1\n      0x00\n      add\n      sload\n      swap1\n      dup1\n      0x01\n      add\n      dup1\n      sload\n      tag_32\n      swap1\n      tag_33\n      jump\t// in\n    tag_32:\n      dup1\n      0x1f\n      add\n      0x20\n      dup1\n      swap2\n      div\n      mul\n      0x20\n      add\n      mload(0x40)\n      swap1\n      dup2\n      add\n      0x40\n      mstore\n      dup1\n      swap3\n      swap2\n      swap1\n      dup2\n      dup2\n      mstore\n      0x20\n      add\n      dup3\n      dup1\n      sload\n      tag_34\n      swap1\n      tag_33\n      jump\t// in\n    tag_34:\n      dup1\n      iszero\n      tag_35\n      jumpi\n      dup1\n      0x1f\n      lt\n      tag_36\n      jumpi\n      0x0100\n      dup1\n      dup4\n      sload\n      div\n      mul\n      dup4\n      mstore\n      swap2\n      0x20\n      add\n      swap2\n      jump(tag_35)\n    tag_36:\n      dup3\n      add\n      swap2\n      swap1\n      0x00\n      mstore\n      keccak256(0x00, 0x20)\n      swap1\n    tag_37:\n      dup2\n      sload\n      dup2\n      mstore\n      swap1\n      0x01\n      add\n      swap1\n      0x20\n      add\n      dup1\n      dup4\n      gt\n      tag_37\n      jumpi\n      dup3\n      swap1\n      sub\n      0x1f\n      and\n      dup3\n      add\n      swap2\n    tag_35:\n      pop\n      pop\n      pop\n      pop\n      pop\n      swap1\n      dup1\n      0x02\n      add\n      sload\n      swap1\n      pop\n      dup4\n      jump\t// out\n        /* \"contracts/Voting.sol\":546:587  mapping(address => bool) public votersMap */\n    tag_23:\n      mstore(0x20, 0x02)\n      dup1\n      0x00\n      mstore\n      keccak256(0x00, 0x40)\n      0x00\n      swap2\n      pop\n      sload\n      swap1\n      0x0100\n      exp\n      swap1\n      div\n      0xff\n      and\n      dup2\n      jump\t// out\n        /* \"#utility.yul\":7:146   */\n    tag_39:\n        /* \"#utility.yul\":53:58   */\n      0x00\n        /* \"#utility.yul\":91:97   */\n      dup2\n        /* \"#utility.yul\":78:98   */\n      calldataload\n        /* \"#utility.yul\":69:98   */\n      swap1\n      pop\n        /* \"#utility.yul\":107:140   */\n      tag_41\n        /* \"#utility.yul\":134:139   */\n      dup2\n        /* \"#utility.yul\":107:140   */\n      tag_42\n      jump\t// in\n    tag_41:\n        /* \"#utility.yul\":7:146   */\n      swap3\n      swap2\n      pop\n      pop\n      jump\t// out\n        /* \"#utility.yul\":152:291   */\n    tag_43:\n        /* \"#utility.yul\":198:203   */\n      0x00\n        /* \"#utility.yul\":236:242   */\n      dup2\n        /* \"#utility.yul\":223:243   */\n      calldataload\n        /* \"#utility.yul\":214:243   */\n      swap1\n      pop\n        /* \"#utility.yul\":252:285   */\n      tag_45\n        /* \"#utility.yul\":279:284   */\n      dup2\n        /* \"#utility.yul\":252:285   */\n      tag_46\n      jump\t// in\n    tag_45:\n        /* \"#utility.yul\":152:291   */\n      swap3\n      swap2\n      pop\n      pop\n      jump\t// out\n        /* \"#utility.yul\":297:626   */\n    tag_22:\n        /* \"#utility.yul\":356:362   */\n      0x00\n        /* \"#utility.yul\":405:407   */\n      0x20\n        /* \"#utility.yul\":393:402   */\n      dup3\n        /* \"#utility.yul\":384:391   */\n      dup5\n        /* \"#utility.yul\":380:403   */\n      sub\n        /* \"#utility.yul\":376:408   */\n      slt\n        /* \"#utility.yul\":373:492   */\n      iszero\n      tag_48\n      jumpi\n        /* \"#utility.yul\":411:490   */\n      tag_49\n      tag_50\n      jump\t// in\n    tag_49:\n        /* \"#utility.yul\":373:492   */\n    tag_48:\n        /* \"#utility.yul\":531:532   */\n      0x00\n        /* \"#utility.yul\":556:609   */\n      tag_51\n        /* \"#utility.yul\":601:608   */\n      dup5\n        /* \"#utility.yul\":592:598   */\n      dup3\n        /* \"#utility.yul\":581:590   */\n      dup6\n        /* \"#utility.yul\":577:599   */\n      add\n        /* \"#utility.yul\":556:609   */\n      tag_39\n      jump\t// in\n    tag_51:\n        /* \"#utility.yul\":546:609   */\n      swap2\n      pop\n        /* \"#utility.yul\":502:619   */\n      pop\n        /* \"#utility.yul\":297:626   */\n      swap3\n      swap2\n      pop\n      pop\n      jump\t// out\n        /* \"#utility.yul\":632:961   */\n    tag_9:\n        /* \"#utility.yul\":691:697   */\n      0x00\n        /* \"#utility.yul\":740:742   */\n      0x20\n        /* \"#utility.yul\":728:737   */\n      dup3\n        /* \"#utility.yul\":719:726   */\n      dup5\n        /* \"#utility.yul\":715:738   */\n      sub\n        /* \"#utility.yul\":711:743   */\n      slt\n        /* \"#utility.yul\":708:827   */\n      iszero\n      tag_53\n      jumpi\n        /* \"#utility.yul\":746:825   */\n      tag_54\n      tag_50\n      jump\t// in\n    tag_54:\n        /* \"#utility.yul\":708:827   */\n    tag_53:\n        /* \"#utility.yul\":866:867   */\n      0x00\n        /* \"#utility.yul\":891:944   */\n      tag_55\n        /* \"#utility.yul\":936:943   */\n      dup5\n        /* \"#utility.yul\":927:933   */\n      dup3\n        /* \"#utility.yul\":916:925   */\n      dup6\n        /* \"#utility.yul\":912:934   */\n      add\n        /* \"#utility.yul\":891:944   */\n      tag_43\n      jump\t// in\n    tag_55:\n        /* \"#utility.yul\":881:944   */\n      swap2\n      pop\n        /* \"#utility.yul\":837:954   */\n      pop\n        /* \"#utility.yul\":632:961   */\n      swap3\n      swap2\n      pop\n      pop\n      jump\t// out\n        /* \"#utility.yul\":967:1076   */\n    tag_56:\n        /* \"#utility.yul\":1048:1069   */\n      tag_58\n        /* \"#utility.yul\":1063:1068   */\n      dup2\n        /* \"#utility.yul\":1048:1069   */\n      tag_59\n      jump\t// in\n    tag_58:\n        /* \"#utility.yul\":1043:1046   */\n      dup3\n        /* \"#utility.yul\":1036:1070   */\n      mstore\n        /* \"#utility.yul\":967:1076   */\n      pop\n      pop\n      jump\t// out\n        /* \"#utility.yul\":1082:1446   */\n    tag_60:\n        /* \"#utility.yul\":1170:1173   */\n      0x00\n        /* \"#utility.yul\":1198:1237   */\n      tag_62\n        /* \"#utility.yul\":1231:1236   */\n      dup3\n        /* \"#utility.yul\":1198:1237   */\n      tag_63\n      jump\t// in\n    tag_62:\n        /* \"#utility.yul\":1253:1324   */\n      tag_64\n        /* \"#utility.yul\":1317:1323   */\n      dup2\n        /* \"#utility.yul\":1312:1315   */\n      dup6\n        /* \"#utility.yul\":1253:1324   */\n      tag_65\n      jump\t// in\n    tag_64:\n        /* \"#utility.yul\":1246:1324   */\n      swap4\n      pop\n        /* \"#utility.yul\":1333:1385   */\n      tag_66\n        /* \"#utility.yul\":1378:1384   */\n      dup2\n        /* \"#utility.yul\":1373:1376   */\n      dup6\n        /* \"#utility.yul\":1366:1370   */\n      0x20\n        /* \"#utility.yul\":1359:1364   */\n      dup7\n        /* \"#utility.yul\":1355:1371   */\n      add\n        /* \"#utility.yul\":1333:1385   */\n      tag_67\n      jump\t// in\n    tag_66:\n        /* \"#utility.yul\":1410:1439   */\n      tag_68\n        /* \"#utility.yul\":1432:1438   */\n      dup2\n        /* \"#utility.yul\":1410:1439   */\n      tag_69\n      jump\t// in\n    tag_68:\n        /* \"#utility.yul\":1405:1408   */\n      dup5\n        /* \"#utility.yul\":1401:1440   */\n      add\n        /* \"#utility.yul\":1394:1440   */\n      swap2\n      pop\n        /* \"#utility.yul\":1174:1446   */\n      pop\n        /* \"#utility.yul\":1082:1446   */\n      swap3\n      swap2\n      pop\n      pop\n      jump\t// out\n        /* \"#utility.yul\":1452:1570   */\n    tag_70:\n        /* \"#utility.yul\":1539:1563   */\n      tag_72\n        /* \"#utility.yul\":1557:1562   */\n      dup2\n        /* \"#utility.yul\":1539:1563   */\n      tag_73\n      jump\t// in\n    tag_72:\n        /* \"#utility.yul\":1534:1537   */\n      dup3\n        /* \"#utility.yul\":1527:1564   */\n      mstore\n        /* \"#utility.yul\":1452:1570   */\n      pop\n      pop\n      jump\t// out\n        /* \"#utility.yul\":1576:1786   */\n    tag_25:\n        /* \"#utility.yul\":1663:1667   */\n      0x00\n        /* \"#utility.yul\":1701:1703   */\n      0x20\n        /* \"#utility.yul\":1690:1699   */\n      dup3\n        /* \"#utility.yul\":1686:1704   */\n      add\n        /* \"#utility.yul\":1678:1704   */\n      swap1\n      pop\n        /* \"#utility.yul\":1714:1779   */\n      tag_75\n        /* \"#utility.yul\":1776:1777   */\n      0x00\n        /* \"#utility.yul\":1765:1774   */\n      dup4\n        /* \"#utility.yul\":1761:1778   */\n      add\n        /* \"#utility.yul\":1752:1758   */\n      dup5\n        /* \"#utility.yul\":1714:1779   */\n      tag_56\n      jump\t// in\n    tag_75:\n        /* \"#utility.yul\":1576:1786   */\n      swap3\n      swap2\n      pop\n      pop\n      jump\t// out\n        /* \"#utility.yul\":1792:2014   */\n    tag_14:\n        /* \"#utility.yul\":1885:1889   */\n      0x00\n        /* \"#utility.yul\":1923:1925   */\n      0x20\n        /* \"#utility.yul\":1912:1921   */\n      dup3\n        /* \"#utility.yul\":1908:1926   */\n      add\n        /* \"#utility.yul\":1900:1926   */\n      swap1\n      pop\n        /* \"#utility.yul\":1936:2007   */\n      tag_77\n        /* \"#utility.yul\":2004:2005   */\n      0x00\n        /* \"#utility.yul\":1993:2002   */\n      dup4\n        /* \"#utility.yul\":1989:2006   */\n      add\n        /* \"#utility.yul\":1980:1986   */\n      dup5\n        /* \"#utility.yul\":1936:2007   */\n      tag_70\n      jump\t// in\n    tag_77:\n        /* \"#utility.yul\":1792:2014   */\n      swap3\n      swap2\n      pop\n      pop\n      jump\t// out\n        /* \"#utility.yul\":2020:2553   */\n    tag_19:\n        /* \"#utility.yul\":2189:2193   */\n      0x00\n        /* \"#utility.yul\":2227:2229   */\n      0x60\n        /* \"#utility.yul\":2216:2225   */\n      dup3\n        /* \"#utility.yul\":2212:2230   */\n      add\n        /* \"#utility.yul\":2204:2230   */\n      swap1\n      pop\n        /* \"#utility.yul\":2240:2311   */\n      tag_79\n        /* \"#utility.yul\":2308:2309   */\n      0x00\n        /* \"#utility.yul\":2297:2306   */\n      dup4\n        /* \"#utility.yul\":2293:2310   */\n      add\n        /* \"#utility.yul\":2284:2290   */\n      dup7\n        /* \"#utility.yul\":2240:2311   */\n      tag_70\n      jump\t// in\n    tag_79:\n        /* \"#utility.yul\":2358:2367   */\n      dup2\n        /* \"#utility.yul\":2352:2356   */\n      dup2\n        /* \"#utility.yul\":2348:2368   */\n      sub\n        /* \"#utility.yul\":2343:2345   */\n      0x20\n        /* \"#utility.yul\":2332:2341   */\n      dup4\n        /* \"#utility.yul\":2328:2346   */\n      add\n        /* \"#utility.yul\":2321:2369   */\n      mstore\n        /* \"#utility.yul\":2386:2464   */\n      tag_80\n        /* \"#utility.yul\":2459:2463   */\n      dup2\n        /* \"#utility.yul\":2450:2456   */\n      dup6\n        /* \"#utility.yul\":2386:2464   */\n      tag_60\n      jump\t// in\n    tag_80:\n        /* \"#utility.yul\":2378:2464   */\n      swap1\n      pop\n        /* \"#utility.yul\":2474:2546   */\n      tag_81\n        /* \"#utility.yul\":2542:2544   */\n      0x40\n        /* \"#utility.yul\":2531:2540   */\n      dup4\n        /* \"#utility.yul\":2527:2545   */\n      add\n        /* \"#utility.yul\":2518:2524   */\n      dup5\n        /* \"#utility.yul\":2474:2546   */\n      tag_70\n      jump\t// in\n    tag_81:\n        /* \"#utility.yul\":2020:2553   */\n      swap5\n      swap4\n      pop\n      pop\n      pop\n      pop\n      jump\t// out\n        /* \"#utility.yul\":2640:2739   */\n    tag_63:\n        /* \"#utility.yul\":2692:2698   */\n      0x00\n        /* \"#utility.yul\":2726:2731   */\n      dup2\n        /* \"#utility.yul\":2720:2732   */\n      mload\n        /* \"#utility.yul\":2710:2732   */\n      swap1\n      pop\n        /* \"#utility.yul\":2640:2739   */\n      swap2\n      swap1\n      pop\n      jump\t// out\n        /* \"#utility.yul\":2745:2914   */\n    tag_65:\n        /* \"#utility.yul\":2829:2840   */\n      0x00\n        /* \"#utility.yul\":2863:2869   */\n      dup3\n        /* \"#utility.yul\":2858:2861   */\n      dup3\n        /* \"#utility.yul\":2851:2870   */\n      mstore\n        /* \"#utility.yul\":2903:2907   */\n      0x20\n        /* \"#utility.yul\":2898:2901   */\n      dup3\n        /* \"#utility.yul\":2894:2908   */\n      add\n        /* \"#utility.yul\":2879:2908   */\n      swap1\n      pop\n        /* \"#utility.yul\":2745:2914   */\n      swap3\n      swap2\n      pop\n      pop\n      jump\t// out\n        /* \"#utility.yul\":2920:3016   */\n    tag_86:\n        /* \"#utility.yul\":2957:2964   */\n      0x00\n        /* \"#utility.yul\":2986:3010   */\n      tag_88\n        /* \"#utility.yul\":3004:3009   */\n      dup3\n        /* \"#utility.yul\":2986:3010   */\n      tag_89\n      jump\t// in\n    tag_88:\n        /* \"#utility.yul\":2975:3010   */\n      swap1\n      pop\n        /* \"#utility.yul\":2920:3016   */\n      swap2\n      swap1\n      pop\n      jump\t// out\n        /* \"#utility.yul\":3022:3112   */\n    tag_59:\n        /* \"#utility.yul\":3056:3063   */\n      0x00\n        /* \"#utility.yul\":3099:3104   */\n      dup2\n        /* \"#utility.yul\":3092:3105   */\n      iszero\n        /* \"#utility.yul\":3085:3106   */\n      iszero\n        /* \"#utility.yul\":3074:3106   */\n      swap1\n      pop\n        /* \"#utility.yul\":3022:3112   */\n      swap2\n      swap1\n      pop\n      jump\t// out\n        /* \"#utility.yul\":3118:3244   */\n    tag_89:\n        /* \"#utility.yul\":3155:3162   */\n      0x00\n        /* \"#utility.yul\":3195:3237   */\n      0xffffffffffffffffffffffffffffffffffffffff\n        /* \"#utility.yul\":3188:3193   */\n      dup3\n        /* \"#utility.yul\":3184:3238   */\n      and\n        /* \"#utility.yul\":3173:3238   */\n      swap1\n      pop\n        /* \"#utility.yul\":3118:3244   */\n      swap2\n      swap1\n      pop\n      jump\t// out\n        /* \"#utility.yul\":3250:3327   */\n    tag_73:\n        /* \"#utility.yul\":3287:3294   */\n      0x00\n        /* \"#utility.yul\":3316:3321   */\n      dup2\n        /* \"#utility.yul\":3305:3321   */\n      swap1\n      pop\n        /* \"#utility.yul\":3250:3327   */\n      swap2\n      swap1\n      pop\n      jump\t// out\n        /* \"#utility.yul\":3333:3640   */\n    tag_67:\n        /* \"#utility.yul\":3401:3402   */\n      0x00\n        /* \"#utility.yul\":3411:3524   */\n    tag_94:\n        /* \"#utility.yul\":3425:3431   */\n      dup4\n        /* \"#utility.yul\":3422:3423   */\n      dup2\n        /* \"#utility.yul\":3419:3432   */\n      lt\n        /* \"#utility.yul\":3411:3524   */\n      iszero\n      tag_96\n      jumpi\n        /* \"#utility.yul\":3510:3511   */\n      dup1\n        /* \"#utility.yul\":3505:3508   */\n      dup3\n        /* \"#utility.yul\":3501:3512   */\n      add\n        /* \"#utility.yul\":3495:3513   */\n      mload\n        /* \"#utility.yul\":3491:3492   */\n      dup2\n        /* \"#utility.yul\":3486:3489   */\n      dup5\n        /* \"#utility.yul\":3482:3493   */\n      add\n        /* \"#utility.yul\":3475:3514   */\n      mstore\n        /* \"#utility.yul\":3447:3449   */\n      0x20\n        /* \"#utility.yul\":3444:3445   */\n      dup2\n        /* \"#utility.yul\":3440:3450   */\n      add\n        /* \"#utility.yul\":3435:3450   */\n      swap1\n      pop\n        /* \"#utility.yul\":3411:3524   */\n      jump(tag_94)\n    tag_96:\n        /* \"#utility.yul\":3542:3548   */\n      dup4\n        /* \"#utility.yul\":3539:3540   */\n      dup2\n        /* \"#utility.yul\":3536:3549   */\n      gt\n        /* \"#utility.yul\":3533:3634   */\n      iszero\n      tag_97\n      jumpi\n        /* \"#utility.yul\":3622:3623   */\n      0x00\n        /* \"#utility.yul\":3613:3619   */\n      dup5\n        /* \"#utility.yul\":3608:3611   */\n      dup5\n        /* \"#utility.yul\":3604:3620   */\n      add\n        /* \"#utility.yul\":3597:3624   */\n      mstore\n        /* \"#utility.yul\":3533:3634   */\n    tag_97:\n        /* \"#utility.yul\":3382:3640   */\n      pop\n        /* \"#utility.yul\":3333:3640   */\n      pop\n      pop\n      pop\n      jump\t// out\n        /* \"#utility.yul\":3646:3966   */\n    tag_33:\n        /* \"#utility.yul\":3690:3696   */\n      0x00\n        /* \"#utility.yul\":3727:3728   */\n      0x02\n        /* \"#utility.yul\":3721:3725   */\n      dup3\n        /* \"#utility.yul\":3717:3729   */\n      div\n        /* \"#utility.yul\":3707:3729   */\n      swap1\n      pop\n        /* \"#utility.yul\":3774:3775   */\n      0x01\n        /* \"#utility.yul\":3768:3772   */\n      dup3\n        /* \"#utility.yul\":3764:3776   */\n      and\n        /* \"#utility.yul\":3795:3813   */\n      dup1\n        /* \"#utility.yul\":3785:3866   */\n      tag_99\n      jumpi\n        /* \"#utility.yul\":3851:3855   */\n      0x7f\n        /* \"#utility.yul\":3843:3849   */\n      dup3\n        /* \"#utility.yul\":3839:3856   */\n      and\n        /* \"#utility.yul\":3829:3856   */\n      swap2\n      pop\n        /* \"#utility.yul\":3785:3866   */\n    tag_99:\n        /* \"#utility.yul\":3913:3915   */\n      0x20\n        /* \"#utility.yul\":3905:3911   */\n      dup3\n        /* \"#utility.yul\":3902:3916   */\n      lt\n        /* \"#utility.yul\":3882:3900   */\n      dup2\n        /* \"#utility.yul\":3879:3917   */\n      eq\n        /* \"#utility.yul\":3876:3960   */\n      iszero\n      tag_100\n      jumpi\n        /* \"#utility.yul\":3932:3950   */\n      tag_101\n      tag_102\n      jump\t// in\n    tag_101:\n        /* \"#utility.yul\":3876:3960   */\n    tag_100:\n        /* \"#utility.yul\":3697:3966   */\n      pop\n        /* \"#utility.yul\":3646:3966   */\n      swap2\n      swap1\n      pop\n      jump\t// out\n        /* \"#utility.yul\":3972:4205   */\n    tag_31:\n        /* \"#utility.yul\":4011:4014   */\n      0x00\n        /* \"#utility.yul\":4034:4058   */\n      tag_104\n        /* \"#utility.yul\":4052:4057   */\n      dup3\n        /* \"#utility.yul\":4034:4058   */\n      tag_73\n      jump\t// in\n    tag_104:\n        /* \"#utility.yul\":4025:4058   */\n      swap2\n      pop\n        /* \"#utility.yul\":4080:4146   */\n      0xffffffffffffffffffffffffffffffffffffffffffffffffffffffffffffffff\n        /* \"#utility.yul\":4073:4078   */\n      dup3\n        /* \"#utility.yul\":4070:4147   */\n      eq\n        /* \"#utility.yul\":4067:4170   */\n      iszero\n      tag_105\n      jumpi\n        /* \"#utility.yul\":4150:4168   */\n      tag_106\n      tag_107\n      jump\t// in\n    tag_106:\n        /* \"#utility.yul\":4067:4170   */\n    tag_105:\n        /* \"#utility.yul\":4197:4198   */\n      0x01\n        /* \"#utility.yul\":4190:4195   */\n      dup3\n        /* \"#utility.yul\":4186:4199   */\n      add\n        /* \"#utility.yul\":4179:4199   */\n      swap1\n      pop\n        /* \"#utility.yul\":3972:4205   */\n      swap2\n      swap1\n      pop\n      jump\t// out\n        /* \"#utility.yul\":4211:4391   */\n    tag_107:\n        /* \"#utility.yul\":4259:4336   */\n      0x4e487b7100000000000000000000000000000000000000000000000000000000\n        /* \"#utility.yul\":4256:4257   */\n      0x00\n        /* \"#utility.yul\":4249:4337   */\n      mstore\n        /* \"#utility.yul\":4356:4360   */\n      0x11\n        /* \"#utility.yul\":4353:4354   */\n      0x04\n        /* \"#utility.yul\":4346:4361   */\n      mstore\n        /* \"#utility.yul\":4380:4384   */\n      0x24\n        /* \"#utility.yul\":4377:4378   */\n      0x00\n        /* \"#utility.yul\":4370:4385   */\n      revert\n        /* \"#utility.yul\":4397:4577   */\n    tag_102:\n        /* \"#utility.yul\":4445:4522   */\n      0x4e487b7100000000000000000000000000000000000000000000000000000000\n        /* \"#utility.yul\":4442:4443   */\n      0x00\n        /* \"#utility.yul\":4435:4523   */\n      mstore\n        /* \"#utility.yul\":4542:4546   */\n      0x22\n        /* \"#utility.yul\":4539:4540   */\n      0x04\n        /* \"#utility.yul\":4532:4547   */\n      mstore\n        /* \"#utility.yul\":4566:4570   */\n      0x24\n        /* \"#utility.yul\":4563:4564   */\n      0x00\n        /* \"#utility.yul\":4556:4571   */\n      revert\n        /* \"#utility.yul\":4706:4823   */\n    tag_50:\n        /* \"#utility.yul\":4815:4816   */\n      0x00\n        /* \"#utility.yul\":4812:4813   */\n      dup1\n        /* \"#utility.yul\":4805:4817   */\n      revert\n        /* \"#utility.yul\":4829:4931   */\n    tag_69:\n        /* \"#utility.yul\":4870:4876   */\n      0x00\n        /* \"#utility.yul\":4921:4923   */\n      0x1f\n        /* \"#utility.yul\":4917:4924   */\n      not\n        /* \"#utility.yul\":4912:4914   */\n      0x1f\n        /* \"#utility.yul\":4905:4910   */\n      dup4\n        /* \"#utility.yul\":4901:4915   */\n      add\n        /* \"#utility.yul\":4897:4925   */\n      and\n        /* \"#utility.yul\":4887:4925   */\n      swap1\n      pop\n        /* \"#utility.yul\":4829:4931   */\n      swap2\n      swap1\n      pop\n      jump\t// out\n        /* \"#utility.yul\":4937:5059   */\n    tag_42:\n        /* \"#utility.yul\":5010:5034   */\n      tag_115\n        /* \"#utility.yul\":5028:5033   */\n      dup2\n        /* \"#utility.yul\":5010:5034   */\n      tag_86\n      jump\t// in\n    tag_115:\n        /* \"#utility.yul\":5003:5008   */\n      dup2\n        /* \"#utility.yul\":5000:5035   */\n      eq\n        /* \"#utility.yul\":4990:5053   */\n      tag_116\n      jumpi\n        /* \"#utility.yul\":5049:5050   */\n      0x00\n        /* \"#utility.yul\":5046:5047   */\n      dup1\n        /* \"#utility.yul\":5039:5051   */\n      revert\n        /* \"#utility.yul\":4990:5053   */\n    tag_116:\n        /* \"#utility.yul\":4937:5059   */\n      pop\n      jump\t// out\n        /* \"#utility.yul\":5065:5187   */\n    tag_46:\n        /* \"#utility.yul\":5138:5162   */\n      tag_118\n        /* \"#utility.yul\":5156:5161   */\n      dup2\n        /* \"#utility.yul\":5138:5162   */\n      tag_73\n      jump\t// in\n    tag_118:\n        /* \"#utility.yul\":5131:5136   */\n      dup2\n        /* \"#utility.yul\":5128:5163   */\n      eq\n        /* \"#utility.yul\":5118:5181   */\n      tag_119\n      jumpi\n        /* \"#utility.yul\":5177:5178   */\n      0x00\n        /* \"#utility.yul\":5174:5175   */\n      dup1\n        /* \"#utility.yul\":5167:5179   */\n      revert\n        /* \"#utility.yul\":5118:5181   */\n    tag_119:\n        /* \"#utility.yul\":5065:5187   */\n      pop\n      jump\t// out\n\n    auxdata: 0xa2646970667358221220ab37c2e1b89881886adae367b3c96f81ff296b4e68a4d31e95042f39d4b425e464736f6c63430008070033\n}\n",
				"bytecode": {
					"linkReferences": {},
					"object": "6080604052600060015534801561001557600080fd5b5061005a6040518060400160405280600f81526020017f4d75726174204d757261746f676c75000000000000000000000000000000000081525061012b60201b60201c565b61009e6040518060400160405280600981526020017f4970656b204b6f7a61000000000000000000000000000000000000000000000081525061012b60201b60201c565b6100e26040518060400160405280600e81526020017f456b696e2059696c64697a68616e00000000000000000000000000000000000081525061012b60201b60201c565b6101266040518060400160405280600a81526020017f48696c616c20536172690000000000000000000000000000000000000000000081525061012b60201b60201c565b610332565b6001600081548092919061013e9061028b565b9190505550604051806060016040528060015481526020018281526020016000815250600080600154815260200190815260200160002060008201518160000155602082015181600101908051906020019061019b9291906101ac565b506040820151816002015590505050565b8280546101b890610259565b90600052602060002090601f0160209004810192826101da5760008555610221565b82601f106101f357805160ff1916838001178555610221565b82800160010185558215610221579182015b82811115610220578251825591602001919060010190610205565b5b50905061022e9190610232565b5090565b5b8082111561024b576000816000905550600101610233565b5090565b6000819050919050565b6000600282049050600182168061027157607f821691505b6020821081141561028557610284610303565b5b50919050565b60006102968261024f565b91507fffffffffffffffffffffffffffffffffffffffffffffffffffffffffffffffff8214156102c9576102c86102d4565b5b600182019050919050565b7f4e487b7100000000000000000000000000000000000000000000000000000000600052601160045260246000fd5b7f4e487b7100000000000000000000000000000000000000000000000000000000600052602260045260246000fd5b610629806103416000396000f3fe608060405234801561001057600080fd5b506004361061004c5760003560e01c80630121b93f1461005157806306661abd1461006d578063101ed4e11461008b578063ae66d4f4146100bd575b600080fd5b61006b60048036038101906100669190610347565b6100ed565b005b610075610218565b60405161008291906103e6565b60405180910390f35b6100a560048036038101906100a09190610347565b61021e565b6040516100b493929190610401565b60405180910390f35b6100d760048036038101906100d2919061031a565b6102d0565b6040516100e491906103cb565b60405180910390f35b60001515600260003373ffffffffffffffffffffffffffffffffffffffff1673ffffffffffffffffffffffffffffffffffffffff16815260200190815260200160002060009054906101000a900460ff1615151461014a57600080fd5b60008111801561015c57506001548111155b61016557600080fd5b6001600260003373ffffffffffffffffffffffffffffffffffffffff1673ffffffffffffffffffffffffffffffffffffffff16815260200190815260200160002060006101000a81548160ff02191690831515021790555060008082815260200190815260200160002060020160008154809291906101e390610508565b9190505550807f3474d7a80d734f2c159cbc95fd43cc116f75c5cc5b1b755e0fd91a0dbfc3c8c160405160405180910390a250565b60015481565b6000602052806000526040600020600091509050806000015490806001018054610247906104d6565b80601f0160208091040260200160405190810160405280929190818152602001828054610273906104d6565b80156102c05780601f10610295576101008083540402835291602001916102c0565b820191906000526020600020905b8154815290600101906020018083116102a357829003601f168201915b5050505050908060020154905083565b60026020528060005260406000206000915054906101000a900460ff1681565b6000813590506102ff816105c5565b92915050565b600081359050610314816105dc565b92915050565b6000602082840312156103305761032f6105af565b5b600061033e848285016102f0565b91505092915050565b60006020828403121561035d5761035c6105af565b5b600061036b84828501610305565b91505092915050565b61037d8161046d565b82525050565b600061038e8261043f565b610398818561044a565b93506103a88185602086016104a3565b6103b1816105b4565b840191505092915050565b6103c581610499565b82525050565b60006020820190506103e06000830184610374565b92915050565b60006020820190506103fb60008301846103bc565b92915050565b600060608201905061041660008301866103bc565b81810360208301526104288185610383565b905061043760408301846103bc565b949350505050565b600081519050919050565b600082825260208201905092915050565b600061046682610479565b9050919050565b60008115159050919050565b600073ffffffffffffffffffffffffffffffffffffffff82169050919050565b6000819050919050565b60005b838110156104c15780820151818401526020810190506104a6565b838111156104d0576000848401525b50505050565b600060028204905060018216806104ee57607f821691505b6020821081141561050257610501610580565b5b50919050565b600061051382610499565b91507fffffffffffffffffffffffffffffffffffffffffffffffffffffffffffffffff82141561054657610545610551565b5b600182019050919050565b7f4e487b7100000000000000000000000000000000000000000000000000000000600052601160045260246000fd5b7f4e487b7100000000000000000000000000000000000000000000000000000000600052602260045260246000fd5b600080fd5b6000601f19601f8301169050919050565b6105ce8161045b565b81146105d957600080fd5b50565b6105e581610499565b81146105f057600080fd5b5056fea2646970667358221220ab37c2e1b89881886adae367b3c96f81ff296b4e68a4d31e95042f39d4b425e464736f6c63430008070033",
					"opcodes": "PUSH1 0x80 PUSH1 0x40 MSTORE PUSH1 0x0 PUSH1 0x1 SSTORE CALLVALUE DUP1 ISZERO PUSH2 0x15 JUMPI PUSH1 0x0 DUP1 REVERT JUMPDEST POP PUSH2 0x5A PUSH1 0x40 MLOAD DUP1 PUSH1 0x40 ADD PUSH1 0x40 MSTORE DUP1 PUSH1 0xF DUP2 MSTORE PUSH1 0x20 ADD PUSH32 0x4D75726174204D757261746F676C750000000000000000000000000000000000 DUP2 MSTORE POP PUSH2 0x12B PUSH1 0x20 SHL PUSH1 0x20 SHR JUMP JUMPDEST PUSH2 0x9E PUSH1 0x40 MLOAD DUP1 PUSH1 0x40 ADD PUSH1 0x40 MSTORE DUP1 PUSH1 0x9 DUP2 MSTORE PUSH1 0x20 ADD PUSH32 0x4970656B204B6F7A610000000000000000000000000000000000000000000000 DUP2 MSTORE POP PUSH2 0x12B PUSH1 0x20 SHL PUSH1 0x20 SHR JUMP JUMPDEST PUSH2 0xE2 PUSH1 0x40 MLOAD DUP1 PUSH1 0x40 ADD PUSH1 0x40 MSTORE DUP1 PUSH1 0xE DUP2 MSTORE PUSH1 0x20 ADD PUSH32 0x456B696E2059696C64697A68616E000000000000000000000000000000000000 DUP2 MSTORE POP PUSH2 0x12B PUSH1 0x20 SHL PUSH1 0x20 SHR JUMP JUMPDEST PUSH2 0x126 PUSH1 0x40 MLOAD DUP1 PUSH1 0x40 ADD PUSH1 0x40 MSTORE DUP1 PUSH1 0xA DUP2 MSTORE PUSH1 0x20 ADD PUSH32 0x48696C616C205361726900000000000000000000000000000000000000000000 DUP2 MSTORE POP PUSH2 0x12B PUSH1 0x20 SHL PUSH1 0x20 SHR JUMP JUMPDEST PUSH2 0x332 JUMP JUMPDEST PUSH1 0x1 PUSH1 0x0 DUP2 SLOAD DUP1 SWAP3 SWAP2 SWAP1 PUSH2 0x13E SWAP1 PUSH2 0x28B JUMP JUMPDEST SWAP2 SWAP1 POP SSTORE POP PUSH1 0x40 MLOAD DUP1 PUSH1 0x60 ADD PUSH1 0x40 MSTORE DUP1 PUSH1 0x1 SLOAD DUP2 MSTORE PUSH1 0x20 ADD DUP3 DUP2 MSTORE PUSH1 0x20 ADD PUSH1 0x0 DUP2 MSTORE POP PUSH1 0x0 DUP1 PUSH1 0x1 SLOAD DUP2 MSTORE PUSH1 0x20 ADD SWAP1 DUP2 MSTORE PUSH1 0x20 ADD PUSH1 0x0 KECCAK256 PUSH1 0x0 DUP3 ADD MLOAD DUP2 PUSH1 0x0 ADD SSTORE PUSH1 0x20 DUP3 ADD MLOAD DUP2 PUSH1 0x1 ADD SWAP1 DUP1 MLOAD SWAP1 PUSH1 0x20 ADD SWAP1 PUSH2 0x19B SWAP3 SWAP2 SWAP1 PUSH2 0x1AC JUMP JUMPDEST POP PUSH1 0x40 DUP3 ADD MLOAD DUP2 PUSH1 0x2 ADD SSTORE SWAP1 POP POP POP JUMP JUMPDEST DUP3 DUP1 SLOAD PUSH2 0x1B8 SWAP1 PUSH2 0x259 JUMP JUMPDEST SWAP1 PUSH1 0x0 MSTORE PUSH1 0x20 PUSH1 0x0 KECCAK256 SWAP1 PUSH1 0x1F ADD PUSH1 0x20 SWAP1 DIV DUP2 ADD SWAP3 DUP3 PUSH2 0x1DA JUMPI PUSH1 0x0 DUP6 SSTORE PUSH2 0x221 JUMP JUMPDEST DUP3 PUSH1 0x1F LT PUSH2 0x1F3 JUMPI DUP1 MLOAD PUSH1 0xFF NOT AND DUP4 DUP1 ADD OR DUP6 SSTORE PUSH2 0x221 JUMP JUMPDEST DUP3 DUP1 ADD PUSH1 0x1 ADD DUP6 SSTORE DUP3 ISZERO PUSH2 0x221 JUMPI SWAP2 DUP3 ADD JUMPDEST DUP3 DUP2 GT ISZERO PUSH2 0x220 JUMPI DUP3 MLOAD DUP3 SSTORE SWAP2 PUSH1 0x20 ADD SWAP2 SWAP1 PUSH1 0x1 ADD SWAP1 PUSH2 0x205 JUMP JUMPDEST JUMPDEST POP SWAP1 POP PUSH2 0x22E SWAP2 SWAP1 PUSH2 0x232 JUMP JUMPDEST POP SWAP1 JUMP JUMPDEST JUMPDEST DUP1 DUP3 GT ISZERO PUSH2 0x24B JUMPI PUSH1 0x0 DUP2 PUSH1 0x0 SWAP1 SSTORE POP PUSH1 0x1 ADD PUSH2 0x233 JUMP JUMPDEST POP SWAP1 JUMP JUMPDEST PUSH1 0x0 DUP2 SWAP1 POP SWAP2 SWAP1 POP JUMP JUMPDEST PUSH1 0x0 PUSH1 0x2 DUP3 DIV SWAP1 POP PUSH1 0x1 DUP3 AND DUP1 PUSH2 0x271 JUMPI PUSH1 0x7F DUP3 AND SWAP2 POP JUMPDEST PUSH1 0x20 DUP3 LT DUP2 EQ ISZERO PUSH2 0x285 JUMPI PUSH2 0x284 PUSH2 0x303 JUMP JUMPDEST JUMPDEST POP SWAP2 SWAP1 POP JUMP JUMPDEST PUSH1 0x0 PUSH2 0x296 DUP3 PUSH2 0x24F JUMP JUMPDEST SWAP2 POP PUSH32 0xFFFFFFFFFFFFFFFFFFFFFFFFFFFFFFFFFFFFFFFFFFFFFFFFFFFFFFFFFFFFFFFF DUP3 EQ ISZERO PUSH2 0x2C9 JUMPI PUSH2 0x2C8 PUSH2 0x2D4 JUMP JUMPDEST JUMPDEST PUSH1 0x1 DUP3 ADD SWAP1 POP SWAP2 SWAP1 POP JUMP JUMPDEST PUSH32 0x4E487B7100000000000000000000000000000000000000000000000000000000 PUSH1 0x0 MSTORE PUSH1 0x11 PUSH1 0x4 MSTORE PUSH1 0x24 PUSH1 0x0 REVERT JUMPDEST PUSH32 0x4E487B7100000000000000000000000000000000000000000000000000000000 PUSH1 0x0 MSTORE PUSH1 0x22 PUSH1 0x4 MSTORE PUSH1 0x24 PUSH1 0x0 REVERT JUMPDEST PUSH2 0x629 DUP1 PUSH2 0x341 PUSH1 0x0 CODECOPY PUSH1 0x0 RETURN INVALID PUSH1 0x80 PUSH1 0x40 MSTORE CALLVALUE DUP1 ISZERO PUSH2 0x10 JUMPI PUSH1 0x0 DUP1 REVERT JUMPDEST POP PUSH1 0x4 CALLDATASIZE LT PUSH2 0x4C JUMPI PUSH1 0x0 CALLDATALOAD PUSH1 0xE0 SHR DUP1 PUSH4 0x121B93F EQ PUSH2 0x51 JUMPI DUP1 PUSH4 0x6661ABD EQ PUSH2 0x6D JUMPI DUP1 PUSH4 0x101ED4E1 EQ PUSH2 0x8B JUMPI DUP1 PUSH4 0xAE66D4F4 EQ PUSH2 0xBD JUMPI JUMPDEST PUSH1 0x0 DUP1 REVERT JUMPDEST PUSH2 0x6B PUSH1 0x4 DUP1 CALLDATASIZE SUB DUP2 ADD SWAP1 PUSH2 0x66 SWAP2 SWAP1 PUSH2 0x347 JUMP JUMPDEST PUSH2 0xED JUMP JUMPDEST STOP JUMPDEST PUSH2 0x75 PUSH2 0x218 JUMP JUMPDEST PUSH1 0x40 MLOAD PUSH2 0x82 SWAP2 SWAP1 PUSH2 0x3E6 JUMP JUMPDEST PUSH1 0x40 MLOAD DUP1 SWAP2 SUB SWAP1 RETURN JUMPDEST PUSH2 0xA5 PUSH1 0x4 DUP1 CALLDATASIZE SUB DUP2 ADD SWAP1 PUSH2 0xA0 SWAP2 SWAP1 PUSH2 0x347 JUMP JUMPDEST PUSH2 0x21E JUMP JUMPDEST PUSH1 0x40 MLOAD PUSH2 0xB4 SWAP4 SWAP3 SWAP2 SWAP1 PUSH2 0x401 JUMP JUMPDEST PUSH1 0x40 MLOAD DUP1 SWAP2 SUB SWAP1 RETURN JUMPDEST PUSH2 0xD7 PUSH1 0x4 DUP1 CALLDATASIZE SUB DUP2 ADD SWAP1 PUSH2 0xD2 SWAP2 SWAP1 PUSH2 0x31A JUMP JUMPDEST PUSH2 0x2D0 JUMP JUMPDEST PUSH1 0x40 MLOAD PUSH2 0xE4 SWAP2 SWAP1 PUSH2 0x3CB JUMP JUMPDEST PUSH1 0x40 MLOAD DUP1 SWAP2 SUB SWAP1 RETURN JUMPDEST PUSH1 0x0 ISZERO ISZERO PUSH1 0x2 PUSH1 0x0 CALLER PUSH20 0xFFFFFFFFFFFFFFFFFFFFFFFFFFFFFFFFFFFFFFFF AND PUSH20 0xFFFFFFFFFFFFFFFFFFFFFFFFFFFFFFFFFFFFFFFF AND DUP2 MSTORE PUSH1 0x20 ADD SWAP1 DUP2 MSTORE PUSH1 0x20 ADD PUSH1 0x0 KECCAK256 PUSH1 0x0 SWAP1 SLOAD SWAP1 PUSH2 0x100 EXP SWAP1 DIV PUSH1 0xFF AND ISZERO ISZERO EQ PUSH2 0x14A JUMPI PUSH1 0x0 DUP1 REVERT JUMPDEST PUSH1 0x0 DUP2 GT DUP1 ISZERO PUSH2 0x15C JUMPI POP PUSH1 0x1 SLOAD DUP2 GT ISZERO JUMPDEST PUSH2 0x165 JUMPI PUSH1 0x0 DUP1 REVERT JUMPDEST PUSH1 0x1 PUSH1 0x2 PUSH1 0x0 CALLER PUSH20 0xFFFFFFFFFFFFFFFFFFFFFFFFFFFFFFFFFFFFFFFF AND PUSH20 0xFFFFFFFFFFFFFFFFFFFFFFFFFFFFFFFFFFFFFFFF AND DUP2 MSTORE PUSH1 0x20 ADD SWAP1 DUP2 MSTORE PUSH1 0x20 ADD PUSH1 0x0 KECCAK256 PUSH1 0x0 PUSH2 0x100 EXP DUP2 SLOAD DUP2 PUSH1 0xFF MUL NOT AND SWAP1 DUP4 ISZERO ISZERO MUL OR SWAP1 SSTORE POP PUSH1 0x0 DUP1 DUP3 DUP2 MSTORE PUSH1 0x20 ADD SWAP1 DUP2 MSTORE PUSH1 0x20 ADD PUSH1 0x0 KECCAK256 PUSH1 0x2 ADD PUSH1 0x0 DUP2 SLOAD DUP1 SWAP3 SWAP2 SWAP1 PUSH2 0x1E3 SWAP1 PUSH2 0x508 JUMP JUMPDEST SWAP2 SWAP1 POP SSTORE POP DUP1 PUSH32 0x3474D7A80D734F2C159CBC95FD43CC116F75C5CC5B1B755E0FD91A0DBFC3C8C1 PUSH1 0x40 MLOAD PUSH1 0x40 MLOAD DUP1 SWAP2 SUB SWAP1 LOG2 POP JUMP JUMPDEST PUSH1 0x1 SLOAD DUP2 JUMP JUMPDEST PUSH1 0x0 PUSH1 0x20 MSTORE DUP1 PUSH1 0x0 MSTORE PUSH1 0x40 PUSH1 0x0 KECCAK256 PUSH1 0x0 SWAP2 POP SWAP1 POP DUP1 PUSH1 0x0 ADD SLOAD SWAP1 DUP1 PUSH1 0x1 ADD DUP1 SLOAD PUSH2 0x247 SWAP1 PUSH2 0x4D6 JUMP JUMPDEST DUP1 PUSH1 0x1F ADD PUSH1 0x20 DUP1 SWAP2 DIV MUL PUSH1 0x20 ADD PUSH1 0x40 MLOAD SWAP1 DUP2 ADD PUSH1 0x40 MSTORE DUP1 SWAP3 SWAP2 SWAP1 DUP2 DUP2 MSTORE PUSH1 0x20 ADD DUP3 DUP1 SLOAD PUSH2 0x273 SWAP1 PUSH2 0x4D6 JUMP JUMPDEST DUP1 ISZERO PUSH2 0x2C0 JUMPI DUP1 PUSH1 0x1F LT PUSH2 0x295 JUMPI PUSH2 0x100 DUP1 DUP4 SLOAD DIV MUL DUP4 MSTORE SWAP2 PUSH1 0x20 ADD SWAP2 PUSH2 0x2C0 JUMP JUMPDEST DUP3 ADD SWAP2 SWAP1 PUSH1 0x0 MSTORE PUSH1 0x20 PUSH1 0x0 KECCAK256 SWAP1 JUMPDEST DUP2 SLOAD DUP2 MSTORE SWAP1 PUSH1 0x1 ADD SWAP1 PUSH1 0x20 ADD DUP1 DUP4 GT PUSH2 0x2A3 JUMPI DUP3 SWAP1 SUB PUSH1 0x1F AND DUP3 ADD SWAP2 JUMPDEST POP POP POP POP POP SWAP1 DUP1 PUSH1 0x2 ADD SLOAD SWAP1 POP DUP4 JUMP JUMPDEST PUSH1 0x2 PUSH1 0x20 MSTORE DUP1 PUSH1 0x0 MSTORE PUSH1 0x40 PUSH1 0x0 KECCAK256 PUSH1 0x0 SWAP2 POP SLOAD SWAP1 PUSH2 0x100 EXP SWAP1 DIV PUSH1 0xFF AND DUP2 JUMP JUMPDEST PUSH1 0x0 DUP2 CALLDATALOAD SWAP1 POP PUSH2 0x2FF DUP2 PUSH2 0x5C5 JUMP JUMPDEST SWAP3 SWAP2 POP POP JUMP JUMPDEST PUSH1 0x0 DUP2 CALLDATALOAD SWAP1 POP PUSH2 0x314 DUP2 PUSH2 0x5DC JUMP JUMPDEST SWAP3 SWAP2 POP POP JUMP JUMPDEST PUSH1 0x0 PUSH1 0x20 DUP3 DUP5 SUB SLT ISZERO PUSH2 0x330 JUMPI PUSH2 0x32F PUSH2 0x5AF JUMP JUMPDEST JUMPDEST PUSH1 0x0 PUSH2 0x33E DUP5 DUP3 DUP6 ADD PUSH2 0x2F0 JUMP JUMPDEST SWAP2 POP POP SWAP3 SWAP2 POP POP JUMP JUMPDEST PUSH1 0x0 PUSH1 0x20 DUP3 DUP5 SUB SLT ISZERO PUSH2 0x35D JUMPI PUSH2 0x35C PUSH2 0x5AF JUMP JUMPDEST JUMPDEST PUSH1 0x0 PUSH2 0x36B DUP5 DUP3 DUP6 ADD PUSH2 0x305 JUMP JUMPDEST SWAP2 POP POP SWAP3 SWAP2 POP POP JUMP JUMPDEST PUSH2 0x37D DUP2 PUSH2 0x46D JUMP JUMPDEST DUP3 MSTORE POP POP JUMP JUMPDEST PUSH1 0x0 PUSH2 0x38E DUP3 PUSH2 0x43F JUMP JUMPDEST PUSH2 0x398 DUP2 DUP6 PUSH2 0x44A JUMP JUMPDEST SWAP4 POP PUSH2 0x3A8 DUP2 DUP6 PUSH1 0x20 DUP7 ADD PUSH2 0x4A3 JUMP JUMPDEST PUSH2 0x3B1 DUP2 PUSH2 0x5B4 JUMP JUMPDEST DUP5 ADD SWAP2 POP POP SWAP3 SWAP2 POP POP JUMP JUMPDEST PUSH2 0x3C5 DUP2 PUSH2 0x499 JUMP JUMPDEST DUP3 MSTORE POP POP JUMP JUMPDEST PUSH1 0x0 PUSH1 0x20 DUP3 ADD SWAP1 POP PUSH2 0x3E0 PUSH1 0x0 DUP4 ADD DUP5 PUSH2 0x374 JUMP JUMPDEST SWAP3 SWAP2 POP POP JUMP JUMPDEST PUSH1 0x0 PUSH1 0x20 DUP3 ADD SWAP1 POP PUSH2 0x3FB PUSH1 0x0 DUP4 ADD DUP5 PUSH2 0x3BC JUMP JUMPDEST SWAP3 SWAP2 POP POP JUMP JUMPDEST PUSH1 0x0 PUSH1 0x60 DUP3 ADD SWAP1 POP PUSH2 0x416 PUSH1 0x0 DUP4 ADD DUP7 PUSH2 0x3BC JUMP JUMPDEST DUP2 DUP2 SUB PUSH1 0x20 DUP4 ADD MSTORE PUSH2 0x428 DUP2 DUP6 PUSH2 0x383 JUMP JUMPDEST SWAP1 POP PUSH2 0x437 PUSH1 0x40 DUP4 ADD DUP5 PUSH2 0x3BC JUMP JUMPDEST SWAP5 SWAP4 POP POP POP POP JUMP JUMPDEST PUSH1 0x0 DUP2 MLOAD SWAP1 POP SWAP2 SWAP1 POP JUMP JUMPDEST PUSH1 0x0 DUP3 DUP3 MSTORE PUSH1 0x20 DUP3 ADD SWAP1 POP SWAP3 SWAP2 POP POP JUMP JUMPDEST PUSH1 0x0 PUSH2 0x466 DUP3 PUSH2 0x479 JUMP JUMPDEST SWAP1 POP SWAP2 SWAP1 POP JUMP JUMPDEST PUSH1 0x0 DUP2 ISZERO ISZERO SWAP1 POP SWAP2 SWAP1 POP JUMP JUMPDEST PUSH1 0x0 PUSH20 0xFFFFFFFFFFFFFFFFFFFFFFFFFFFFFFFFFFFFFFFF DUP3 AND SWAP1 POP SWAP2 SWAP1 POP JUMP JUMPDEST PUSH1 0x0 DUP2 SWAP1 POP SWAP2 SWAP1 POP JUMP JUMPDEST PUSH1 0x0 JUMPDEST DUP4 DUP2 LT ISZERO PUSH2 0x4C1 JUMPI DUP1 DUP3 ADD MLOAD DUP2 DUP5 ADD MSTORE PUSH1 0x20 DUP2 ADD SWAP1 POP PUSH2 0x4A6 JUMP JUMPDEST DUP4 DUP2 GT ISZERO PUSH2 0x4D0 JUMPI PUSH1 0x0 DUP5 DUP5 ADD MSTORE JUMPDEST POP POP POP POP JUMP JUMPDEST PUSH1 0x0 PUSH1 0x2 DUP3 DIV SWAP1 POP PUSH1 0x1 DUP3 AND DUP1 PUSH2 0x4EE JUMPI PUSH1 0x7F DUP3 AND SWAP2 POP JUMPDEST PUSH1 0x20 DUP3 LT DUP2 EQ ISZERO PUSH2 0x502 JUMPI PUSH2 0x501 PUSH2 0x580 JUMP JUMPDEST JUMPDEST POP SWAP2 SWAP1 POP JUMP JUMPDEST PUSH1 0x0 PUSH2 0x513 DUP3 PUSH2 0x499 JUMP JUMPDEST SWAP2 POP PUSH32 0xFFFFFFFFFFFFFFFFFFFFFFFFFFFFFFFFFFFFFFFFFFFFFFFFFFFFFFFFFFFFFFFF DUP3 EQ ISZERO PUSH2 0x546 JUMPI PUSH2 0x545 PUSH2 0x551 JUMP JUMPDEST JUMPDEST PUSH1 0x1 DUP3 ADD SWAP1 POP SWAP2 SWAP1 POP JUMP JUMPDEST PUSH32 0x4E487B7100000000000000000000000000000000000000000000000000000000 PUSH1 0x0 MSTORE PUSH1 0x11 PUSH1 0x4 MSTORE PUSH1 0x24 PUSH1 0x0 REVERT JUMPDEST PUSH32 0x4E487B7100000000000000000000000000000000000000000000000000000000 PUSH1 0x0 MSTORE PUSH1 0x22 PUSH1 0x4 MSTORE PUSH1 0x24 PUSH1 0x0 REVERT JUMPDEST PUSH1 0x0 DUP1 REVERT JUMPDEST PUSH1 0x0 PUSH1 0x1F NOT PUSH1 0x1F DUP4 ADD AND SWAP1 POP SWAP2 SWAP1 POP JUMP JUMPDEST PUSH2 0x5CE DUP2 PUSH2 0x45B JUMP JUMPDEST DUP2 EQ PUSH2 0x5D9 JUMPI PUSH1 0x0 DUP1 REVERT JUMPDEST POP JUMP JUMPDEST PUSH2 0x5E5 DUP2 PUSH2 0x499 JUMP JUMPDEST DUP2 EQ PUSH2 0x5F0 JUMPI PUSH1 0x0 DUP1 REVERT JUMPDEST POP JUMP INVALID LOG2 PUSH5 0x6970667358 0x22 SLT KECCAK256 0xAB CALLDATACOPY 0xC2 0xE1 0xB8 SWAP9 DUP2 DUP9 PUSH11 0xDAE367B3C96F81FF296B4E PUSH9 0xA4D31E95042F39D4B4 0x25 0xE4 PUSH5 0x736F6C6343 STOP ADDMOD SMOD STOP CALLER "
				},
				"gasEstimates": {
					"creation": {
						"codeDepositCost": "315400",
						"executionCost": "infinite",
						"totalCost": "infinite"
					},
					"external": {
						"candidatesMap(uint256)": "infinite",
						"count()": "2429",
						"vote(uint256)": "infinite",
						"votersMap(address)": "2889"
					},
					"internal": {
						"addCandidate(string memory)": "infinite"
					}
				},
				"methodIdentifiers": {
					"candidatesMap(uint256)": "101ed4e1",
					"count()": "06661abd",
					"vote(uint256)": "0121b93f",
					"votersMap(address)": "ae66d4f4"
				}
			},
			"storageLayout": {
				"storage": [
					{
						"astId": 13,
						"contract": "contracts/Voting.sol:Voting",
						"label": "candidatesMap",
						"offset": 0,
						"slot": "0",
						"type": "t_mapping(t_uint256,t_struct(Candidate)8_storage)"
					},
					{
						"astId": 16,
						"contract": "contracts/Voting.sol:Voting",
						"label": "count",
						"offset": 0,
						"slot": "1",
						"type": "t_uint256"
					},
					{
						"astId": 20,
						"contract": "contracts/Voting.sol:Voting",
						"label": "votersMap",
						"offset": 0,
						"slot": "2",
						"type": "t_mapping(t_address,t_bool)"
					}
				],
				"types": {
					"t_address": {
						"encoding": "inplace",
						"label": "address",
						"numberOfBytes": "20"
					},
					"t_bool": {
						"encoding": "inplace",
						"label": "bool",
						"numberOfBytes": "1"
					},
					"t_mapping(t_address,t_bool)": {
						"encoding": "mapping",
						"key": "t_address",
						"label": "mapping(address => bool)",
						"numberOfBytes": "32",
						"value": "t_bool"
					},
					"t_mapping(t_uint256,t_struct(Candidate)8_storage)": {
						"encoding": "mapping",
						"key": "t_uint256",
						"label": "mapping(uint256 => struct Voting.Candidate)",
						"numberOfBytes": "32",
						"value": "t_struct(Candidate)8_storage"
					},
					"t_string_storage": {
						"encoding": "bytes",
						"label": "string",
						"numberOfBytes": "32"
					},
					"t_struct(Candidate)8_storage": {
						"encoding": "inplace",
						"label": "struct Voting.Candidate",
						"members": [
							{
								"astId": 3,
								"contract": "contracts/Voting.sol:Voting",
								"label": "id",
								"offset": 0,
								"slot": "0",
								"type": "t_uint256"
							},
							{
								"astId": 5,
								"contract": "contracts/Voting.sol:Voting",
								"label": "name",
								"offset": 0,
								"slot": "1",
								"type": "t_string_storage"
							},
							{
								"astId": 7,
								"contract": "contracts/Voting.sol:Voting",
								"label": "voteCount",
								"offset": 0,
								"slot": "2",
								"type": "t_uint256"
							}
						],
						"numberOfBytes": "96"
					},
					"t_uint256": {
						"encoding": "inplace",
						"label": "uint256",
						"numberOfBytes": "32"
					}
				}
			},
			"userdoc": {
				"kind": "user",
				"methods": {},
				"version": 1
			}
		}
	}
}