{
	"contracts/Voting.sol": {
		"Voting": {
			"abi": [
				{
					"inputs": [],
					"stateMutability": "nonpayable",
					"type": "constructor"
				},
				{
					"anonymous": false,
					"inputs": [
						{
							"indexed": true,
							"internalType": "uint256",
							"name": "candidateId",
							"type": "uint256"
						}
					],
					"name": "votingEvent",
					"type": "event"
				},
				{
					"inputs": [
						{
							"internalType": "uint256",
							"name": "",
							"type": "uint256"
						}
					],
					"name": "candidatesMap",
					"outputs": [
						{
							"internalType": "uint256",
							"name": "id",
							"type": "uint256"
						},
						{
							"internalType": "string",
							"name": "name",
							"type": "string"
						},
						{
							"internalType": "uint256",
							"name": "voteCount",
							"type": "uint256"
						}
					],
					"stateMutability": "view",
					"type": "function"
				},
				{
					"inputs": [],
					"name": "count",
					"outputs": [
						{
							"internalType": "uint256",
							"name": "",
							"type": "uint256"
						}
					],
					"stateMutability": "view",
					"type": "function"
				},
				{
					"inputs": [
						{
							"internalType": "uint256",
							"name": "candidateId",
							"type": "uint256"
						}
					],
					"name": "vote",
					"outputs": [],
					"stateMutability": "nonpayable",
					"type": "function"
				},
				{
					"inputs": [
						{
							"internalType": "address",
							"name": "",
							"type": "address"
						}
					],
					"name": "votersMap",
					"outputs": [
						{
							"internalType": "bool",
							"name": "",
							"type": "bool"
						}
					],
					"stateMutability": "view",
					"type": "function"
				},
				{
					"inputs": [
						{
							"internalType": "address",
							"name": "",
							"type": "address"
						}
					],
					"name": "votersMapName",
					"outputs": [
						{
							"internalType": "string",
							"name": "",
							"type": "string"
						}
					],
					"stateMutability": "view",
					"type": "function"
				}
			],
			"devdoc": {
				"kind": "dev",
				"methods": {},
				"version": 1
			},
			"evm": {
				"assembly": "    /* \"contracts/Voting.sol\":108:1885  contract Voting \r... */\n  mstore(0x40, 0x80)\n    /* \"contracts/Voting.sol\":466:467  0 */\n  0x00\n    /* \"contracts/Voting.sol\":443:467  uint256 public count = 0 */\n  0x01\n  sstore\n    /* \"contracts/Voting.sol\":791:975  constructor() \r... */\n  callvalue\n  dup1\n  iszero\n  tag_1\n  jumpi\n  0x00\n  dup1\n  revert\ntag_1:\n  pop\n    /* \"contracts/Voting.sol\":822:853  addCandidate(\"Murat Muratoglu\") */\n  tag_4\n  mload(0x40)\n  dup1\n  0x40\n  add\n  0x40\n  mstore\n  dup1\n  0x0f\n  dup2\n  mstore\n  0x20\n  add\n  0x4d75726174204d757261746f676c750000000000000000000000000000000000\n  dup2\n  mstore\n  pop\n    /* \"contracts/Voting.sol\":822:834  addCandidate */\n  shl(0x20, tag_5)\n    /* \"contracts/Voting.sol\":822:853  addCandidate(\"Murat Muratoglu\") */\n  0x20\n  shr\n  jump\t// in\ntag_4:\n    /* \"contracts/Voting.sol\":864:889  addCandidate(\"Ipek Koza\") */\n  tag_6\n  mload(0x40)\n  dup1\n  0x40\n  add\n  0x40\n  mstore\n  dup1\n  0x09\n  dup2\n  mstore\n  0x20\n  add\n  0x4970656b204b6f7a610000000000000000000000000000000000000000000000\n  dup2\n  mstore\n  pop\n    /* \"contracts/Voting.sol\":864:876  addCandidate */\n  shl(0x20, tag_5)\n    /* \"contracts/Voting.sol\":864:889  addCandidate(\"Ipek Koza\") */\n  0x20\n  shr\n  jump\t// in\ntag_6:\n    /* \"contracts/Voting.sol\":900:930  addCandidate(\"Ekin Yildizhan\") */\n  tag_7\n  mload(0x40)\n  dup1\n  0x40\n  add\n  0x40\n  mstore\n  dup1\n  0x0e\n  dup2\n  mstore\n  0x20\n  add\n  0x456b696e2059696c64697a68616e000000000000000000000000000000000000\n  dup2\n  mstore\n  pop\n    /* \"contracts/Voting.sol\":900:912  addCandidate */\n  shl(0x20, tag_5)\n    /* \"contracts/Voting.sol\":900:930  addCandidate(\"Ekin Yildizhan\") */\n  0x20\n  shr\n  jump\t// in\ntag_7:\n    /* \"contracts/Voting.sol\":941:967  addCandidate(\"Hilal Sari\") */\n  tag_8\n  mload(0x40)\n  dup1\n  0x40\n  add\n  0x40\n  mstore\n  dup1\n  0x0a\n  dup2\n  mstore\n  0x20\n  add\n  0x48696c616c205361726900000000000000000000000000000000000000000000\n  dup2\n  mstore\n  pop\n    /* \"contracts/Voting.sol\":941:953  addCandidate */\n  shl(0x20, tag_5)\n    /* \"contracts/Voting.sol\":941:967  addCandidate(\"Hilal Sari\") */\n  0x20\n  shr\n  jump\t// in\ntag_8:\n    /* \"contracts/Voting.sol\":108:1885  contract Voting \r... */\n  jump(tag_9)\n    /* \"contracts/Voting.sol\":1026:1264  function addCandidate(string memory candidateName) private \r... */\ntag_5:\n    /* \"contracts/Voting.sol\":1102:1107  count */\n  0x01\n  0x00\n    /* \"contracts/Voting.sol\":1102:1109  count++ */\n  dup2\n  sload\n  dup1\n  swap3\n  swap2\n  swap1\n  tag_11\n  swap1\n  tag_12\n  jump\t// in\ntag_11:\n  swap2\n  swap1\n  pop\n  sstore\n  pop\n    /* \"contracts/Voting.sol\":1222:1256  Candidate(count, candidateName, 0) */\n  mload(0x40)\n  dup1\n  0x60\n  add\n  0x40\n  mstore\n  dup1\n    /* \"contracts/Voting.sol\":1232:1237  count */\n  sload(0x01)\n    /* \"contracts/Voting.sol\":1222:1256  Candidate(count, candidateName, 0) */\n  dup2\n  mstore\n  0x20\n  add\n    /* \"contracts/Voting.sol\":1239:1252  candidateName */\n  dup3\n    /* \"contracts/Voting.sol\":1222:1256  Candidate(count, candidateName, 0) */\n  dup2\n  mstore\n  0x20\n  add\n    /* \"contracts/Voting.sol\":1254:1255  0 */\n  0x00\n    /* \"contracts/Voting.sol\":1222:1256  Candidate(count, candidateName, 0) */\n  dup2\n  mstore\n  pop\n    /* \"contracts/Voting.sol\":1199:1212  candidatesMap */\n  0x00\n    /* \"contracts/Voting.sol\":1199:1219  candidatesMap[count] */\n  dup1\n    /* \"contracts/Voting.sol\":1213:1218  count */\n  sload(0x01)\n    /* \"contracts/Voting.sol\":1199:1219  candidatesMap[count] */\n  dup2\n  mstore\n  0x20\n  add\n  swap1\n  dup2\n  mstore\n  0x20\n  add\n  0x00\n  keccak256\n    /* \"contracts/Voting.sol\":1199:1256  candidatesMap[count] = Candidate(count, candidateName, 0) */\n  0x00\n  dup3\n  add\n  mload\n  dup2\n  0x00\n  add\n  sstore\n  0x20\n  dup3\n  add\n  mload\n  dup2\n  0x01\n  add\n  swap1\n  dup1\n  mload\n  swap1\n  0x20\n  add\n  swap1\n  tag_13\n  swap3\n  swap2\n  swap1\n  tag_14\n  jump\t// in\ntag_13:\n  pop\n  0x40\n  dup3\n  add\n  mload\n  dup2\n  0x02\n  add\n  sstore\n  swap1\n  pop\n  pop\n    /* \"contracts/Voting.sol\":1026:1264  function addCandidate(string memory candidateName) private \r... */\n  pop\n  jump\t// out\n    /* \"contracts/Voting.sol\":108:1885  contract Voting \r... */\ntag_14:\n  dup3\n  dup1\n  sload\n  tag_15\n  swap1\n  tag_16\n  jump\t// in\ntag_15:\n  swap1\n  0x00\n  mstore\n  keccak256(0x00, 0x20)\n  swap1\n  0x1f\n  add\n  0x20\n  swap1\n  div\n  dup2\n  add\n  swap3\n  dup3\n  tag_18\n  jumpi\n  0x00\n  dup6\n  sstore\n  jump(tag_17)\ntag_18:\n  dup3\n  0x1f\n  lt\n  tag_19\n  jumpi\n  dup1\n  mload\n  not(0xff)\n  and\n  dup4\n  dup1\n  add\n  or\n  dup6\n  sstore\n  jump(tag_17)\ntag_19:\n  dup3\n  dup1\n  add\n  0x01\n  add\n  dup6\n  sstore\n  dup3\n  iszero\n  tag_17\n  jumpi\n  swap2\n  dup3\n  add\ntag_20:\n  dup3\n  dup2\n  gt\n  iszero\n  tag_21\n  jumpi\n  dup3\n  mload\n  dup3\n  sstore\n  swap2\n  0x20\n  add\n  swap2\n  swap1\n  0x01\n  add\n  swap1\n  jump(tag_20)\ntag_21:\ntag_17:\n  pop\n  swap1\n  pop\n  tag_22\n  swap2\n  swap1\n  tag_23\n  jump\t// in\ntag_22:\n  pop\n  swap1\n  jump\t// out\ntag_23:\ntag_24:\n  dup1\n  dup3\n  gt\n  iszero\n  tag_25\n  jumpi\n  0x00\n  dup2\n  0x00\n  swap1\n  sstore\n  pop\n  0x01\n  add\n  jump(tag_24)\ntag_25:\n  pop\n  swap1\n  jump\t// out\n    /* \"#utility.yul\":7:84   */\ntag_27:\n    /* \"#utility.yul\":44:51   */\n  0x00\n    /* \"#utility.yul\":73:78   */\n  dup2\n    /* \"#utility.yul\":62:78   */\n  swap1\n  pop\n    /* \"#utility.yul\":7:84   */\n  swap2\n  swap1\n  pop\n  jump\t// out\n    /* \"#utility.yul\":90:410   */\ntag_16:\n    /* \"#utility.yul\":134:140   */\n  0x00\n    /* \"#utility.yul\":171:172   */\n  0x02\n    /* \"#utility.yul\":165:169   */\n  dup3\n    /* \"#utility.yul\":161:173   */\n  div\n    /* \"#utility.yul\":151:173   */\n  swap1\n  pop\n    /* \"#utility.yul\":218:219   */\n  0x01\n    /* \"#utility.yul\":212:216   */\n  dup3\n    /* \"#utility.yul\":208:220   */\n  and\n    /* \"#utility.yul\":239:257   */\n  dup1\n    /* \"#utility.yul\":229:310   */\n  tag_30\n  jumpi\n    /* \"#utility.yul\":295:299   */\n  0x7f\n    /* \"#utility.yul\":287:293   */\n  dup3\n    /* \"#utility.yul\":283:300   */\n  and\n    /* \"#utility.yul\":273:300   */\n  swap2\n  pop\n    /* \"#utility.yul\":229:310   */\ntag_30:\n    /* \"#utility.yul\":357:359   */\n  0x20\n    /* \"#utility.yul\":349:355   */\n  dup3\n    /* \"#utility.yul\":346:360   */\n  lt\n    /* \"#utility.yul\":326:344   */\n  dup2\n    /* \"#utility.yul\":323:361   */\n  eq\n    /* \"#utility.yul\":320:404   */\n  iszero\n  tag_31\n  jumpi\n    /* \"#utility.yul\":376:394   */\n  tag_32\n  tag_33\n  jump\t// in\ntag_32:\n    /* \"#utility.yul\":320:404   */\ntag_31:\n    /* \"#utility.yul\":141:410   */\n  pop\n    /* \"#utility.yul\":90:410   */\n  swap2\n  swap1\n  pop\n  jump\t// out\n    /* \"#utility.yul\":416:649   */\ntag_12:\n    /* \"#utility.yul\":455:458   */\n  0x00\n    /* \"#utility.yul\":478:502   */\n  tag_35\n    /* \"#utility.yul\":496:501   */\n  dup3\n    /* \"#utility.yul\":478:502   */\n  tag_27\n  jump\t// in\ntag_35:\n    /* \"#utility.yul\":469:502   */\n  swap2\n  pop\n    /* \"#utility.yul\":524:590   */\n  0xffffffffffffffffffffffffffffffffffffffffffffffffffffffffffffffff\n    /* \"#utility.yul\":517:522   */\n  dup3\n    /* \"#utility.yul\":514:591   */\n  eq\n    /* \"#utility.yul\":511:614   */\n  iszero\n  tag_36\n  jumpi\n    /* \"#utility.yul\":594:612   */\n  tag_37\n  tag_38\n  jump\t// in\ntag_37:\n    /* \"#utility.yul\":511:614   */\ntag_36:\n    /* \"#utility.yul\":641:642   */\n  0x01\n    /* \"#utility.yul\":634:639   */\n  dup3\n    /* \"#utility.yul\":630:643   */\n  add\n    /* \"#utility.yul\":623:643   */\n  swap1\n  pop\n    /* \"#utility.yul\":416:649   */\n  swap2\n  swap1\n  pop\n  jump\t// out\n    /* \"#utility.yul\":655:835   */\ntag_38:\n    /* \"#utility.yul\":703:780   */\n  0x4e487b7100000000000000000000000000000000000000000000000000000000\n    /* \"#utility.yul\":700:701   */\n  0x00\n    /* \"#utility.yul\":693:781   */\n  mstore\n    /* \"#utility.yul\":800:804   */\n  0x11\n    /* \"#utility.yul\":797:798   */\n  0x04\n    /* \"#utility.yul\":790:805   */\n  mstore\n    /* \"#utility.yul\":824:828   */\n  0x24\n    /* \"#utility.yul\":821:822   */\n  0x00\n    /* \"#utility.yul\":814:829   */\n  revert\n    /* \"#utility.yul\":841:1021   */\ntag_33:\n    /* \"#utility.yul\":889:966   */\n  0x4e487b7100000000000000000000000000000000000000000000000000000000\n    /* \"#utility.yul\":886:887   */\n  0x00\n    /* \"#utility.yul\":879:967   */\n  mstore\n    /* \"#utility.yul\":986:990   */\n  0x22\n    /* \"#utility.yul\":983:984   */\n  0x04\n    /* \"#utility.yul\":976:991   */\n  mstore\n    /* \"#utility.yul\":1010:1014   */\n  0x24\n    /* \"#utility.yul\":1007:1008   */\n  0x00\n    /* \"#utility.yul\":1000:1015   */\n  revert\n    /* \"contracts/Voting.sol\":108:1885  contract Voting \r... */\ntag_9:\n  dataSize(sub_0)\n  dup1\n  dataOffset(sub_0)\n  0x00\n  codecopy\n  0x00\n  return\nstop\n\nsub_0: assembly {\n        /* \"contracts/Voting.sol\":108:1885  contract Voting \r... */\n      mstore(0x40, 0x80)\n      callvalue\n      dup1\n      iszero\n      tag_1\n      jumpi\n      0x00\n      dup1\n      revert\n    tag_1:\n      pop\n      jumpi(tag_2, lt(calldatasize, 0x04))\n      shr(0xe0, calldataload(0x00))\n      dup1\n      0x0121b93f\n      eq\n      tag_3\n      jumpi\n      dup1\n      0x06661abd\n      eq\n      tag_4\n      jumpi\n      dup1\n      0x101ed4e1\n      eq\n      tag_5\n      jumpi\n      dup1\n      0xa8d0f03a\n      eq\n      tag_6\n      jumpi\n      dup1\n      0xae66d4f4\n      eq\n      tag_7\n      jumpi\n    tag_2:\n      0x00\n      dup1\n      revert\n        /* \"contracts/Voting.sol\":1272:1882  function vote(uint256 candidateId) public \r... */\n    tag_3:\n      tag_8\n      0x04\n      dup1\n      calldatasize\n      sub\n      dup2\n      add\n      swap1\n      tag_9\n      swap2\n      swap1\n      tag_10\n      jump\t// in\n    tag_9:\n      tag_11\n      jump\t// in\n    tag_8:\n      stop\n        /* \"contracts/Voting.sol\":443:467  uint256 public count = 0 */\n    tag_4:\n      tag_12\n      tag_13\n      jump\t// in\n    tag_12:\n      mload(0x40)\n      tag_14\n      swap2\n      swap1\n      tag_15\n      jump\t// in\n    tag_14:\n      mload(0x40)\n      dup1\n      swap2\n      sub\n      swap1\n      return\n        /* \"contracts/Voting.sol\":332:382  mapping(uint256 => Candidate) public candidatesMap */\n    tag_5:\n      tag_16\n      0x04\n      dup1\n      calldatasize\n      sub\n      dup2\n      add\n      swap1\n      tag_17\n      swap2\n      swap1\n      tag_10\n      jump\t// in\n    tag_17:\n      tag_18\n      jump\t// in\n    tag_16:\n      mload(0x40)\n      tag_19\n      swap4\n      swap3\n      swap2\n      swap1\n      tag_20\n      jump\t// in\n    tag_19:\n      mload(0x40)\n      dup1\n      swap2\n      sub\n      swap1\n      return\n        /* \"contracts/Voting.sol\":660:707  mapping(address => string) public votersMapName */\n    tag_6:\n      tag_21\n      0x04\n      dup1\n      calldatasize\n      sub\n      dup2\n      add\n      swap1\n      tag_22\n      swap2\n      swap1\n      tag_23\n      jump\t// in\n    tag_22:\n      tag_24\n      jump\t// in\n    tag_21:\n      mload(0x40)\n      tag_25\n      swap2\n      swap1\n      tag_26\n      jump\t// in\n    tag_25:\n      mload(0x40)\n      dup1\n      swap2\n      sub\n      swap1\n      return\n        /* \"contracts/Voting.sol\":548:589  mapping(address => bool) public votersMap */\n    tag_7:\n      tag_27\n      0x04\n      dup1\n      calldatasize\n      sub\n      dup2\n      add\n      swap1\n      tag_28\n      swap2\n      swap1\n      tag_23\n      jump\t// in\n    tag_28:\n      tag_29\n      jump\t// in\n    tag_27:\n      mload(0x40)\n      tag_30\n      swap2\n      swap1\n      tag_31\n      jump\t// in\n    tag_30:\n      mload(0x40)\n      dup1\n      swap2\n      sub\n      swap1\n      return\n        /* \"contracts/Voting.sol\":1272:1882  function vote(uint256 candidateId) public \r... */\n    tag_11:\n        /* \"contracts/Voting.sol\":1432:1437  false */\n      0x00\n        /* \"contracts/Voting.sol\":1407:1437  votersMap[msg.sender] == false */\n      iszero\n      iszero\n        /* \"contracts/Voting.sol\":1407:1416  votersMap */\n      0x02\n        /* \"contracts/Voting.sol\":1407:1428  votersMap[msg.sender] */\n      0x00\n        /* \"contracts/Voting.sol\":1417:1427  msg.sender */\n      caller\n        /* \"contracts/Voting.sol\":1407:1428  votersMap[msg.sender] */\n      0xffffffffffffffffffffffffffffffffffffffff\n      and\n      0xffffffffffffffffffffffffffffffffffffffff\n      and\n      dup2\n      mstore\n      0x20\n      add\n      swap1\n      dup2\n      mstore\n      0x20\n      add\n      0x00\n      keccak256\n      0x00\n      swap1\n      sload\n      swap1\n      0x0100\n      exp\n      swap1\n      div\n      0xff\n      and\n        /* \"contracts/Voting.sol\":1407:1437  votersMap[msg.sender] == false */\n      iszero\n      iszero\n      eq\n        /* \"contracts/Voting.sol\":1400:1438  assert(votersMap[msg.sender] == false) */\n      tag_33\n      jumpi\n      tag_34\n      tag_35\n      jump\t// in\n    tag_34:\n    tag_33:\n        /* \"contracts/Voting.sol\":1567:1572  false */\n      0x00\n        /* \"contracts/Voting.sol\":1518:1572  (bytes(votersMapName[msg.sender]).length > 0) == false */\n      iszero\n      iszero\n        /* \"contracts/Voting.sol\":1561:1562  0 */\n      0x00\n        /* \"contracts/Voting.sol\":1525:1538  votersMapName */\n      0x03\n        /* \"contracts/Voting.sol\":1525:1550  votersMapName[msg.sender] */\n      0x00\n        /* \"contracts/Voting.sol\":1539:1549  msg.sender */\n      caller\n        /* \"contracts/Voting.sol\":1525:1550  votersMapName[msg.sender] */\n      0xffffffffffffffffffffffffffffffffffffffff\n      and\n      0xffffffffffffffffffffffffffffffffffffffff\n      and\n      dup2\n      mstore\n      0x20\n      add\n      swap1\n      dup2\n      mstore\n      0x20\n      add\n      0x00\n      keccak256\n        /* \"contracts/Voting.sol\":1519:1558  bytes(votersMapName[msg.sender]).length */\n      dup1\n      sload\n      tag_36\n      swap1\n      tag_37\n      jump\t// in\n    tag_36:\n      swap1\n      pop\n        /* \"contracts/Voting.sol\":1519:1562  bytes(votersMapName[msg.sender]).length > 0 */\n      gt\n        /* \"contracts/Voting.sol\":1518:1572  (bytes(votersMapName[msg.sender]).length > 0) == false */\n      iszero\n      iszero\n      eq\n        /* \"contracts/Voting.sol\":1511:1573  assert((bytes(votersMapName[msg.sender]).length > 0) == false) */\n      tag_38\n      jumpi\n      tag_39\n      tag_35\n      jump\t// in\n    tag_39:\n    tag_38:\n        /* \"contracts/Voting.sol\":1645:1646  0 */\n      0x00\n        /* \"contracts/Voting.sol\":1631:1642  candidateId */\n      dup2\n        /* \"contracts/Voting.sol\":1631:1646  candidateId > 0 */\n      gt\n        /* \"contracts/Voting.sol\":1631:1670  candidateId > 0 && candidateId <= count */\n      dup1\n      iszero\n      tag_40\n      jumpi\n      pop\n        /* \"contracts/Voting.sol\":1665:1670  count */\n      sload(0x01)\n        /* \"contracts/Voting.sol\":1650:1661  candidateId */\n      dup2\n        /* \"contracts/Voting.sol\":1650:1670  candidateId <= count */\n      gt\n      iszero\n        /* \"contracts/Voting.sol\":1631:1670  candidateId > 0 && candidateId <= count */\n    tag_40:\n        /* \"contracts/Voting.sol\":1624:1671  assert(candidateId > 0 && candidateId <= count) */\n      tag_41\n      jumpi\n      tag_42\n      tag_35\n      jump\t// in\n    tag_42:\n    tag_41:\n        /* \"contracts/Voting.sol\":1737:1741  true */\n      0x01\n        /* \"contracts/Voting.sol\":1713:1722  votersMap */\n      0x02\n        /* \"contracts/Voting.sol\":1713:1734  votersMap[msg.sender] */\n      0x00\n        /* \"contracts/Voting.sol\":1723:1733  msg.sender */\n      caller\n        /* \"contracts/Voting.sol\":1713:1734  votersMap[msg.sender] */\n      0xffffffffffffffffffffffffffffffffffffffff\n      and\n      0xffffffffffffffffffffffffffffffffffffffff\n      and\n      dup2\n      mstore\n      0x20\n      add\n      swap1\n      dup2\n      mstore\n      0x20\n      add\n      0x00\n      keccak256\n      0x00\n        /* \"contracts/Voting.sol\":1713:1741  votersMap[msg.sender] = true */\n      0x0100\n      exp\n      dup2\n      sload\n      dup2\n      0xff\n      mul\n      not\n      and\n      swap1\n      dup4\n      iszero\n      iszero\n      mul\n      or\n      swap1\n      sstore\n      pop\n        /* \"contracts/Voting.sol\":1794:1807  candidatesMap */\n      0x00\n        /* \"contracts/Voting.sol\":1794:1820  candidatesMap[candidateId] */\n      dup1\n        /* \"contracts/Voting.sol\":1808:1819  candidateId */\n      dup3\n        /* \"contracts/Voting.sol\":1794:1820  candidatesMap[candidateId] */\n      dup2\n      mstore\n      0x20\n      add\n      swap1\n      dup2\n      mstore\n      0x20\n      add\n      0x00\n      keccak256\n        /* \"contracts/Voting.sol\":1794:1830  candidatesMap[candidateId].voteCount */\n      0x02\n      add\n      0x00\n        /* \"contracts/Voting.sol\":1794:1832  candidatesMap[candidateId].voteCount++ */\n      dup2\n      sload\n      dup1\n      swap3\n      swap2\n      swap1\n      tag_43\n      swap1\n      tag_44\n      jump\t// in\n    tag_43:\n      swap2\n      swap1\n      pop\n      sstore\n      pop\n        /* \"contracts/Voting.sol\":1862:1873  candidateId */\n      dup1\n        /* \"contracts/Voting.sol\":1850:1874  votingEvent(candidateId) */\n      0x3474d7a80d734f2c159cbc95fd43cc116f75c5cc5b1b755e0fd91a0dbfc3c8c1\n      mload(0x40)\n      mload(0x40)\n      dup1\n      swap2\n      sub\n      swap1\n      log2\n        /* \"contracts/Voting.sol\":1272:1882  function vote(uint256 candidateId) public \r... */\n      pop\n      jump\t// out\n        /* \"contracts/Voting.sol\":443:467  uint256 public count = 0 */\n    tag_13:\n      sload(0x01)\n      dup2\n      jump\t// out\n        /* \"contracts/Voting.sol\":332:382  mapping(uint256 => Candidate) public candidatesMap */\n    tag_18:\n      mstore(0x20, 0x00)\n      dup1\n      0x00\n      mstore\n      keccak256(0x00, 0x40)\n      0x00\n      swap2\n      pop\n      swap1\n      pop\n      dup1\n      0x00\n      add\n      sload\n      swap1\n      dup1\n      0x01\n      add\n      dup1\n      sload\n      tag_45\n      swap1\n      tag_37\n      jump\t// in\n    tag_45:\n      dup1\n      0x1f\n      add\n      0x20\n      dup1\n      swap2\n      div\n      mul\n      0x20\n      add\n      mload(0x40)\n      swap1\n      dup2\n      add\n      0x40\n      mstore\n      dup1\n      swap3\n      swap2\n      swap1\n      dup2\n      dup2\n      mstore\n      0x20\n      add\n      dup3\n      dup1\n      sload\n      tag_46\n      swap1\n      tag_37\n      jump\t// in\n    tag_46:\n      dup1\n      iszero\n      tag_47\n      jumpi\n      dup1\n      0x1f\n      lt\n      tag_48\n      jumpi\n      0x0100\n      dup1\n      dup4\n      sload\n      div\n      mul\n      dup4\n      mstore\n      swap2\n      0x20\n      add\n      swap2\n      jump(tag_47)\n    tag_48:\n      dup3\n      add\n      swap2\n      swap1\n      0x00\n      mstore\n      keccak256(0x00, 0x20)\n      swap1\n    tag_49:\n      dup2\n      sload\n      dup2\n      mstore\n      swap1\n      0x01\n      add\n      swap1\n      0x20\n      add\n      dup1\n      dup4\n      gt\n      tag_49\n      jumpi\n      dup3\n      swap1\n      sub\n      0x1f\n      and\n      dup3\n      add\n      swap2\n    tag_47:\n      pop\n      pop\n      pop\n      pop\n      pop\n      swap1\n      dup1\n      0x02\n      add\n      sload\n      swap1\n      pop\n      dup4\n      jump\t// out\n        /* \"contracts/Voting.sol\":660:707  mapping(address => string) public votersMapName */\n    tag_24:\n      mstore(0x20, 0x03)\n      dup1\n      0x00\n      mstore\n      keccak256(0x00, 0x40)\n      0x00\n      swap2\n      pop\n      swap1\n      pop\n      dup1\n      sload\n      tag_50\n      swap1\n      tag_37\n      jump\t// in\n    tag_50:\n      dup1\n      0x1f\n      add\n      0x20\n      dup1\n      swap2\n      div\n      mul\n      0x20\n      add\n      mload(0x40)\n      swap1\n      dup2\n      add\n      0x40\n      mstore\n      dup1\n      swap3\n      swap2\n      swap1\n      dup2\n      dup2\n      mstore\n      0x20\n      add\n      dup3\n      dup1\n      sload\n      tag_51\n      swap1\n      tag_37\n      jump\t// in\n    tag_51:\n      dup1\n      iszero\n      tag_52\n      jumpi\n      dup1\n      0x1f\n      lt\n      tag_53\n      jumpi\n      0x0100\n      dup1\n      dup4\n      sload\n      div\n      mul\n      dup4\n      mstore\n      swap2\n      0x20\n      add\n      swap2\n      jump(tag_52)\n    tag_53:\n      dup3\n      add\n      swap2\n      swap1\n      0x00\n      mstore\n      keccak256(0x00, 0x20)\n      swap1\n    tag_54:\n      dup2\n      sload\n      dup2\n      mstore\n      swap1\n      0x01\n      add\n      swap1\n      0x20\n      add\n      dup1\n      dup4\n      gt\n      tag_54\n      jumpi\n      dup3\n      swap1\n      sub\n      0x1f\n      and\n      dup3\n      add\n      swap2\n    tag_52:\n      pop\n      pop\n      pop\n      pop\n      pop\n      dup2\n      jump\t// out\n        /* \"contracts/Voting.sol\":548:589  mapping(address => bool) public votersMap */\n    tag_29:\n      mstore(0x20, 0x02)\n      dup1\n      0x00\n      mstore\n      keccak256(0x00, 0x40)\n      0x00\n      swap2\n      pop\n      sload\n      swap1\n      0x0100\n      exp\n      swap1\n      div\n      0xff\n      and\n      dup2\n      jump\t// out\n        /* \"#utility.yul\":7:146   */\n    tag_56:\n        /* \"#utility.yul\":53:58   */\n      0x00\n        /* \"#utility.yul\":91:97   */\n      dup2\n        /* \"#utility.yul\":78:98   */\n      calldataload\n        /* \"#utility.yul\":69:98   */\n      swap1\n      pop\n        /* \"#utility.yul\":107:140   */\n      tag_58\n        /* \"#utility.yul\":134:139   */\n      dup2\n        /* \"#utility.yul\":107:140   */\n      tag_59\n      jump\t// in\n    tag_58:\n        /* \"#utility.yul\":7:146   */\n      swap3\n      swap2\n      pop\n      pop\n      jump\t// out\n        /* \"#utility.yul\":152:291   */\n    tag_60:\n        /* \"#utility.yul\":198:203   */\n      0x00\n        /* \"#utility.yul\":236:242   */\n      dup2\n        /* \"#utility.yul\":223:243   */\n      calldataload\n        /* \"#utility.yul\":214:243   */\n      swap1\n      pop\n        /* \"#utility.yul\":252:285   */\n      tag_62\n        /* \"#utility.yul\":279:284   */\n      dup2\n        /* \"#utility.yul\":252:285   */\n      tag_63\n      jump\t// in\n    tag_62:\n        /* \"#utility.yul\":152:291   */\n      swap3\n      swap2\n      pop\n      pop\n      jump\t// out\n        /* \"#utility.yul\":297:626   */\n    tag_23:\n        /* \"#utility.yul\":356:362   */\n      0x00\n        /* \"#utility.yul\":405:407   */\n      0x20\n        /* \"#utility.yul\":393:402   */\n      dup3\n        /* \"#utility.yul\":384:391   */\n      dup5\n        /* \"#utility.yul\":380:403   */\n      sub\n        /* \"#utility.yul\":376:408   */\n      slt\n        /* \"#utility.yul\":373:492   */\n      iszero\n      tag_65\n      jumpi\n        /* \"#utility.yul\":411:490   */\n      tag_66\n      tag_67\n      jump\t// in\n    tag_66:\n        /* \"#utility.yul\":373:492   */\n    tag_65:\n        /* \"#utility.yul\":531:532   */\n      0x00\n        /* \"#utility.yul\":556:609   */\n      tag_68\n        /* \"#utility.yul\":601:608   */\n      dup5\n        /* \"#utility.yul\":592:598   */\n      dup3\n        /* \"#utility.yul\":581:590   */\n      dup6\n        /* \"#utility.yul\":577:599   */\n      add\n        /* \"#utility.yul\":556:609   */\n      tag_56\n      jump\t// in\n    tag_68:\n        /* \"#utility.yul\":546:609   */\n      swap2\n      pop\n        /* \"#utility.yul\":502:619   */\n      pop\n        /* \"#utility.yul\":297:626   */\n      swap3\n      swap2\n      pop\n      pop\n      jump\t// out\n        /* \"#utility.yul\":632:961   */\n    tag_10:\n        /* \"#utility.yul\":691:697   */\n      0x00\n        /* \"#utility.yul\":740:742   */\n      0x20\n        /* \"#utility.yul\":728:737   */\n      dup3\n        /* \"#utility.yul\":719:726   */\n      dup5\n        /* \"#utility.yul\":715:738   */\n      sub\n        /* \"#utility.yul\":711:743   */\n      slt\n        /* \"#utility.yul\":708:827   */\n      iszero\n      tag_70\n      jumpi\n        /* \"#utility.yul\":746:825   */\n      tag_71\n      tag_67\n      jump\t// in\n    tag_71:\n        /* \"#utility.yul\":708:827   */\n    tag_70:\n        /* \"#utility.yul\":866:867   */\n      0x00\n        /* \"#utility.yul\":891:944   */\n      tag_72\n        /* \"#utility.yul\":936:943   */\n      dup5\n        /* \"#utility.yul\":927:933   */\n      dup3\n        /* \"#utility.yul\":916:925   */\n      dup6\n        /* \"#utility.yul\":912:934   */\n      add\n        /* \"#utility.yul\":891:944   */\n      tag_60\n      jump\t// in\n    tag_72:\n        /* \"#utility.yul\":881:944   */\n      swap2\n      pop\n        /* \"#utility.yul\":837:954   */\n      pop\n        /* \"#utility.yul\":632:961   */\n      swap3\n      swap2\n      pop\n      pop\n      jump\t// out\n        /* \"#utility.yul\":967:1076   */\n    tag_73:\n        /* \"#utility.yul\":1048:1069   */\n      tag_75\n        /* \"#utility.yul\":1063:1068   */\n      dup2\n        /* \"#utility.yul\":1048:1069   */\n      tag_76\n      jump\t// in\n    tag_75:\n        /* \"#utility.yul\":1043:1046   */\n      dup3\n        /* \"#utility.yul\":1036:1070   */\n      mstore\n        /* \"#utility.yul\":967:1076   */\n      pop\n      pop\n      jump\t// out\n        /* \"#utility.yul\":1082:1446   */\n    tag_77:\n        /* \"#utility.yul\":1170:1173   */\n      0x00\n        /* \"#utility.yul\":1198:1237   */\n      tag_79\n        /* \"#utility.yul\":1231:1236   */\n      dup3\n        /* \"#utility.yul\":1198:1237   */\n      tag_80\n      jump\t// in\n    tag_79:\n        /* \"#utility.yul\":1253:1324   */\n      tag_81\n        /* \"#utility.yul\":1317:1323   */\n      dup2\n        /* \"#utility.yul\":1312:1315   */\n      dup6\n        /* \"#utility.yul\":1253:1324   */\n      tag_82\n      jump\t// in\n    tag_81:\n        /* \"#utility.yul\":1246:1324   */\n      swap4\n      pop\n        /* \"#utility.yul\":1333:1385   */\n      tag_83\n        /* \"#utility.yul\":1378:1384   */\n      dup2\n        /* \"#utility.yul\":1373:1376   */\n      dup6\n        /* \"#utility.yul\":1366:1370   */\n      0x20\n        /* \"#utility.yul\":1359:1364   */\n      dup7\n        /* \"#utility.yul\":1355:1371   */\n      add\n        /* \"#utility.yul\":1333:1385   */\n      tag_84\n      jump\t// in\n    tag_83:\n        /* \"#utility.yul\":1410:1439   */\n      tag_85\n        /* \"#utility.yul\":1432:1438   */\n      dup2\n        /* \"#utility.yul\":1410:1439   */\n      tag_86\n      jump\t// in\n    tag_85:\n        /* \"#utility.yul\":1405:1408   */\n      dup5\n        /* \"#utility.yul\":1401:1440   */\n      add\n        /* \"#utility.yul\":1394:1440   */\n      swap2\n      pop\n        /* \"#utility.yul\":1174:1446   */\n      pop\n        /* \"#utility.yul\":1082:1446   */\n      swap3\n      swap2\n      pop\n      pop\n      jump\t// out\n        /* \"#utility.yul\":1452:1570   */\n    tag_87:\n        /* \"#utility.yul\":1539:1563   */\n      tag_89\n        /* \"#utility.yul\":1557:1562   */\n      dup2\n        /* \"#utility.yul\":1539:1563   */\n      tag_90\n      jump\t// in\n    tag_89:\n        /* \"#utility.yul\":1534:1537   */\n      dup3\n        /* \"#utility.yul\":1527:1564   */\n      mstore\n        /* \"#utility.yul\":1452:1570   */\n      pop\n      pop\n      jump\t// out\n        /* \"#utility.yul\":1576:1786   */\n    tag_31:\n        /* \"#utility.yul\":1663:1667   */\n      0x00\n        /* \"#utility.yul\":1701:1703   */\n      0x20\n        /* \"#utility.yul\":1690:1699   */\n      dup3\n        /* \"#utility.yul\":1686:1704   */\n      add\n        /* \"#utility.yul\":1678:1704   */\n      swap1\n      pop\n        /* \"#utility.yul\":1714:1779   */\n      tag_92\n        /* \"#utility.yul\":1776:1777   */\n      0x00\n        /* \"#utility.yul\":1765:1774   */\n      dup4\n        /* \"#utility.yul\":1761:1778   */\n      add\n        /* \"#utility.yul\":1752:1758   */\n      dup5\n        /* \"#utility.yul\":1714:1779   */\n      tag_73\n      jump\t// in\n    tag_92:\n        /* \"#utility.yul\":1576:1786   */\n      swap3\n      swap2\n      pop\n      pop\n      jump\t// out\n        /* \"#utility.yul\":1792:2105   */\n    tag_26:\n        /* \"#utility.yul\":1905:1909   */\n      0x00\n        /* \"#utility.yul\":1943:1945   */\n      0x20\n        /* \"#utility.yul\":1932:1941   */\n      dup3\n        /* \"#utility.yul\":1928:1946   */\n      add\n        /* \"#utility.yul\":1920:1946   */\n      swap1\n      pop\n        /* \"#utility.yul\":1992:2001   */\n      dup2\n        /* \"#utility.yul\":1986:1990   */\n      dup2\n        /* \"#utility.yul\":1982:2002   */\n      sub\n        /* \"#utility.yul\":1978:1979   */\n      0x00\n        /* \"#utility.yul\":1967:1976   */\n      dup4\n        /* \"#utility.yul\":1963:1980   */\n      add\n        /* \"#utility.yul\":1956:2003   */\n      mstore\n        /* \"#utility.yul\":2020:2098   */\n      tag_94\n        /* \"#utility.yul\":2093:2097   */\n      dup2\n        /* \"#utility.yul\":2084:2090   */\n      dup5\n        /* \"#utility.yul\":2020:2098   */\n      tag_77\n      jump\t// in\n    tag_94:\n        /* \"#utility.yul\":2012:2098   */\n      swap1\n      pop\n        /* \"#utility.yul\":1792:2105   */\n      swap3\n      swap2\n      pop\n      pop\n      jump\t// out\n        /* \"#utility.yul\":2111:2333   */\n    tag_15:\n        /* \"#utility.yul\":2204:2208   */\n      0x00\n        /* \"#utility.yul\":2242:2244   */\n      0x20\n        /* \"#utility.yul\":2231:2240   */\n      dup3\n        /* \"#utility.yul\":2227:2245   */\n      add\n        /* \"#utility.yul\":2219:2245   */\n      swap1\n      pop\n        /* \"#utility.yul\":2255:2326   */\n      tag_96\n        /* \"#utility.yul\":2323:2324   */\n      0x00\n        /* \"#utility.yul\":2312:2321   */\n      dup4\n        /* \"#utility.yul\":2308:2325   */\n      add\n        /* \"#utility.yul\":2299:2305   */\n      dup5\n        /* \"#utility.yul\":2255:2326   */\n      tag_87\n      jump\t// in\n    tag_96:\n        /* \"#utility.yul\":2111:2333   */\n      swap3\n      swap2\n      pop\n      pop\n      jump\t// out\n        /* \"#utility.yul\":2339:2872   */\n    tag_20:\n        /* \"#utility.yul\":2508:2512   */\n      0x00\n        /* \"#utility.yul\":2546:2548   */\n      0x60\n        /* \"#utility.yul\":2535:2544   */\n      dup3\n        /* \"#utility.yul\":2531:2549   */\n      add\n        /* \"#utility.yul\":2523:2549   */\n      swap1\n      pop\n        /* \"#utility.yul\":2559:2630   */\n      tag_98\n        /* \"#utility.yul\":2627:2628   */\n      0x00\n        /* \"#utility.yul\":2616:2625   */\n      dup4\n        /* \"#utility.yul\":2612:2629   */\n      add\n        /* \"#utility.yul\":2603:2609   */\n      dup7\n        /* \"#utility.yul\":2559:2630   */\n      tag_87\n      jump\t// in\n    tag_98:\n        /* \"#utility.yul\":2677:2686   */\n      dup2\n        /* \"#utility.yul\":2671:2675   */\n      dup2\n        /* \"#utility.yul\":2667:2687   */\n      sub\n        /* \"#utility.yul\":2662:2664   */\n      0x20\n        /* \"#utility.yul\":2651:2660   */\n      dup4\n        /* \"#utility.yul\":2647:2665   */\n      add\n        /* \"#utility.yul\":2640:2688   */\n      mstore\n        /* \"#utility.yul\":2705:2783   */\n      tag_99\n        /* \"#utility.yul\":2778:2782   */\n      dup2\n        /* \"#utility.yul\":2769:2775   */\n      dup6\n        /* \"#utility.yul\":2705:2783   */\n      tag_77\n      jump\t// in\n    tag_99:\n        /* \"#utility.yul\":2697:2783   */\n      swap1\n      pop\n        /* \"#utility.yul\":2793:2865   */\n      tag_100\n        /* \"#utility.yul\":2861:2863   */\n      0x40\n        /* \"#utility.yul\":2850:2859   */\n      dup4\n        /* \"#utility.yul\":2846:2864   */\n      add\n        /* \"#utility.yul\":2837:2843   */\n      dup5\n        /* \"#utility.yul\":2793:2865   */\n      tag_87\n      jump\t// in\n    tag_100:\n        /* \"#utility.yul\":2339:2872   */\n      swap5\n      swap4\n      pop\n      pop\n      pop\n      pop\n      jump\t// out\n        /* \"#utility.yul\":2959:3058   */\n    tag_80:\n        /* \"#utility.yul\":3011:3017   */\n      0x00\n        /* \"#utility.yul\":3045:3050   */\n      dup2\n        /* \"#utility.yul\":3039:3051   */\n      mload\n        /* \"#utility.yul\":3029:3051   */\n      swap1\n      pop\n        /* \"#utility.yul\":2959:3058   */\n      swap2\n      swap1\n      pop\n      jump\t// out\n        /* \"#utility.yul\":3064:3233   */\n    tag_82:\n        /* \"#utility.yul\":3148:3159   */\n      0x00\n        /* \"#utility.yul\":3182:3188   */\n      dup3\n        /* \"#utility.yul\":3177:3180   */\n      dup3\n        /* \"#utility.yul\":3170:3189   */\n      mstore\n        /* \"#utility.yul\":3222:3226   */\n      0x20\n        /* \"#utility.yul\":3217:3220   */\n      dup3\n        /* \"#utility.yul\":3213:3227   */\n      add\n        /* \"#utility.yul\":3198:3227   */\n      swap1\n      pop\n        /* \"#utility.yul\":3064:3233   */\n      swap3\n      swap2\n      pop\n      pop\n      jump\t// out\n        /* \"#utility.yul\":3239:3335   */\n    tag_105:\n        /* \"#utility.yul\":3276:3283   */\n      0x00\n        /* \"#utility.yul\":3305:3329   */\n      tag_107\n        /* \"#utility.yul\":3323:3328   */\n      dup3\n        /* \"#utility.yul\":3305:3329   */\n      tag_108\n      jump\t// in\n    tag_107:\n        /* \"#utility.yul\":3294:3329   */\n      swap1\n      pop\n        /* \"#utility.yul\":3239:3335   */\n      swap2\n      swap1\n      pop\n      jump\t// out\n        /* \"#utility.yul\":3341:3431   */\n    tag_76:\n        /* \"#utility.yul\":3375:3382   */\n      0x00\n        /* \"#utility.yul\":3418:3423   */\n      dup2\n        /* \"#utility.yul\":3411:3424   */\n      iszero\n        /* \"#utility.yul\":3404:3425   */\n      iszero\n        /* \"#utility.yul\":3393:3425   */\n      swap1\n      pop\n        /* \"#utility.yul\":3341:3431   */\n      swap2\n      swap1\n      pop\n      jump\t// out\n        /* \"#utility.yul\":3437:3563   */\n    tag_108:\n        /* \"#utility.yul\":3474:3481   */\n      0x00\n        /* \"#utility.yul\":3514:3556   */\n      0xffffffffffffffffffffffffffffffffffffffff\n        /* \"#utility.yul\":3507:3512   */\n      dup3\n        /* \"#utility.yul\":3503:3557   */\n      and\n        /* \"#utility.yul\":3492:3557   */\n      swap1\n      pop\n        /* \"#utility.yul\":3437:3563   */\n      swap2\n      swap1\n      pop\n      jump\t// out\n        /* \"#utility.yul\":3569:3646   */\n    tag_90:\n        /* \"#utility.yul\":3606:3613   */\n      0x00\n        /* \"#utility.yul\":3635:3640   */\n      dup2\n        /* \"#utility.yul\":3624:3640   */\n      swap1\n      pop\n        /* \"#utility.yul\":3569:3646   */\n      swap2\n      swap1\n      pop\n      jump\t// out\n        /* \"#utility.yul\":3652:3959   */\n    tag_84:\n        /* \"#utility.yul\":3720:3721   */\n      0x00\n        /* \"#utility.yul\":3730:3843   */\n    tag_113:\n        /* \"#utility.yul\":3744:3750   */\n      dup4\n        /* \"#utility.yul\":3741:3742   */\n      dup2\n        /* \"#utility.yul\":3738:3751   */\n      lt\n        /* \"#utility.yul\":3730:3843   */\n      iszero\n      tag_115\n      jumpi\n        /* \"#utility.yul\":3829:3830   */\n      dup1\n        /* \"#utility.yul\":3824:3827   */\n      dup3\n        /* \"#utility.yul\":3820:3831   */\n      add\n        /* \"#utility.yul\":3814:3832   */\n      mload\n        /* \"#utility.yul\":3810:3811   */\n      dup2\n        /* \"#utility.yul\":3805:3808   */\n      dup5\n        /* \"#utility.yul\":3801:3812   */\n      add\n        /* \"#utility.yul\":3794:3833   */\n      mstore\n        /* \"#utility.yul\":3766:3768   */\n      0x20\n        /* \"#utility.yul\":3763:3764   */\n      dup2\n        /* \"#utility.yul\":3759:3769   */\n      add\n        /* \"#utility.yul\":3754:3769   */\n      swap1\n      pop\n        /* \"#utility.yul\":3730:3843   */\n      jump(tag_113)\n    tag_115:\n        /* \"#utility.yul\":3861:3867   */\n      dup4\n        /* \"#utility.yul\":3858:3859   */\n      dup2\n        /* \"#utility.yul\":3855:3868   */\n      gt\n        /* \"#utility.yul\":3852:3953   */\n      iszero\n      tag_116\n      jumpi\n        /* \"#utility.yul\":3941:3942   */\n      0x00\n        /* \"#utility.yul\":3932:3938   */\n      dup5\n        /* \"#utility.yul\":3927:3930   */\n      dup5\n        /* \"#utility.yul\":3923:3939   */\n      add\n        /* \"#utility.yul\":3916:3943   */\n      mstore\n        /* \"#utility.yul\":3852:3953   */\n    tag_116:\n        /* \"#utility.yul\":3701:3959   */\n      pop\n        /* \"#utility.yul\":3652:3959   */\n      pop\n      pop\n      pop\n      jump\t// out\n        /* \"#utility.yul\":3965:4285   */\n    tag_37:\n        /* \"#utility.yul\":4009:4015   */\n      0x00\n        /* \"#utility.yul\":4046:4047   */\n      0x02\n        /* \"#utility.yul\":4040:4044   */\n      dup3\n        /* \"#utility.yul\":4036:4048   */\n      div\n        /* \"#utility.yul\":4026:4048   */\n      swap1\n      pop\n        /* \"#utility.yul\":4093:4094   */\n      0x01\n        /* \"#utility.yul\":4087:4091   */\n      dup3\n        /* \"#utility.yul\":4083:4095   */\n      and\n        /* \"#utility.yul\":4114:4132   */\n      dup1\n        /* \"#utility.yul\":4104:4185   */\n      tag_118\n      jumpi\n        /* \"#utility.yul\":4170:4174   */\n      0x7f\n        /* \"#utility.yul\":4162:4168   */\n      dup3\n        /* \"#utility.yul\":4158:4175   */\n      and\n        /* \"#utility.yul\":4148:4175   */\n      swap2\n      pop\n        /* \"#utility.yul\":4104:4185   */\n    tag_118:\n        /* \"#utility.yul\":4232:4234   */\n      0x20\n        /* \"#utility.yul\":4224:4230   */\n      dup3\n        /* \"#utility.yul\":4221:4235   */\n      lt\n        /* \"#utility.yul\":4201:4219   */\n      dup2\n        /* \"#utility.yul\":4198:4236   */\n      eq\n        /* \"#utility.yul\":4195:4279   */\n      iszero\n      tag_119\n      jumpi\n        /* \"#utility.yul\":4251:4269   */\n      tag_120\n      tag_121\n      jump\t// in\n    tag_120:\n        /* \"#utility.yul\":4195:4279   */\n    tag_119:\n        /* \"#utility.yul\":4016:4285   */\n      pop\n        /* \"#utility.yul\":3965:4285   */\n      swap2\n      swap1\n      pop\n      jump\t// out\n        /* \"#utility.yul\":4291:4524   */\n    tag_44:\n        /* \"#utility.yul\":4330:4333   */\n      0x00\n        /* \"#utility.yul\":4353:4377   */\n      tag_123\n        /* \"#utility.yul\":4371:4376   */\n      dup3\n        /* \"#utility.yul\":4353:4377   */\n      tag_90\n      jump\t// in\n    tag_123:\n        /* \"#utility.yul\":4344:4377   */\n      swap2\n      pop\n        /* \"#utility.yul\":4399:4465   */\n      0xffffffffffffffffffffffffffffffffffffffffffffffffffffffffffffffff\n        /* \"#utility.yul\":4392:4397   */\n      dup3\n        /* \"#utility.yul\":4389:4466   */\n      eq\n        /* \"#utility.yul\":4386:4489   */\n      iszero\n      tag_124\n      jumpi\n        /* \"#utility.yul\":4469:4487   */\n      tag_125\n      tag_126\n      jump\t// in\n    tag_125:\n        /* \"#utility.yul\":4386:4489   */\n    tag_124:\n        /* \"#utility.yul\":4516:4517   */\n      0x01\n        /* \"#utility.yul\":4509:4514   */\n      dup3\n        /* \"#utility.yul\":4505:4518   */\n      add\n        /* \"#utility.yul\":4498:4518   */\n      swap1\n      pop\n        /* \"#utility.yul\":4291:4524   */\n      swap2\n      swap1\n      pop\n      jump\t// out\n        /* \"#utility.yul\":4530:4710   */\n    tag_35:\n        /* \"#utility.yul\":4578:4655   */\n      0x4e487b7100000000000000000000000000000000000000000000000000000000\n        /* \"#utility.yul\":4575:4576   */\n      0x00\n        /* \"#utility.yul\":4568:4656   */\n      mstore\n        /* \"#utility.yul\":4675:4679   */\n      0x01\n        /* \"#utility.yul\":4672:4673   */\n      0x04\n        /* \"#utility.yul\":4665:4680   */\n      mstore\n        /* \"#utility.yul\":4699:4703   */\n      0x24\n        /* \"#utility.yul\":4696:4697   */\n      0x00\n        /* \"#utility.yul\":4689:4704   */\n      revert\n        /* \"#utility.yul\":4716:4896   */\n    tag_126:\n        /* \"#utility.yul\":4764:4841   */\n      0x4e487b7100000000000000000000000000000000000000000000000000000000\n        /* \"#utility.yul\":4761:4762   */\n      0x00\n        /* \"#utility.yul\":4754:4842   */\n      mstore\n        /* \"#utility.yul\":4861:4865   */\n      0x11\n        /* \"#utility.yul\":4858:4859   */\n      0x04\n        /* \"#utility.yul\":4851:4866   */\n      mstore\n        /* \"#utility.yul\":4885:4889   */\n      0x24\n        /* \"#utility.yul\":4882:4883   */\n      0x00\n        /* \"#utility.yul\":4875:4890   */\n      revert\n        /* \"#utility.yul\":4902:5082   */\n    tag_121:\n        /* \"#utility.yul\":4950:5027   */\n      0x4e487b7100000000000000000000000000000000000000000000000000000000\n        /* \"#utility.yul\":4947:4948   */\n      0x00\n        /* \"#utility.yul\":4940:5028   */\n      mstore\n        /* \"#utility.yul\":5047:5051   */\n      0x22\n        /* \"#utility.yul\":5044:5045   */\n      0x04\n        /* \"#utility.yul\":5037:5052   */\n      mstore\n        /* \"#utility.yul\":5071:5075   */\n      0x24\n        /* \"#utility.yul\":5068:5069   */\n      0x00\n        /* \"#utility.yul\":5061:5076   */\n      revert\n        /* \"#utility.yul\":5211:5328   */\n    tag_67:\n        /* \"#utility.yul\":5320:5321   */\n      0x00\n        /* \"#utility.yul\":5317:5318   */\n      dup1\n        /* \"#utility.yul\":5310:5322   */\n      revert\n        /* \"#utility.yul\":5334:5436   */\n    tag_86:\n        /* \"#utility.yul\":5375:5381   */\n      0x00\n        /* \"#utility.yul\":5426:5428   */\n      0x1f\n        /* \"#utility.yul\":5422:5429   */\n      not\n        /* \"#utility.yul\":5417:5419   */\n      0x1f\n        /* \"#utility.yul\":5410:5415   */\n      dup4\n        /* \"#utility.yul\":5406:5420   */\n      add\n        /* \"#utility.yul\":5402:5430   */\n      and\n        /* \"#utility.yul\":5392:5430   */\n      swap1\n      pop\n        /* \"#utility.yul\":5334:5436   */\n      swap2\n      swap1\n      pop\n      jump\t// out\n        /* \"#utility.yul\":5442:5564   */\n    tag_59:\n        /* \"#utility.yul\":5515:5539   */\n      tag_135\n        /* \"#utility.yul\":5533:5538   */\n      dup2\n        /* \"#utility.yul\":5515:5539   */\n      tag_105\n      jump\t// in\n    tag_135:\n        /* \"#utility.yul\":5508:5513   */\n      dup2\n        /* \"#utility.yul\":5505:5540   */\n      eq\n        /* \"#utility.yul\":5495:5558   */\n      tag_136\n      jumpi\n        /* \"#utility.yul\":5554:5555   */\n      0x00\n        /* \"#utility.yul\":5551:5552   */\n      dup1\n        /* \"#utility.yul\":5544:5556   */\n      revert\n        /* \"#utility.yul\":5495:5558   */\n    tag_136:\n        /* \"#utility.yul\":5442:5564   */\n      pop\n      jump\t// out\n        /* \"#utility.yul\":5570:5692   */\n    tag_63:\n        /* \"#utility.yul\":5643:5667   */\n      tag_138\n        /* \"#utility.yul\":5661:5666   */\n      dup2\n        /* \"#utility.yul\":5643:5667   */\n      tag_90\n      jump\t// in\n    tag_138:\n        /* \"#utility.yul\":5636:5641   */\n      dup2\n        /* \"#utility.yul\":5633:5668   */\n      eq\n        /* \"#utility.yul\":5623:5686   */\n      tag_139\n      jumpi\n        /* \"#utility.yul\":5682:5683   */\n      0x00\n        /* \"#utility.yul\":5679:5680   */\n      dup1\n        /* \"#utility.yul\":5672:5684   */\n      revert\n        /* \"#utility.yul\":5623:5686   */\n    tag_139:\n        /* \"#utility.yul\":5570:5692   */\n      pop\n      jump\t// out\n\n    auxdata: 0xa26469706673582212200801b62adefa9540c210a3fa2ff38c87d7ad1007de30c557edc57ae2eeac81e664736f6c63430008070033\n}\n",
				"bytecode": {
					"linkReferences": {},
					"object": "608060405260006001553480156200001657600080fd5b506200005d6040518060400160405280600f81526020017f4d75726174204d757261746f676c7500000000000000000000000000000000008152506200013560201b60201c565b620000a36040518060400160405280600981526020017f4970656b204b6f7a6100000000000000000000000000000000000000000000008152506200013560201b60201c565b620000e96040518060400160405280600e81526020017f456b696e2059696c64697a68616e0000000000000000000000000000000000008152506200013560201b60201c565b6200012f6040518060400160405280600a81526020017f48696c616c2053617269000000000000000000000000000000000000000000008152506200013560201b60201c565b62000356565b600160008154809291906200014a90620002aa565b91905055506040518060600160405280600154815260200182815260200160008152506000806001548152602001908152602001600020600082015181600001556020820151816001019080519060200190620001a9929190620001ba565b506040820151816002015590505050565b828054620001c89062000274565b90600052602060002090601f016020900481019282620001ec576000855562000238565b82601f106200020757805160ff191683800117855562000238565b8280016001018555821562000238579182015b82811115620002375782518255916020019190600101906200021a565b5b5090506200024791906200024b565b5090565b5b80821115620002665760008160009055506001016200024c565b5090565b6000819050919050565b600060028204905060018216806200028d57607f821691505b60208210811415620002a457620002a362000327565b5b50919050565b6000620002b7826200026a565b91507fffffffffffffffffffffffffffffffffffffffffffffffffffffffffffffffff821415620002ed57620002ec620002f8565b5b600182019050919050565b7f4e487b7100000000000000000000000000000000000000000000000000000000600052601160045260246000fd5b7f4e487b7100000000000000000000000000000000000000000000000000000000600052602260045260246000fd5b6107c080620003666000396000f3fe608060405234801561001057600080fd5b50600436106100575760003560e01c80630121b93f1461005c57806306661abd14610078578063101ed4e114610096578063a8d0f03a146100c8578063ae66d4f4146100f8575b600080fd5b6100766004803603810190610071919061048d565b610128565b005b6100806102be565b60405161008d919061054e565b60405180910390f35b6100b060048036038101906100ab919061048d565b6102c4565b6040516100bf93929190610569565b60405180910390f35b6100e260048036038101906100dd9190610460565b610376565b6040516100ef919061052c565b60405180910390f35b610112600480360381019061010d9190610460565b610416565b60405161011f9190610511565b60405180910390f35b60001515600260003373ffffffffffffffffffffffffffffffffffffffff1673ffffffffffffffffffffffffffffffffffffffff16815260200190815260200160002060009054906101000a900460ff16151514610189576101886106b9565b5b600015156000600360003373ffffffffffffffffffffffffffffffffffffffff1673ffffffffffffffffffffffffffffffffffffffff16815260200190815260200160002080546101d99061063e565b9050111515146101ec576101eb6106b9565b5b6000811180156101fe57506001548111155b61020b5761020a6106b9565b5b6001600260003373ffffffffffffffffffffffffffffffffffffffff1673ffffffffffffffffffffffffffffffffffffffff16815260200190815260200160002060006101000a81548160ff021916908315150217905550600080828152602001908152602001600020600201600081548092919061028990610670565b9190505550807f3474d7a80d734f2c159cbc95fd43cc116f75c5cc5b1b755e0fd91a0dbfc3c8c160405160405180910390a250565b60015481565b60006020528060005260406000206000915090508060000154908060010180546102ed9061063e565b80601f01602080910402602001604051908101604052809291908181526020018280546103199061063e565b80156103665780601f1061033b57610100808354040283529160200191610366565b820191906000526020600020905b81548152906001019060200180831161034957829003601f168201915b5050505050908060020154905083565b600360205280600052604060002060009150905080546103959061063e565b80601f01602080910402602001604051908101604052809291908181526020018280546103c19061063e565b801561040e5780601f106103e35761010080835404028352916020019161040e565b820191906000526020600020905b8154815290600101906020018083116103f157829003601f168201915b505050505081565b60026020528060005260406000206000915054906101000a900460ff1681565b6000813590506104458161075c565b92915050565b60008135905061045a81610773565b92915050565b60006020828403121561047657610475610746565b5b600061048484828501610436565b91505092915050565b6000602082840312156104a3576104a2610746565b5b60006104b18482850161044b565b91505092915050565b6104c3816105d5565b82525050565b60006104d4826105a7565b6104de81856105b2565b93506104ee81856020860161060b565b6104f78161074b565b840191505092915050565b61050b81610601565b82525050565b600060208201905061052660008301846104ba565b92915050565b6000602082019050818103600083015261054681846104c9565b905092915050565b60006020820190506105636000830184610502565b92915050565b600060608201905061057e6000830186610502565b818103602083015261059081856104c9565b905061059f6040830184610502565b949350505050565b600081519050919050565b600082825260208201905092915050565b60006105ce826105e1565b9050919050565b60008115159050919050565b600073ffffffffffffffffffffffffffffffffffffffff82169050919050565b6000819050919050565b60005b8381101561062957808201518184015260208101905061060e565b83811115610638576000848401525b50505050565b6000600282049050600182168061065657607f821691505b6020821081141561066a57610669610717565b5b50919050565b600061067b82610601565b91507fffffffffffffffffffffffffffffffffffffffffffffffffffffffffffffffff8214156106ae576106ad6106e8565b5b600182019050919050565b7f4e487b7100000000000000000000000000000000000000000000000000000000600052600160045260246000fd5b7f4e487b7100000000000000000000000000000000000000000000000000000000600052601160045260246000fd5b7f4e487b7100000000000000000000000000000000000000000000000000000000600052602260045260246000fd5b600080fd5b6000601f19601f8301169050919050565b610765816105c3565b811461077057600080fd5b50565b61077c81610601565b811461078757600080fd5b5056fea26469706673582212200801b62adefa9540c210a3fa2ff38c87d7ad1007de30c557edc57ae2eeac81e664736f6c63430008070033",
					"opcodes": "PUSH1 0x80 PUSH1 0x40 MSTORE PUSH1 0x0 PUSH1 0x1 SSTORE CALLVALUE DUP1 ISZERO PUSH3 0x16 JUMPI PUSH1 0x0 DUP1 REVERT JUMPDEST POP PUSH3 0x5D PUSH1 0x40 MLOAD DUP1 PUSH1 0x40 ADD PUSH1 0x40 MSTORE DUP1 PUSH1 0xF DUP2 MSTORE PUSH1 0x20 ADD PUSH32 0x4D75726174204D757261746F676C750000000000000000000000000000000000 DUP2 MSTORE POP PUSH3 0x135 PUSH1 0x20 SHL PUSH1 0x20 SHR JUMP JUMPDEST PUSH3 0xA3 PUSH1 0x40 MLOAD DUP1 PUSH1 0x40 ADD PUSH1 0x40 MSTORE DUP1 PUSH1 0x9 DUP2 MSTORE PUSH1 0x20 ADD PUSH32 0x4970656B204B6F7A610000000000000000000000000000000000000000000000 DUP2 MSTORE POP PUSH3 0x135 PUSH1 0x20 SHL PUSH1 0x20 SHR JUMP JUMPDEST PUSH3 0xE9 PUSH1 0x40 MLOAD DUP1 PUSH1 0x40 ADD PUSH1 0x40 MSTORE DUP1 PUSH1 0xE DUP2 MSTORE PUSH1 0x20 ADD PUSH32 0x456B696E2059696C64697A68616E000000000000000000000000000000000000 DUP2 MSTORE POP PUSH3 0x135 PUSH1 0x20 SHL PUSH1 0x20 SHR JUMP JUMPDEST PUSH3 0x12F PUSH1 0x40 MLOAD DUP1 PUSH1 0x40 ADD PUSH1 0x40 MSTORE DUP1 PUSH1 0xA DUP2 MSTORE PUSH1 0x20 ADD PUSH32 0x48696C616C205361726900000000000000000000000000000000000000000000 DUP2 MSTORE POP PUSH3 0x135 PUSH1 0x20 SHL PUSH1 0x20 SHR JUMP JUMPDEST PUSH3 0x356 JUMP JUMPDEST PUSH1 0x1 PUSH1 0x0 DUP2 SLOAD DUP1 SWAP3 SWAP2 SWAP1 PUSH3 0x14A SWAP1 PUSH3 0x2AA JUMP JUMPDEST SWAP2 SWAP1 POP SSTORE POP PUSH1 0x40 MLOAD DUP1 PUSH1 0x60 ADD PUSH1 0x40 MSTORE DUP1 PUSH1 0x1 SLOAD DUP2 MSTORE PUSH1 0x20 ADD DUP3 DUP2 MSTORE PUSH1 0x20 ADD PUSH1 0x0 DUP2 MSTORE POP PUSH1 0x0 DUP1 PUSH1 0x1 SLOAD DUP2 MSTORE PUSH1 0x20 ADD SWAP1 DUP2 MSTORE PUSH1 0x20 ADD PUSH1 0x0 KECCAK256 PUSH1 0x0 DUP3 ADD MLOAD DUP2 PUSH1 0x0 ADD SSTORE PUSH1 0x20 DUP3 ADD MLOAD DUP2 PUSH1 0x1 ADD SWAP1 DUP1 MLOAD SWAP1 PUSH1 0x20 ADD SWAP1 PUSH3 0x1A9 SWAP3 SWAP2 SWAP1 PUSH3 0x1BA JUMP JUMPDEST POP PUSH1 0x40 DUP3 ADD MLOAD DUP2 PUSH1 0x2 ADD SSTORE SWAP1 POP POP POP JUMP JUMPDEST DUP3 DUP1 SLOAD PUSH3 0x1C8 SWAP1 PUSH3 0x274 JUMP JUMPDEST SWAP1 PUSH1 0x0 MSTORE PUSH1 0x20 PUSH1 0x0 KECCAK256 SWAP1 PUSH1 0x1F ADD PUSH1 0x20 SWAP1 DIV DUP2 ADD SWAP3 DUP3 PUSH3 0x1EC JUMPI PUSH1 0x0 DUP6 SSTORE PUSH3 0x238 JUMP JUMPDEST DUP3 PUSH1 0x1F LT PUSH3 0x207 JUMPI DUP1 MLOAD PUSH1 0xFF NOT AND DUP4 DUP1 ADD OR DUP6 SSTORE PUSH3 0x238 JUMP JUMPDEST DUP3 DUP1 ADD PUSH1 0x1 ADD DUP6 SSTORE DUP3 ISZERO PUSH3 0x238 JUMPI SWAP2 DUP3 ADD JUMPDEST DUP3 DUP2 GT ISZERO PUSH3 0x237 JUMPI DUP3 MLOAD DUP3 SSTORE SWAP2 PUSH1 0x20 ADD SWAP2 SWAP1 PUSH1 0x1 ADD SWAP1 PUSH3 0x21A JUMP JUMPDEST JUMPDEST POP SWAP1 POP PUSH3 0x247 SWAP2 SWAP1 PUSH3 0x24B JUMP JUMPDEST POP SWAP1 JUMP JUMPDEST JUMPDEST DUP1 DUP3 GT ISZERO PUSH3 0x266 JUMPI PUSH1 0x0 DUP2 PUSH1 0x0 SWAP1 SSTORE POP PUSH1 0x1 ADD PUSH3 0x24C JUMP JUMPDEST POP SWAP1 JUMP JUMPDEST PUSH1 0x0 DUP2 SWAP1 POP SWAP2 SWAP1 POP JUMP JUMPDEST PUSH1 0x0 PUSH1 0x2 DUP3 DIV SWAP1 POP PUSH1 0x1 DUP3 AND DUP1 PUSH3 0x28D JUMPI PUSH1 0x7F DUP3 AND SWAP2 POP JUMPDEST PUSH1 0x20 DUP3 LT DUP2 EQ ISZERO PUSH3 0x2A4 JUMPI PUSH3 0x2A3 PUSH3 0x327 JUMP JUMPDEST JUMPDEST POP SWAP2 SWAP1 POP JUMP JUMPDEST PUSH1 0x0 PUSH3 0x2B7 DUP3 PUSH3 0x26A JUMP JUMPDEST SWAP2 POP PUSH32 0xFFFFFFFFFFFFFFFFFFFFFFFFFFFFFFFFFFFFFFFFFFFFFFFFFFFFFFFFFFFFFFFF DUP3 EQ ISZERO PUSH3 0x2ED JUMPI PUSH3 0x2EC PUSH3 0x2F8 JUMP JUMPDEST JUMPDEST PUSH1 0x1 DUP3 ADD SWAP1 POP SWAP2 SWAP1 POP JUMP JUMPDEST PUSH32 0x4E487B7100000000000000000000000000000000000000000000000000000000 PUSH1 0x0 MSTORE PUSH1 0x11 PUSH1 0x4 MSTORE PUSH1 0x24 PUSH1 0x0 REVERT JUMPDEST PUSH32 0x4E487B7100000000000000000000000000000000000000000000000000000000 PUSH1 0x0 MSTORE PUSH1 0x22 PUSH1 0x4 MSTORE PUSH1 0x24 PUSH1 0x0 REVERT JUMPDEST PUSH2 0x7C0 DUP1 PUSH3 0x366 PUSH1 0x0 CODECOPY PUSH1 0x0 RETURN INVALID PUSH1 0x80 PUSH1 0x40 MSTORE CALLVALUE DUP1 ISZERO PUSH2 0x10 JUMPI PUSH1 0x0 DUP1 REVERT JUMPDEST POP PUSH1 0x4 CALLDATASIZE LT PUSH2 0x57 JUMPI PUSH1 0x0 CALLDATALOAD PUSH1 0xE0 SHR DUP1 PUSH4 0x121B93F EQ PUSH2 0x5C JUMPI DUP1 PUSH4 0x6661ABD EQ PUSH2 0x78 JUMPI DUP1 PUSH4 0x101ED4E1 EQ PUSH2 0x96 JUMPI DUP1 PUSH4 0xA8D0F03A EQ PUSH2 0xC8 JUMPI DUP1 PUSH4 0xAE66D4F4 EQ PUSH2 0xF8 JUMPI JUMPDEST PUSH1 0x0 DUP1 REVERT JUMPDEST PUSH2 0x76 PUSH1 0x4 DUP1 CALLDATASIZE SUB DUP2 ADD SWAP1 PUSH2 0x71 SWAP2 SWAP1 PUSH2 0x48D JUMP JUMPDEST PUSH2 0x128 JUMP JUMPDEST STOP JUMPDEST PUSH2 0x80 PUSH2 0x2BE JUMP JUMPDEST PUSH1 0x40 MLOAD PUSH2 0x8D SWAP2 SWAP1 PUSH2 0x54E JUMP JUMPDEST PUSH1 0x40 MLOAD DUP1 SWAP2 SUB SWAP1 RETURN JUMPDEST PUSH2 0xB0 PUSH1 0x4 DUP1 CALLDATASIZE SUB DUP2 ADD SWAP1 PUSH2 0xAB SWAP2 SWAP1 PUSH2 0x48D JUMP JUMPDEST PUSH2 0x2C4 JUMP JUMPDEST PUSH1 0x40 MLOAD PUSH2 0xBF SWAP4 SWAP3 SWAP2 SWAP1 PUSH2 0x569 JUMP JUMPDEST PUSH1 0x40 MLOAD DUP1 SWAP2 SUB SWAP1 RETURN JUMPDEST PUSH2 0xE2 PUSH1 0x4 DUP1 CALLDATASIZE SUB DUP2 ADD SWAP1 PUSH2 0xDD SWAP2 SWAP1 PUSH2 0x460 JUMP JUMPDEST PUSH2 0x376 JUMP JUMPDEST PUSH1 0x40 MLOAD PUSH2 0xEF SWAP2 SWAP1 PUSH2 0x52C JUMP JUMPDEST PUSH1 0x40 MLOAD DUP1 SWAP2 SUB SWAP1 RETURN JUMPDEST PUSH2 0x112 PUSH1 0x4 DUP1 CALLDATASIZE SUB DUP2 ADD SWAP1 PUSH2 0x10D SWAP2 SWAP1 PUSH2 0x460 JUMP JUMPDEST PUSH2 0x416 JUMP JUMPDEST PUSH1 0x40 MLOAD PUSH2 0x11F SWAP2 SWAP1 PUSH2 0x511 JUMP JUMPDEST PUSH1 0x40 MLOAD DUP1 SWAP2 SUB SWAP1 RETURN JUMPDEST PUSH1 0x0 ISZERO ISZERO PUSH1 0x2 PUSH1 0x0 CALLER PUSH20 0xFFFFFFFFFFFFFFFFFFFFFFFFFFFFFFFFFFFFFFFF AND PUSH20 0xFFFFFFFFFFFFFFFFFFFFFFFFFFFFFFFFFFFFFFFF AND DUP2 MSTORE PUSH1 0x20 ADD SWAP1 DUP2 MSTORE PUSH1 0x20 ADD PUSH1 0x0 KECCAK256 PUSH1 0x0 SWAP1 SLOAD SWAP1 PUSH2 0x100 EXP SWAP1 DIV PUSH1 0xFF AND ISZERO ISZERO EQ PUSH2 0x189 JUMPI PUSH2 0x188 PUSH2 0x6B9 JUMP JUMPDEST JUMPDEST PUSH1 0x0 ISZERO ISZERO PUSH1 0x0 PUSH1 0x3 PUSH1 0x0 CALLER PUSH20 0xFFFFFFFFFFFFFFFFFFFFFFFFFFFFFFFFFFFFFFFF AND PUSH20 0xFFFFFFFFFFFFFFFFFFFFFFFFFFFFFFFFFFFFFFFF AND DUP2 MSTORE PUSH1 0x20 ADD SWAP1 DUP2 MSTORE PUSH1 0x20 ADD PUSH1 0x0 KECCAK256 DUP1 SLOAD PUSH2 0x1D9 SWAP1 PUSH2 0x63E JUMP JUMPDEST SWAP1 POP GT ISZERO ISZERO EQ PUSH2 0x1EC JUMPI PUSH2 0x1EB PUSH2 0x6B9 JUMP JUMPDEST JUMPDEST PUSH1 0x0 DUP2 GT DUP1 ISZERO PUSH2 0x1FE JUMPI POP PUSH1 0x1 SLOAD DUP2 GT ISZERO JUMPDEST PUSH2 0x20B JUMPI PUSH2 0x20A PUSH2 0x6B9 JUMP JUMPDEST JUMPDEST PUSH1 0x1 PUSH1 0x2 PUSH1 0x0 CALLER PUSH20 0xFFFFFFFFFFFFFFFFFFFFFFFFFFFFFFFFFFFFFFFF AND PUSH20 0xFFFFFFFFFFFFFFFFFFFFFFFFFFFFFFFFFFFFFFFF AND DUP2 MSTORE PUSH1 0x20 ADD SWAP1 DUP2 MSTORE PUSH1 0x20 ADD PUSH1 0x0 KECCAK256 PUSH1 0x0 PUSH2 0x100 EXP DUP2 SLOAD DUP2 PUSH1 0xFF MUL NOT AND SWAP1 DUP4 ISZERO ISZERO MUL OR SWAP1 SSTORE POP PUSH1 0x0 DUP1 DUP3 DUP2 MSTORE PUSH1 0x20 ADD SWAP1 DUP2 MSTORE PUSH1 0x20 ADD PUSH1 0x0 KECCAK256 PUSH1 0x2 ADD PUSH1 0x0 DUP2 SLOAD DUP1 SWAP3 SWAP2 SWAP1 PUSH2 0x289 SWAP1 PUSH2 0x670 JUMP JUMPDEST SWAP2 SWAP1 POP SSTORE POP DUP1 PUSH32 0x3474D7A80D734F2C159CBC95FD43CC116F75C5CC5B1B755E0FD91A0DBFC3C8C1 PUSH1 0x40 MLOAD PUSH1 0x40 MLOAD DUP1 SWAP2 SUB SWAP1 LOG2 POP JUMP JUMPDEST PUSH1 0x1 SLOAD DUP2 JUMP JUMPDEST PUSH1 0x0 PUSH1 0x20 MSTORE DUP1 PUSH1 0x0 MSTORE PUSH1 0x40 PUSH1 0x0 KECCAK256 PUSH1 0x0 SWAP2 POP SWAP1 POP DUP1 PUSH1 0x0 ADD SLOAD SWAP1 DUP1 PUSH1 0x1 ADD DUP1 SLOAD PUSH2 0x2ED SWAP1 PUSH2 0x63E JUMP JUMPDEST DUP1 PUSH1 0x1F ADD PUSH1 0x20 DUP1 SWAP2 DIV MUL PUSH1 0x20 ADD PUSH1 0x40 MLOAD SWAP1 DUP2 ADD PUSH1 0x40 MSTORE DUP1 SWAP3 SWAP2 SWAP1 DUP2 DUP2 MSTORE PUSH1 0x20 ADD DUP3 DUP1 SLOAD PUSH2 0x319 SWAP1 PUSH2 0x63E JUMP JUMPDEST DUP1 ISZERO PUSH2 0x366 JUMPI DUP1 PUSH1 0x1F LT PUSH2 0x33B JUMPI PUSH2 0x100 DUP1 DUP4 SLOAD DIV MUL DUP4 MSTORE SWAP2 PUSH1 0x20 ADD SWAP2 PUSH2 0x366 JUMP JUMPDEST DUP3 ADD SWAP2 SWAP1 PUSH1 0x0 MSTORE PUSH1 0x20 PUSH1 0x0 KECCAK256 SWAP1 JUMPDEST DUP2 SLOAD DUP2 MSTORE SWAP1 PUSH1 0x1 ADD SWAP1 PUSH1 0x20 ADD DUP1 DUP4 GT PUSH2 0x349 JUMPI DUP3 SWAP1 SUB PUSH1 0x1F AND DUP3 ADD SWAP2 JUMPDEST POP POP POP POP POP SWAP1 DUP1 PUSH1 0x2 ADD SLOAD SWAP1 POP DUP4 JUMP JUMPDEST PUSH1 0x3 PUSH1 0x20 MSTORE DUP1 PUSH1 0x0 MSTORE PUSH1 0x40 PUSH1 0x0 KECCAK256 PUSH1 0x0 SWAP2 POP SWAP1 POP DUP1 SLOAD PUSH2 0x395 SWAP1 PUSH2 0x63E JUMP JUMPDEST DUP1 PUSH1 0x1F ADD PUSH1 0x20 DUP1 SWAP2 DIV MUL PUSH1 0x20 ADD PUSH1 0x40 MLOAD SWAP1 DUP2 ADD PUSH1 0x40 MSTORE DUP1 SWAP3 SWAP2 SWAP1 DUP2 DUP2 MSTORE PUSH1 0x20 ADD DUP3 DUP1 SLOAD PUSH2 0x3C1 SWAP1 PUSH2 0x63E JUMP JUMPDEST DUP1 ISZERO PUSH2 0x40E JUMPI DUP1 PUSH1 0x1F LT PUSH2 0x3E3 JUMPI PUSH2 0x100 DUP1 DUP4 SLOAD DIV MUL DUP4 MSTORE SWAP2 PUSH1 0x20 ADD SWAP2 PUSH2 0x40E JUMP JUMPDEST DUP3 ADD SWAP2 SWAP1 PUSH1 0x0 MSTORE PUSH1 0x20 PUSH1 0x0 KECCAK256 SWAP1 JUMPDEST DUP2 SLOAD DUP2 MSTORE SWAP1 PUSH1 0x1 ADD SWAP1 PUSH1 0x20 ADD DUP1 DUP4 GT PUSH2 0x3F1 JUMPI DUP3 SWAP1 SUB PUSH1 0x1F AND DUP3 ADD SWAP2 JUMPDEST POP POP POP POP POP DUP2 JUMP JUMPDEST PUSH1 0x2 PUSH1 0x20 MSTORE DUP1 PUSH1 0x0 MSTORE PUSH1 0x40 PUSH1 0x0 KECCAK256 PUSH1 0x0 SWAP2 POP SLOAD SWAP1 PUSH2 0x100 EXP SWAP1 DIV PUSH1 0xFF AND DUP2 JUMP JUMPDEST PUSH1 0x0 DUP2 CALLDATALOAD SWAP1 POP PUSH2 0x445 DUP2 PUSH2 0x75C JUMP JUMPDEST SWAP3 SWAP2 POP POP JUMP JUMPDEST PUSH1 0x0 DUP2 CALLDATALOAD SWAP1 POP PUSH2 0x45A DUP2 PUSH2 0x773 JUMP JUMPDEST SWAP3 SWAP2 POP POP JUMP JUMPDEST PUSH1 0x0 PUSH1 0x20 DUP3 DUP5 SUB SLT ISZERO PUSH2 0x476 JUMPI PUSH2 0x475 PUSH2 0x746 JUMP JUMPDEST JUMPDEST PUSH1 0x0 PUSH2 0x484 DUP5 DUP3 DUP6 ADD PUSH2 0x436 JUMP JUMPDEST SWAP2 POP POP SWAP3 SWAP2 POP POP JUMP JUMPDEST PUSH1 0x0 PUSH1 0x20 DUP3 DUP5 SUB SLT ISZERO PUSH2 0x4A3 JUMPI PUSH2 0x4A2 PUSH2 0x746 JUMP JUMPDEST JUMPDEST PUSH1 0x0 PUSH2 0x4B1 DUP5 DUP3 DUP6 ADD PUSH2 0x44B JUMP JUMPDEST SWAP2 POP POP SWAP3 SWAP2 POP POP JUMP JUMPDEST PUSH2 0x4C3 DUP2 PUSH2 0x5D5 JUMP JUMPDEST DUP3 MSTORE POP POP JUMP JUMPDEST PUSH1 0x0 PUSH2 0x4D4 DUP3 PUSH2 0x5A7 JUMP JUMPDEST PUSH2 0x4DE DUP2 DUP6 PUSH2 0x5B2 JUMP JUMPDEST SWAP4 POP PUSH2 0x4EE DUP2 DUP6 PUSH1 0x20 DUP7 ADD PUSH2 0x60B JUMP JUMPDEST PUSH2 0x4F7 DUP2 PUSH2 0x74B JUMP JUMPDEST DUP5 ADD SWAP2 POP POP SWAP3 SWAP2 POP POP JUMP JUMPDEST PUSH2 0x50B DUP2 PUSH2 0x601 JUMP JUMPDEST DUP3 MSTORE POP POP JUMP JUMPDEST PUSH1 0x0 PUSH1 0x20 DUP3 ADD SWAP1 POP PUSH2 0x526 PUSH1 0x0 DUP4 ADD DUP5 PUSH2 0x4BA JUMP JUMPDEST SWAP3 SWAP2 POP POP JUMP JUMPDEST PUSH1 0x0 PUSH1 0x20 DUP3 ADD SWAP1 POP DUP2 DUP2 SUB PUSH1 0x0 DUP4 ADD MSTORE PUSH2 0x546 DUP2 DUP5 PUSH2 0x4C9 JUMP JUMPDEST SWAP1 POP SWAP3 SWAP2 POP POP JUMP JUMPDEST PUSH1 0x0 PUSH1 0x20 DUP3 ADD SWAP1 POP PUSH2 0x563 PUSH1 0x0 DUP4 ADD DUP5 PUSH2 0x502 JUMP JUMPDEST SWAP3 SWAP2 POP POP JUMP JUMPDEST PUSH1 0x0 PUSH1 0x60 DUP3 ADD SWAP1 POP PUSH2 0x57E PUSH1 0x0 DUP4 ADD DUP7 PUSH2 0x502 JUMP JUMPDEST DUP2 DUP2 SUB PUSH1 0x20 DUP4 ADD MSTORE PUSH2 0x590 DUP2 DUP6 PUSH2 0x4C9 JUMP JUMPDEST SWAP1 POP PUSH2 0x59F PUSH1 0x40 DUP4 ADD DUP5 PUSH2 0x502 JUMP JUMPDEST SWAP5 SWAP4 POP POP POP POP JUMP JUMPDEST PUSH1 0x0 DUP2 MLOAD SWAP1 POP SWAP2 SWAP1 POP JUMP JUMPDEST PUSH1 0x0 DUP3 DUP3 MSTORE PUSH1 0x20 DUP3 ADD SWAP1 POP SWAP3 SWAP2 POP POP JUMP JUMPDEST PUSH1 0x0 PUSH2 0x5CE DUP3 PUSH2 0x5E1 JUMP JUMPDEST SWAP1 POP SWAP2 SWAP1 POP JUMP JUMPDEST PUSH1 0x0 DUP2 ISZERO ISZERO SWAP1 POP SWAP2 SWAP1 POP JUMP JUMPDEST PUSH1 0x0 PUSH20 0xFFFFFFFFFFFFFFFFFFFFFFFFFFFFFFFFFFFFFFFF DUP3 AND SWAP1 POP SWAP2 SWAP1 POP JUMP JUMPDEST PUSH1 0x0 DUP2 SWAP1 POP SWAP2 SWAP1 POP JUMP JUMPDEST PUSH1 0x0 JUMPDEST DUP4 DUP2 LT ISZERO PUSH2 0x629 JUMPI DUP1 DUP3 ADD MLOAD DUP2 DUP5 ADD MSTORE PUSH1 0x20 DUP2 ADD SWAP1 POP PUSH2 0x60E JUMP JUMPDEST DUP4 DUP2 GT ISZERO PUSH2 0x638 JUMPI PUSH1 0x0 DUP5 DUP5 ADD MSTORE JUMPDEST POP POP POP POP JUMP JUMPDEST PUSH1 0x0 PUSH1 0x2 DUP3 DIV SWAP1 POP PUSH1 0x1 DUP3 AND DUP1 PUSH2 0x656 JUMPI PUSH1 0x7F DUP3 AND SWAP2 POP JUMPDEST PUSH1 0x20 DUP3 LT DUP2 EQ ISZERO PUSH2 0x66A JUMPI PUSH2 0x669 PUSH2 0x717 JUMP JUMPDEST JUMPDEST POP SWAP2 SWAP1 POP JUMP JUMPDEST PUSH1 0x0 PUSH2 0x67B DUP3 PUSH2 0x601 JUMP JUMPDEST SWAP2 POP PUSH32 0xFFFFFFFFFFFFFFFFFFFFFFFFFFFFFFFFFFFFFFFFFFFFFFFFFFFFFFFFFFFFFFFF DUP3 EQ ISZERO PUSH2 0x6AE JUMPI PUSH2 0x6AD PUSH2 0x6E8 JUMP JUMPDEST JUMPDEST PUSH1 0x1 DUP3 ADD SWAP1 POP SWAP2 SWAP1 POP JUMP JUMPDEST PUSH32 0x4E487B7100000000000000000000000000000000000000000000000000000000 PUSH1 0x0 MSTORE PUSH1 0x1 PUSH1 0x4 MSTORE PUSH1 0x24 PUSH1 0x0 REVERT JUMPDEST PUSH32 0x4E487B7100000000000000000000000000000000000000000000000000000000 PUSH1 0x0 MSTORE PUSH1 0x11 PUSH1 0x4 MSTORE PUSH1 0x24 PUSH1 0x0 REVERT JUMPDEST PUSH32 0x4E487B7100000000000000000000000000000000000000000000000000000000 PUSH1 0x0 MSTORE PUSH1 0x22 PUSH1 0x4 MSTORE PUSH1 0x24 PUSH1 0x0 REVERT JUMPDEST PUSH1 0x0 DUP1 REVERT JUMPDEST PUSH1 0x0 PUSH1 0x1F NOT PUSH1 0x1F DUP4 ADD AND SWAP1 POP SWAP2 SWAP1 POP JUMP JUMPDEST PUSH2 0x765 DUP2 PUSH2 0x5C3 JUMP JUMPDEST DUP2 EQ PUSH2 0x770 JUMPI PUSH1 0x0 DUP1 REVERT JUMPDEST POP JUMP JUMPDEST PUSH2 0x77C DUP2 PUSH2 0x601 JUMP JUMPDEST DUP2 EQ PUSH2 0x787 JUMPI PUSH1 0x0 DUP1 REVERT JUMPDEST POP JUMP INVALID LOG2 PUSH5 0x6970667358 0x22 SLT KECCAK256 ADDMOD ADD 0xB6 0x2A 0xDE STATICCALL SWAP6 BLOCKHASH 0xC2 LT LOG3 STATICCALL 0x2F RETURN DUP13 DUP8 0xD7 0xAD LT SMOD 0xDE ADDRESS 0xC5 JUMPI 0xED 0xC5 PUSH27 0xE2EEAC81E664736F6C634300080700330000000000000000000000 "
				},
				"gasEstimates": {
					"creation": {
						"codeDepositCost": "396800",
						"executionCost": "infinite",
						"totalCost": "infinite"
					},
					"external": {
						"candidatesMap(uint256)": "infinite",
						"count()": "2429",
						"vote(uint256)": "infinite",
						"votersMap(address)": "2911",
						"votersMapName(address)": "infinite"
					},
					"internal": {
						"addCandidate(string memory)": "infinite"
					}
				},
				"methodIdentifiers": {
					"candidatesMap(uint256)": "101ed4e1",
					"count()": "06661abd",
					"vote(uint256)": "0121b93f",
					"votersMap(address)": "ae66d4f4",
					"votersMapName(address)": "a8d0f03a"
				}
			},
			"storageLayout": {
				"storage": [
					{
						"astId": 13,
						"contract": "contracts/Voting.sol:Voting",
						"label": "candidatesMap",
						"offset": 0,
						"slot": "0",
						"type": "t_mapping(t_uint256,t_struct(Candidate)8_storage)"
					},
					{
						"astId": 16,
						"contract": "contracts/Voting.sol:Voting",
						"label": "count",
						"offset": 0,
						"slot": "1",
						"type": "t_uint256"
					},
					{
						"astId": 20,
						"contract": "contracts/Voting.sol:Voting",
						"label": "votersMap",
						"offset": 0,
						"slot": "2",
						"type": "t_mapping(t_address,t_bool)"
					},
					{
						"astId": 24,
						"contract": "contracts/Voting.sol:Voting",
						"label": "votersMapName",
						"offset": 0,
						"slot": "3",
						"type": "t_mapping(t_address,t_string_storage)"
					}
				],
				"types": {
					"t_address": {
						"encoding": "inplace",
						"label": "address",
						"numberOfBytes": "20"
					},
					"t_bool": {
						"encoding": "inplace",
						"label": "bool",
						"numberOfBytes": "1"
					},
					"t_mapping(t_address,t_bool)": {
						"encoding": "mapping",
						"key": "t_address",
						"label": "mapping(address => bool)",
						"numberOfBytes": "32",
						"value": "t_bool"
					},
					"t_mapping(t_address,t_string_storage)": {
						"encoding": "mapping",
						"key": "t_address",
						"label": "mapping(address => string)",
						"numberOfBytes": "32",
						"value": "t_string_storage"
					},
					"t_mapping(t_uint256,t_struct(Candidate)8_storage)": {
						"encoding": "mapping",
						"key": "t_uint256",
						"label": "mapping(uint256 => struct Voting.Candidate)",
						"numberOfBytes": "32",
						"value": "t_struct(Candidate)8_storage"
					},
					"t_string_storage": {
						"encoding": "bytes",
						"label": "string",
						"numberOfBytes": "32"
					},
					"t_struct(Candidate)8_storage": {
						"encoding": "inplace",
						"label": "struct Voting.Candidate",
						"members": [
							{
								"astId": 3,
								"contract": "contracts/Voting.sol:Voting",
								"label": "id",
								"offset": 0,
								"slot": "0",
								"type": "t_uint256"
							},
							{
								"astId": 5,
								"contract": "contracts/Voting.sol:Voting",
								"label": "name",
								"offset": 0,
								"slot": "1",
								"type": "t_string_storage"
							},
							{
								"astId": 7,
								"contract": "contracts/Voting.sol:Voting",
								"label": "voteCount",
								"offset": 0,
								"slot": "2",
								"type": "t_uint256"
							}
						],
						"numberOfBytes": "96"
					},
					"t_uint256": {
						"encoding": "inplace",
						"label": "uint256",
						"numberOfBytes": "32"
					}
				}
			},
			"userdoc": {
				"kind": "user",
				"methods": {},
				"version": 1
			}
		}
	}
}