{
  "contractName": "VoteAsset",
  "abi": [
    {
      "inputs": [],
      "stateMutability": "nonpayable",
      "type": "constructor"
    },
    {
      "anonymous": false,
      "inputs": [
        {
          "indexed": true,
          "internalType": "address",
          "name": "owner",
          "type": "address"
        },
        {
          "indexed": true,
          "internalType": "address",
          "name": "approved",
          "type": "address"
        },
        {
          "indexed": true,
          "internalType": "uint256",
          "name": "tokenId",
          "type": "uint256"
        }
      ],
      "name": "Approval",
      "type": "event"
    },
    {
      "anonymous": false,
      "inputs": [
        {
          "indexed": true,
          "internalType": "address",
          "name": "owner",
          "type": "address"
        },
        {
          "indexed": true,
          "internalType": "address",
          "name": "operator",
          "type": "address"
        },
        {
          "indexed": false,
          "internalType": "bool",
          "name": "approved",
          "type": "bool"
        }
      ],
      "name": "ApprovalForAll",
      "type": "event"
    },
    {
      "anonymous": false,
      "inputs": [
        {
          "indexed": false,
          "internalType": "address",
          "name": "account",
          "type": "address"
        }
      ],
      "name": "Paused",
      "type": "event"
    },
    {
      "anonymous": false,
      "inputs": [
        {
          "indexed": true,
          "internalType": "bytes32",
          "name": "role",
          "type": "bytes32"
        },
        {
          "indexed": true,
          "internalType": "bytes32",
          "name": "previousAdminRole",
          "type": "bytes32"
        },
        {
          "indexed": true,
          "internalType": "bytes32",
          "name": "newAdminRole",
          "type": "bytes32"
        }
      ],
      "name": "RoleAdminChanged",
      "type": "event"
    },
    {
      "anonymous": false,
      "inputs": [
        {
          "indexed": true,
          "internalType": "bytes32",
          "name": "role",
          "type": "bytes32"
        },
        {
          "indexed": true,
          "internalType": "address",
          "name": "account",
          "type": "address"
        },
        {
          "indexed": true,
          "internalType": "address",
          "name": "sender",
          "type": "address"
        }
      ],
      "name": "RoleGranted",
      "type": "event"
    },
    {
      "anonymous": false,
      "inputs": [
        {
          "indexed": true,
          "internalType": "bytes32",
          "name": "role",
          "type": "bytes32"
        },
        {
          "indexed": true,
          "internalType": "address",
          "name": "account",
          "type": "address"
        },
        {
          "indexed": true,
          "internalType": "address",
          "name": "sender",
          "type": "address"
        }
      ],
      "name": "RoleRevoked",
      "type": "event"
    },
    {
      "anonymous": false,
      "inputs": [
        {
          "indexed": true,
          "internalType": "address",
          "name": "from",
          "type": "address"
        },
        {
          "indexed": true,
          "internalType": "address",
          "name": "to",
          "type": "address"
        },
        {
          "indexed": true,
          "internalType": "uint256",
          "name": "tokenId",
          "type": "uint256"
        }
      ],
      "name": "Transfer",
      "type": "event"
    },
    {
      "anonymous": false,
      "inputs": [
        {
          "indexed": false,
          "internalType": "address",
          "name": "account",
          "type": "address"
        }
      ],
      "name": "Unpaused",
      "type": "event"
    },
    {
      "anonymous": false,
      "inputs": [
        {
          "indexed": false,
          "internalType": "address",
          "name": "mintedAddress",
          "type": "address"
        }
      ],
      "name": "mintingEvent",
      "type": "event"
    },
    {
      "inputs": [],
      "name": "DEFAULT_ADMIN_ROLE",
      "outputs": [
        {
          "internalType": "bytes32",
          "name": "",
          "type": "bytes32"
        }
      ],
      "stateMutability": "view",
      "type": "function",
      "constant": true
    },
    {
      "inputs": [],
      "name": "MINTER_ROLE",
      "outputs": [
        {
          "internalType": "bytes32",
          "name": "",
          "type": "bytes32"
        }
      ],
      "stateMutability": "view",
      "type": "function",
      "constant": true
    },
    {
      "inputs": [],
      "name": "PAUSER_ROLE",
      "outputs": [
        {
          "internalType": "bytes32",
          "name": "",
          "type": "bytes32"
        }
      ],
      "stateMutability": "view",
      "type": "function",
      "constant": true
    },
    {
      "inputs": [
        {
          "internalType": "address",
          "name": "to",
          "type": "address"
        },
        {
          "internalType": "uint256",
          "name": "tokenId",
          "type": "uint256"
        }
      ],
      "name": "approve",
      "outputs": [],
      "stateMutability": "nonpayable",
      "type": "function"
    },
    {
      "inputs": [
        {
          "internalType": "address",
          "name": "owner",
          "type": "address"
        }
      ],
      "name": "balanceOf",
      "outputs": [
        {
          "internalType": "uint256",
          "name": "",
          "type": "uint256"
        }
      ],
      "stateMutability": "view",
      "type": "function",
      "constant": true
    },
    {
      "inputs": [
        {
          "internalType": "uint256",
          "name": "tokenId",
          "type": "uint256"
        }
      ],
      "name": "burn",
      "outputs": [],
      "stateMutability": "nonpayable",
      "type": "function"
    },
    {
      "inputs": [
        {
          "internalType": "uint256",
          "name": "tokenId",
          "type": "uint256"
        }
      ],
      "name": "getApproved",
      "outputs": [
        {
          "internalType": "address",
          "name": "",
          "type": "address"
        }
      ],
      "stateMutability": "view",
      "type": "function",
      "constant": true
    },
    {
      "inputs": [
        {
          "internalType": "bytes32",
          "name": "role",
          "type": "bytes32"
        }
      ],
      "name": "getRoleAdmin",
      "outputs": [
        {
          "internalType": "bytes32",
          "name": "",
          "type": "bytes32"
        }
      ],
      "stateMutability": "view",
      "type": "function",
      "constant": true
    },
    {
      "inputs": [
        {
          "internalType": "bytes32",
          "name": "role",
          "type": "bytes32"
        },
        {
          "internalType": "uint256",
          "name": "index",
          "type": "uint256"
        }
      ],
      "name": "getRoleMember",
      "outputs": [
        {
          "internalType": "address",
          "name": "",
          "type": "address"
        }
      ],
      "stateMutability": "view",
      "type": "function",
      "constant": true
    },
    {
      "inputs": [
        {
          "internalType": "bytes32",
          "name": "role",
          "type": "bytes32"
        }
      ],
      "name": "getRoleMemberCount",
      "outputs": [
        {
          "internalType": "uint256",
          "name": "",
          "type": "uint256"
        }
      ],
      "stateMutability": "view",
      "type": "function",
      "constant": true
    },
    {
      "inputs": [
        {
          "internalType": "bytes32",
          "name": "role",
          "type": "bytes32"
        },
        {
          "internalType": "address",
          "name": "account",
          "type": "address"
        }
      ],
      "name": "grantRole",
      "outputs": [],
      "stateMutability": "nonpayable",
      "type": "function"
    },
    {
      "inputs": [
        {
          "internalType": "bytes32",
          "name": "role",
          "type": "bytes32"
        },
        {
          "internalType": "address",
          "name": "account",
          "type": "address"
        }
      ],
      "name": "hasRole",
      "outputs": [
        {
          "internalType": "bool",
          "name": "",
          "type": "bool"
        }
      ],
      "stateMutability": "view",
      "type": "function",
      "constant": true
    },
    {
      "inputs": [
        {
          "internalType": "address",
          "name": "owner",
          "type": "address"
        },
        {
          "internalType": "address",
          "name": "operator",
          "type": "address"
        }
      ],
      "name": "isApprovedForAll",
      "outputs": [
        {
          "internalType": "bool",
          "name": "",
          "type": "bool"
        }
      ],
      "stateMutability": "view",
      "type": "function",
      "constant": true
    },
    {
      "inputs": [
        {
          "internalType": "address",
          "name": "",
          "type": "address"
        }
      ],
      "name": "mintersMap",
      "outputs": [
        {
          "internalType": "bool",
          "name": "",
          "type": "bool"
        }
      ],
      "stateMutability": "view",
      "type": "function",
      "constant": true
    },
    {
      "inputs": [],
      "name": "name",
      "outputs": [
        {
          "internalType": "string",
          "name": "",
          "type": "string"
        }
      ],
      "stateMutability": "view",
      "type": "function",
      "constant": true
    },
    {
      "inputs": [
        {
          "internalType": "uint256",
          "name": "tokenId",
          "type": "uint256"
        }
      ],
      "name": "ownerOf",
      "outputs": [
        {
          "internalType": "address",
          "name": "",
          "type": "address"
        }
      ],
      "stateMutability": "view",
      "type": "function",
      "constant": true
    },
    {
      "inputs": [],
      "name": "pause",
      "outputs": [],
      "stateMutability": "nonpayable",
      "type": "function"
    },
    {
      "inputs": [],
      "name": "paused",
      "outputs": [
        {
          "internalType": "bool",
          "name": "",
          "type": "bool"
        }
      ],
      "stateMutability": "view",
      "type": "function",
      "constant": true
    },
    {
      "inputs": [
        {
          "internalType": "bytes32",
          "name": "role",
          "type": "bytes32"
        },
        {
          "internalType": "address",
          "name": "account",
          "type": "address"
        }
      ],
      "name": "renounceRole",
      "outputs": [],
      "stateMutability": "nonpayable",
      "type": "function"
    },
    {
      "inputs": [
        {
          "internalType": "bytes32",
          "name": "role",
          "type": "bytes32"
        },
        {
          "internalType": "address",
          "name": "account",
          "type": "address"
        }
      ],
      "name": "revokeRole",
      "outputs": [],
      "stateMutability": "nonpayable",
      "type": "function"
    },
    {
      "inputs": [
        {
          "internalType": "address",
          "name": "from",
          "type": "address"
        },
        {
          "internalType": "address",
          "name": "to",
          "type": "address"
        },
        {
          "internalType": "uint256",
          "name": "tokenId",
          "type": "uint256"
        }
      ],
      "name": "safeTransferFrom",
      "outputs": [],
      "stateMutability": "nonpayable",
      "type": "function"
    },
    {
      "inputs": [
        {
          "internalType": "address",
          "name": "from",
          "type": "address"
        },
        {
          "internalType": "address",
          "name": "to",
          "type": "address"
        },
        {
          "internalType": "uint256",
          "name": "tokenId",
          "type": "uint256"
        },
        {
          "internalType": "bytes",
          "name": "_data",
          "type": "bytes"
        }
      ],
      "name": "safeTransferFrom",
      "outputs": [],
      "stateMutability": "nonpayable",
      "type": "function"
    },
    {
      "inputs": [
        {
          "internalType": "address",
          "name": "operator",
          "type": "address"
        },
        {
          "internalType": "bool",
          "name": "approved",
          "type": "bool"
        }
      ],
      "name": "setApprovalForAll",
      "outputs": [],
      "stateMutability": "nonpayable",
      "type": "function"
    },
    {
      "inputs": [
        {
          "internalType": "bytes4",
          "name": "interfaceId",
          "type": "bytes4"
        }
      ],
      "name": "supportsInterface",
      "outputs": [
        {
          "internalType": "bool",
          "name": "",
          "type": "bool"
        }
      ],
      "stateMutability": "view",
      "type": "function",
      "constant": true
    },
    {
      "inputs": [],
      "name": "symbol",
      "outputs": [
        {
          "internalType": "string",
          "name": "",
          "type": "string"
        }
      ],
      "stateMutability": "view",
      "type": "function",
      "constant": true
    },
    {
      "inputs": [
        {
          "internalType": "uint256",
          "name": "index",
          "type": "uint256"
        }
      ],
      "name": "tokenByIndex",
      "outputs": [
        {
          "internalType": "uint256",
          "name": "",
          "type": "uint256"
        }
      ],
      "stateMutability": "view",
      "type": "function",
      "constant": true
    },
    {
      "inputs": [
        {
          "internalType": "address",
          "name": "owner",
          "type": "address"
        },
        {
          "internalType": "uint256",
          "name": "index",
          "type": "uint256"
        }
      ],
      "name": "tokenOfOwnerByIndex",
      "outputs": [
        {
          "internalType": "uint256",
          "name": "",
          "type": "uint256"
        }
      ],
      "stateMutability": "view",
      "type": "function",
      "constant": true
    },
    {
      "inputs": [
        {
          "internalType": "uint256",
          "name": "tokenId",
          "type": "uint256"
        }
      ],
      "name": "tokenURI",
      "outputs": [
        {
          "internalType": "string",
          "name": "",
          "type": "string"
        }
      ],
      "stateMutability": "view",
      "type": "function",
      "constant": true
    },
    {
      "inputs": [],
      "name": "totalSupply",
      "outputs": [
        {
          "internalType": "uint256",
          "name": "",
          "type": "uint256"
        }
      ],
      "stateMutability": "view",
      "type": "function",
      "constant": true
    },
    {
      "inputs": [
        {
          "internalType": "address",
          "name": "from",
          "type": "address"
        },
        {
          "internalType": "address",
          "name": "to",
          "type": "address"
        },
        {
          "internalType": "uint256",
          "name": "tokenId",
          "type": "uint256"
        }
      ],
      "name": "transferFrom",
      "outputs": [],
      "stateMutability": "nonpayable",
      "type": "function"
    },
    {
      "inputs": [],
      "name": "unpause",
      "outputs": [],
      "stateMutability": "nonpayable",
      "type": "function"
    },
    {
      "inputs": [
        {
          "internalType": "address",
          "name": "to",
          "type": "address"
        }
      ],
      "name": "mint",
      "outputs": [],
      "stateMutability": "nonpayable",
      "type": "function"
    }
  ],
  "bytecode": "0x60806040523480156200001157600080fd5b506040518060400160405280600981526020017f566f7465417373657400000000000000000000000000000000000000000000008152506040518060400160405280600481526020017f564153540000000000000000000000000000000000000000000000000000000081525060405180608001604052806051815260200162004dca6051913982828160029080519060200190620000b292919062000447565b508060039080519060200190620000cb92919062000447565b5050506000600c60006101000a81548160ff02191690831515021790555080600e90805190602001906200010192919062000447565b50620001266000801b6200011a620001b160201b60201c565b620001b960201b60201c565b620001677f9f2df0fed2c77648de5860a4cc508cd0818c85b8b8a1ab4ceeef8d981c8956a66200015b620001b160201b60201c565b620001b960201b60201c565b620001a87f65d7a28e3265b37a6474929f336521b332c1681b933f6cb9f3376673440d862a6200019c620001b160201b60201c565b620001b960201b60201c565b5050506200055b565b600033905090565b620001cb8282620001cf60201b60201c565b5050565b620001e682826200021760201b6200128a1760201c565b6200021281600160008581526020019081526020016000206200030860201b6200136a1790919060201c565b505050565b6200022982826200034060201b60201c565b6200030457600160008084815260200190815260200160002060000160008373ffffffffffffffffffffffffffffffffffffffff1673ffffffffffffffffffffffffffffffffffffffff16815260200190815260200160002060006101000a81548160ff021916908315150217905550620002a9620001b160201b60201c565b73ffffffffffffffffffffffffffffffffffffffff168173ffffffffffffffffffffffffffffffffffffffff16837f2f8788117e7eff1d82e926ec794901d17c78024a50270940304540a733656f0d60405160405180910390a45b5050565b600062000338836000018373ffffffffffffffffffffffffffffffffffffffff1660001b620003aa60201b60201c565b905092915050565b600080600084815260200190815260200160002060000160008373ffffffffffffffffffffffffffffffffffffffff1673ffffffffffffffffffffffffffffffffffffffff16815260200190815260200160002060009054906101000a900460ff16905092915050565b6000620003be83836200042460201b60201c565b620004195782600001829080600181540180825580915050600190039060005260206000200160009091909190915055826000018054905083600101600084815260200190815260200160002081905550600190506200041e565b600090505b92915050565b600080836001016000848152602001908152602001600020541415905092915050565b828054620004559062000526565b90600052602060002090601f016020900481019282620004795760008555620004c5565b82601f106200049457805160ff1916838001178555620004c5565b82800160010185558215620004c5579182015b82811115620004c4578251825591602001919060010190620004a7565b5b509050620004d49190620004d8565b5090565b5b80821115620004f3576000816000905550600101620004d9565b5090565b7f4e487b7100000000000000000000000000000000000000000000000000000000600052602260045260246000fd5b600060028204905060018216806200053f57607f821691505b602082108103620005555762000554620004f7565b5b50919050565b61485f806200056b6000396000f3fe608060405234801561001057600080fd5b50600436106101f05760003560e01c80636a6278421161010f578063a22cb465116100a2578063d539139311610071578063d5391393146105db578063d547741f146105f9578063e63ab1e914610615578063e985e9c514610633576101f0565b8063a22cb46514610543578063b88d4fde1461055f578063c87b56dd1461057b578063ca15c873146105ab576101f0565b80639010d07c116100de5780639010d07c146104a757806391d14854146104d757806395d89b4114610507578063a217fddf14610525576101f0565b80636a6278421461042157806370a082311461043d5780637dac05ba1461046d5780638456cb591461049d576101f0565b80632f745c591161018757806342966c681161015657806342966c68146103875780634f6ccce7146103a35780635c975abb146103d35780636352211e146103f1576101f0565b80632f745c591461031557806336568abe146103455780633f4ba83a1461036157806342842e0e1461036b576101f0565b806318160ddd116101c357806318160ddd1461028f57806323b872dd146102ad578063248a9ca3146102c95780632f2ff15d146102f9576101f0565b806301ffc9a7146101f557806306fdde0314610225578063081812fc14610243578063095ea7b314610273575b600080fd5b61020f600480360381019061020a9190612fe2565b610663565b60405161021c919061302a565b60405180910390f35b61022d610675565b60405161023a91906130de565b60405180910390f35b61025d60048036038101906102589190613136565b610707565b60405161026a91906131a4565b60405180910390f35b61028d600480360381019061028891906131eb565b61078c565b005b6102976108a3565b6040516102a4919061323a565b60405180910390f35b6102c760048036038101906102c29190613255565b6108b0565b005b6102e360048036038101906102de91906132de565b610910565b6040516102f0919061331a565b60405180910390f35b610313600480360381019061030e9190613335565b61092f565b005b61032f600480360381019061032a91906131eb565b610958565b60405161033c919061323a565b60405180910390f35b61035f600480360381019061035a9190613335565b6109fd565b005b610369610a80565b005b61038560048036038101906103809190613255565b610afa565b005b6103a1600480360381019061039c9190613136565b610b1a565b005b6103bd60048036038101906103b89190613136565b610b76565b6040516103ca919061323a565b60405180910390f35b6103db610be7565b6040516103e8919061302a565b60405180910390f35b61040b60048036038101906104069190613136565b610bfe565b60405161041891906131a4565b60405180910390f35b61043b60048036038101906104369190613375565b610caf565b005b61045760048036038101906104529190613375565b610dbf565b604051610464919061323a565b60405180910390f35b61048760048036038101906104829190613375565b610e76565b604051610494919061302a565b60405180910390f35b6104a5610e96565b005b6104c160048036038101906104bc91906133a2565b610f10565b6040516104ce91906131a4565b60405180910390f35b6104f160048036038101906104ec9190613335565b610f3f565b6040516104fe919061302a565b60405180910390f35b61050f610fa9565b60405161051c91906130de565b60405180910390f35b61052d61103b565b60405161053a919061331a565b60405180910390f35b61055d6004803603810190610558919061340e565b611042565b005b61057960048036038101906105749190613583565b611058565b005b61059560048036038101906105909190613136565b6110ba565b6040516105a291906130de565b60405180910390f35b6105c560048036038101906105c091906132de565b611161565b6040516105d2919061323a565b60405180910390f35b6105e3611185565b6040516105f0919061331a565b60405180910390f35b610613600480360381019061060e9190613335565b6111a9565b005b61061d6111d2565b60405161062a919061331a565b60405180910390f35b61064d60048036038101906106489190613606565b6111f6565b60405161065a919061302a565b60405180910390f35b600061066e8261139a565b9050919050565b60606002805461068490613675565b80601f01602080910402602001604051908101604052809291908181526020018280546106b090613675565b80156106fd5780601f106106d2576101008083540402835291602001916106fd565b820191906000526020600020905b8154815290600101906020018083116106e057829003601f168201915b5050505050905090565b600061071282611414565b610751576040517f08c379a000000000000000000000000000000000000000000000000000000000815260040161074890613718565b60405180910390fd5b6006600083815260200190815260200160002060009054906101000a900473ffffffffffffffffffffffffffffffffffffffff169050919050565b600061079782610bfe565b90508073ffffffffffffffffffffffffffffffffffffffff168373ffffffffffffffffffffffffffffffffffffffff1603610807576040517f08c379a00000000000000000000000000000000000000000000000000000000081526004016107fe906137aa565b60405180910390fd5b8073ffffffffffffffffffffffffffffffffffffffff16610826611480565b73ffffffffffffffffffffffffffffffffffffffff16148061085557506108548161084f611480565b6111f6565b5b610894576040517f08c379a000000000000000000000000000000000000000000000000000000000815260040161088b9061383c565b60405180910390fd5b61089e8383611488565b505050565b6000600a80549050905090565b6108c16108bb611480565b82611541565b610900576040517f08c379a00000000000000000000000000000000000000000000000000000000081526004016108f7906138ce565b60405180910390fd5b61090b83838361161f565b505050565b6000806000838152602001908152602001600020600101549050919050565b61093882610910565b61094981610944611480565b611885565b6109538383611922565b505050565b600061096383610dbf565b82106109a4576040517f08c379a000000000000000000000000000000000000000000000000000000000815260040161099b90613960565b60405180910390fd5b600860008473ffffffffffffffffffffffffffffffffffffffff1673ffffffffffffffffffffffffffffffffffffffff168152602001908152602001600020600083815260200190815260200160002054905092915050565b610a05611480565b73ffffffffffffffffffffffffffffffffffffffff168173ffffffffffffffffffffffffffffffffffffffff1614610a72576040517f08c379a0000000000000000000000000000000000000000000000000000000008152600401610a69906139f2565b60405180910390fd5b610a7c8282611956565b5050565b610ab17f65d7a28e3265b37a6474929f336521b332c1681b933f6cb9f3376673440d862a610aac611480565b610f3f565b610af0576040517f08c379a0000000000000000000000000000000000000000000000000000000008152600401610ae790613a84565b60405180910390fd5b610af861198a565b565b610b1583838360405180602001604052806000815250611058565b505050565b610b2b610b25611480565b82611541565b610b6a576040517f08c379a0000000000000000000000000000000000000000000000000000000008152600401610b6190613b16565b60405180910390fd5b610b7381611a2c565b50565b6000610b806108a3565b8210610bc1576040517f08c379a0000000000000000000000000000000000000000000000000000000008152600401610bb890613ba8565b60405180910390fd5b600a8281548110610bd557610bd4613bc8565b5b90600052602060002001549050919050565b6000600c60009054906101000a900460ff16905090565b6000806004600084815260200190815260200160002060009054906101000a900473ffffffffffffffffffffffffffffffffffffffff169050600073ffffffffffffffffffffffffffffffffffffffff168173ffffffffffffffffffffffffffffffffffffffff1603610ca6576040517f08c379a0000000000000000000000000000000000000000000000000000000008152600401610c9d90613c69565b60405180910390fd5b80915050919050565b60001515601060003373ffffffffffffffffffffffffffffffffffffffff1673ffffffffffffffffffffffffffffffffffffffff16815260200190815260200160002060009054906101000a900460ff16151514610d1057610d0f613c89565b5b610d2381610d1e600f611b49565b611b57565b610d2d600f611d30565b6001601060003373ffffffffffffffffffffffffffffffffffffffff1673ffffffffffffffffffffffffffffffffffffffff16815260200190815260200160002060006101000a81548160ff0219169083151502179055507fbf0af420aa0cd2e94dab308af6a137a5469dde5dbd46e50e40949177562bf6c081604051610db491906131a4565b60405180910390a150565b60008073ffffffffffffffffffffffffffffffffffffffff168273ffffffffffffffffffffffffffffffffffffffff1603610e2f576040517f08c379a0000000000000000000000000000000000000000000000000000000008152600401610e2690613d2a565b60405180910390fd5b600560008373ffffffffffffffffffffffffffffffffffffffff1673ffffffffffffffffffffffffffffffffffffffff168152602001908152602001600020549050919050565b60106020528060005260406000206000915054906101000a900460ff1681565b610ec77f65d7a28e3265b37a6474929f336521b332c1681b933f6cb9f3376673440d862a610ec2611480565b610f3f565b610f06576040517f08c379a0000000000000000000000000000000000000000000000000000000008152600401610efd90613dbc565b60405180910390fd5b610f0e611d46565b565b6000610f378260016000868152602001908152602001600020611de990919063ffffffff16565b905092915050565b600080600084815260200190815260200160002060000160008373ffffffffffffffffffffffffffffffffffffffff1673ffffffffffffffffffffffffffffffffffffffff16815260200190815260200160002060009054906101000a900460ff16905092915050565b606060038054610fb890613675565b80601f0160208091040260200160405190810160405280929190818152602001828054610fe490613675565b80156110315780601f1061100657610100808354040283529160200191611031565b820191906000526020600020905b81548152906001019060200180831161101457829003601f168201915b5050505050905090565b6000801b81565b61105461104d611480565b8383611e03565b5050565b611069611063611480565b83611541565b6110a8576040517f08c379a000000000000000000000000000000000000000000000000000000000815260040161109f906138ce565b60405180910390fd5b6110b484848484611f6f565b50505050565b60606110c582611414565b611104576040517f08c379a00000000000000000000000000000000000000000000000000000000081526004016110fb90613e4e565b60405180910390fd5b600061110e611fcb565b9050600081511161112e5760405180602001604052806000815250611159565b806111388461205d565b604051602001611149929190613eaa565b6040516020818303038152906040525b915050919050565b600061117e600160008481526020019081526020016000206121bd565b9050919050565b7f9f2df0fed2c77648de5860a4cc508cd0818c85b8b8a1ab4ceeef8d981c8956a681565b6111b282610910565b6111c3816111be611480565b611885565b6111cd8383611956565b505050565b7f65d7a28e3265b37a6474929f336521b332c1681b933f6cb9f3376673440d862a81565b6000600760008473ffffffffffffffffffffffffffffffffffffffff1673ffffffffffffffffffffffffffffffffffffffff16815260200190815260200160002060008373ffffffffffffffffffffffffffffffffffffffff1673ffffffffffffffffffffffffffffffffffffffff16815260200190815260200160002060009054906101000a900460ff16905092915050565b6112948282610f3f565b61136657600160008084815260200190815260200160002060000160008373ffffffffffffffffffffffffffffffffffffffff1673ffffffffffffffffffffffffffffffffffffffff16815260200190815260200160002060006101000a81548160ff02191690831515021790555061130b611480565b73ffffffffffffffffffffffffffffffffffffffff168173ffffffffffffffffffffffffffffffffffffffff16837f2f8788117e7eff1d82e926ec794901d17c78024a50270940304540a733656f0d60405160405180910390a45b5050565b6000611392836000018373ffffffffffffffffffffffffffffffffffffffff1660001b6121d2565b905092915050565b60007f780e9d63000000000000000000000000000000000000000000000000000000007bffffffffffffffffffffffffffffffffffffffffffffffffffffffff1916827bffffffffffffffffffffffffffffffffffffffffffffffffffffffff1916148061140d575061140c82612242565b5b9050919050565b60008073ffffffffffffffffffffffffffffffffffffffff166004600084815260200190815260200160002060009054906101000a900473ffffffffffffffffffffffffffffffffffffffff1673ffffffffffffffffffffffffffffffffffffffff1614159050919050565b600033905090565b816006600083815260200190815260200160002060006101000a81548173ffffffffffffffffffffffffffffffffffffffff021916908373ffffffffffffffffffffffffffffffffffffffff160217905550808273ffffffffffffffffffffffffffffffffffffffff166114fb83610bfe565b73ffffffffffffffffffffffffffffffffffffffff167f8c5be1e5ebec7d5bd14f71427d1e84f3dd0314c0f7b2291e5b200ac8c7c3b92560405160405180910390a45050565b600061154c82611414565b61158b576040517f08c379a000000000000000000000000000000000000000000000000000000000815260040161158290613f40565b60405180910390fd5b600061159683610bfe565b90508073ffffffffffffffffffffffffffffffffffffffff168473ffffffffffffffffffffffffffffffffffffffff16148061160557508373ffffffffffffffffffffffffffffffffffffffff166115ed84610707565b73ffffffffffffffffffffffffffffffffffffffff16145b80611616575061161581856111f6565b5b91505092915050565b8273ffffffffffffffffffffffffffffffffffffffff1661163f82610bfe565b73ffffffffffffffffffffffffffffffffffffffff1614611695576040517f08c379a000000000000000000000000000000000000000000000000000000000815260040161168c90613fd2565b60405180910390fd5b600073ffffffffffffffffffffffffffffffffffffffff168273ffffffffffffffffffffffffffffffffffffffff1603611704576040517f08c379a00000000000000000000000000000000000000000000000000000000081526004016116fb90614064565b60405180910390fd5b61170f838383612324565b61171a600082611488565b6001600560008573ffffffffffffffffffffffffffffffffffffffff1673ffffffffffffffffffffffffffffffffffffffff168152602001908152602001600020600082825461176a91906140b3565b925050819055506001600560008473ffffffffffffffffffffffffffffffffffffffff1673ffffffffffffffffffffffffffffffffffffffff16815260200190815260200160002060008282546117c191906140e7565b92505081905550816004600083815260200190815260200160002060006101000a81548173ffffffffffffffffffffffffffffffffffffffff021916908373ffffffffffffffffffffffffffffffffffffffff160217905550808273ffffffffffffffffffffffffffffffffffffffff168473ffffffffffffffffffffffffffffffffffffffff167fddf252ad1be2c89b69c2b068fc378daa952ba7f163c4a11628f55a4df523b3ef60405160405180910390a4611880838383612334565b505050565b61188f8282610f3f565b61191e576118b48173ffffffffffffffffffffffffffffffffffffffff166014612339565b6118c28360001c6020612339565b6040516020016118d39291906141d5565b6040516020818303038152906040526040517f08c379a000000000000000000000000000000000000000000000000000000000815260040161191591906130de565b60405180910390fd5b5050565b61192c828261128a565b611951816001600085815260200190815260200160002061136a90919063ffffffff16565b505050565b6119608282612575565b611985816001600085815260200190815260200160002061265690919063ffffffff16565b505050565b611992610be7565b6119d1576040517f08c379a00000000000000000000000000000000000000000000000000000000081526004016119c89061425b565b60405180910390fd5b6000600c60006101000a81548160ff0219169083151502179055507f5db9ee0a495bf2e6ff9c91a7834c1ba4fdd244a5e8aa4e537bd38aeae4b073aa611a15611480565b604051611a2291906131a4565b60405180910390a1565b6000611a3782610bfe565b9050611a4581600084612324565b611a50600083611488565b6001600560008373ffffffffffffffffffffffffffffffffffffffff1673ffffffffffffffffffffffffffffffffffffffff1681526020019081526020016000206000828254611aa091906140b3565b925050819055506004600083815260200190815260200160002060006101000a81549073ffffffffffffffffffffffffffffffffffffffff021916905581600073ffffffffffffffffffffffffffffffffffffffff168273ffffffffffffffffffffffffffffffffffffffff167fddf252ad1be2c89b69c2b068fc378daa952ba7f163c4a11628f55a4df523b3ef60405160405180910390a4611b4581600084612334565b5050565b600081600001549050919050565b600073ffffffffffffffffffffffffffffffffffffffff168273ffffffffffffffffffffffffffffffffffffffff1603611bc6576040517f08c379a0000000000000000000000000000000000000000000000000000000008152600401611bbd906142c7565b60405180910390fd5b611bcf81611414565b15611c0f576040517f08c379a0000000000000000000000000000000000000000000000000000000008152600401611c0690614333565b60405180910390fd5b611c1b60008383612324565b6001600560008473ffffffffffffffffffffffffffffffffffffffff1673ffffffffffffffffffffffffffffffffffffffff1681526020019081526020016000206000828254611c6b91906140e7565b92505081905550816004600083815260200190815260200160002060006101000a81548173ffffffffffffffffffffffffffffffffffffffff021916908373ffffffffffffffffffffffffffffffffffffffff160217905550808273ffffffffffffffffffffffffffffffffffffffff16600073ffffffffffffffffffffffffffffffffffffffff167fddf252ad1be2c89b69c2b068fc378daa952ba7f163c4a11628f55a4df523b3ef60405160405180910390a4611d2c60008383612334565b5050565b6001816000016000828254019250508190555050565b611d4e610be7565b15611d8e576040517f08c379a0000000000000000000000000000000000000000000000000000000008152600401611d859061439f565b60405180910390fd5b6001600c60006101000a81548160ff0219169083151502179055507f62e78cea01bee320cd4e420270b5ea74000d11b0c9f74754ebdbfc544b05a258611dd2611480565b604051611ddf91906131a4565b60405180910390a1565b6000611df88360000183612686565b60001c905092915050565b8173ffffffffffffffffffffffffffffffffffffffff168373ffffffffffffffffffffffffffffffffffffffff1603611e71576040517f08c379a0000000000000000000000000000000000000000000000000000000008152600401611e689061440b565b60405180910390fd5b80600760008573ffffffffffffffffffffffffffffffffffffffff1673ffffffffffffffffffffffffffffffffffffffff16815260200190815260200160002060008473ffffffffffffffffffffffffffffffffffffffff1673ffffffffffffffffffffffffffffffffffffffff16815260200190815260200160002060006101000a81548160ff0219169083151502179055508173ffffffffffffffffffffffffffffffffffffffff168373ffffffffffffffffffffffffffffffffffffffff167f17307eab39ab6107e8899845ad3d59bd9653f200f220920489ca2b5937696c3183604051611f62919061302a565b60405180910390a3505050565b611f7a84848461161f565b611f86848484846126b1565b611fc5576040517f08c379a0000000000000000000000000000000000000000000000000000000008152600401611fbc9061449d565b60405180910390fd5b50505050565b6060600e8054611fda90613675565b80601f016020809104026020016040519081016040528092919081815260200182805461200690613675565b80156120535780601f1061202857610100808354040283529160200191612053565b820191906000526020600020905b81548152906001019060200180831161203657829003601f168201915b5050505050905090565b6060600082036120a4576040518060400160405280600181526020017f300000000000000000000000000000000000000000000000000000000000000081525090506121b8565b600082905060005b600082146120d65780806120bf906144bd565b915050600a826120cf9190614534565b91506120ac565b60008167ffffffffffffffff8111156120f2576120f1613458565b5b6040519080825280601f01601f1916602001820160405280156121245781602001600182028036833780820191505090505b5090505b600085146121b15760018261213d91906140b3565b9150600a8561214c9190614565565b603061215891906140e7565b60f81b81838151811061216e5761216d613bc8565b5b60200101907effffffffffffffffffffffffffffffffffffffffffffffffffffffffffffff1916908160001a905350600a856121aa9190614534565b9450612128565b8093505050505b919050565b60006121cb82600001612838565b9050919050565b60006121de8383612849565b61223757826000018290806001815401808255809150506001900390600052602060002001600090919091909150558260000180549050836001016000848152602001908152602001600020819055506001905061223c565b600090505b92915050565b60007f80ac58cd000000000000000000000000000000000000000000000000000000007bffffffffffffffffffffffffffffffffffffffffffffffffffffffff1916827bffffffffffffffffffffffffffffffffffffffffffffffffffffffff1916148061230d57507f5b5e139f000000000000000000000000000000000000000000000000000000007bffffffffffffffffffffffffffffffffffffffffffffffffffffffff1916827bffffffffffffffffffffffffffffffffffffffffffffffffffffffff1916145b8061231d575061231c8261286c565b5b9050919050565b61232f8383836128e6565b505050565b505050565b60606000600283600261234c9190614596565b61235691906140e7565b67ffffffffffffffff81111561236f5761236e613458565b5b6040519080825280601f01601f1916602001820160405280156123a15781602001600182028036833780820191505090505b5090507f3000000000000000000000000000000000000000000000000000000000000000816000815181106123d9576123d8613bc8565b5b60200101907effffffffffffffffffffffffffffffffffffffffffffffffffffffffffffff1916908160001a9053507f78000000000000000000000000000000000000000000000000000000000000008160018151811061243d5761243c613bc8565b5b60200101907effffffffffffffffffffffffffffffffffffffffffffffffffffffffffffff1916908160001a9053506000600184600261247d9190614596565b61248791906140e7565b90505b6001811115612527577f3031323334353637383961626364656600000000000000000000000000000000600f8616601081106124c9576124c8613bc8565b5b1a60f81b8282815181106124e0576124df613bc8565b5b60200101907effffffffffffffffffffffffffffffffffffffffffffffffffffffffffffff1916908160001a905350600485901c945080612520906145f0565b905061248a565b506000841461256b576040517f08c379a000000000000000000000000000000000000000000000000000000000815260040161256290614665565b60405180910390fd5b8091505092915050565b61257f8282610f3f565b1561265257600080600084815260200190815260200160002060000160008373ffffffffffffffffffffffffffffffffffffffff1673ffffffffffffffffffffffffffffffffffffffff16815260200190815260200160002060006101000a81548160ff0219169083151502179055506125f7611480565b73ffffffffffffffffffffffffffffffffffffffff168173ffffffffffffffffffffffffffffffffffffffff16837ff6391f5c32d9c69d2a47ea670b442974b53935d1edc7fd64eb21e047a839171b60405160405180910390a45b5050565b600061267e836000018373ffffffffffffffffffffffffffffffffffffffff1660001b61293e565b905092915050565b600082600001828154811061269e5761269d613bc8565b5b9060005260206000200154905092915050565b60006126d28473ffffffffffffffffffffffffffffffffffffffff16612a52565b1561282b578373ffffffffffffffffffffffffffffffffffffffff1663150b7a026126fb611480565b8786866040518563ffffffff1660e01b815260040161271d94939291906146da565b6020604051808303816000875af192505050801561275957506040513d601f19601f82011682018060405250810190612756919061473b565b60015b6127db573d8060008114612789576040519150601f19603f3d011682016040523d82523d6000602084013e61278e565b606091505b5060008151036127d3576040517f08c379a00000000000000000000000000000000000000000000000000000000081526004016127ca9061449d565b60405180910390fd5b805181602001fd5b63150b7a0260e01b7bffffffffffffffffffffffffffffffffffffffffffffffffffffffff1916817bffffffffffffffffffffffffffffffffffffffffffffffffffffffff191614915050612830565b600190505b949350505050565b600081600001805490509050919050565b600080836001016000848152602001908152602001600020541415905092915050565b60007f5a05180f000000000000000000000000000000000000000000000000000000007bffffffffffffffffffffffffffffffffffffffffffffffffffffffff1916827bffffffffffffffffffffffffffffffffffffffffffffffffffffffff191614806128df57506128de82612a75565b5b9050919050565b6128f1838383612aef565b6128f9610be7565b15612939576040517f08c379a0000000000000000000000000000000000000000000000000000000008152600401612930906147da565b60405180910390fd5b505050565b60008083600101600084815260200190815260200160002054905060008114612a4657600060018261297091906140b3565b905060006001866000018054905061298891906140b3565b90508181146129f75760008660000182815481106129a9576129a8613bc8565b5b90600052602060002001549050808760000184815481106129cd576129cc613bc8565b5b90600052602060002001819055508387600101600083815260200190815260200160002081905550505b85600001805480612a0b57612a0a6147fa565b5b600190038181906000526020600020016000905590558560010160008681526020019081526020016000206000905560019350505050612a4c565b60009150505b92915050565b6000808273ffffffffffffffffffffffffffffffffffffffff163b119050919050565b60007f7965db0b000000000000000000000000000000000000000000000000000000007bffffffffffffffffffffffffffffffffffffffffffffffffffffffff1916827bffffffffffffffffffffffffffffffffffffffffffffffffffffffff19161480612ae85750612ae782612c01565b5b9050919050565b612afa838383612c6b565b600073ffffffffffffffffffffffffffffffffffffffff168373ffffffffffffffffffffffffffffffffffffffff1603612b3c57612b3781612c70565b612b7b565b8173ffffffffffffffffffffffffffffffffffffffff168373ffffffffffffffffffffffffffffffffffffffff1614612b7a57612b798382612cb9565b5b5b600073ffffffffffffffffffffffffffffffffffffffff168273ffffffffffffffffffffffffffffffffffffffff1603612bbd57612bb881612e26565b612bfc565b8273ffffffffffffffffffffffffffffffffffffffff168273ffffffffffffffffffffffffffffffffffffffff1614612bfb57612bfa8282612ef7565b5b5b505050565b60007f01ffc9a7000000000000000000000000000000000000000000000000000000007bffffffffffffffffffffffffffffffffffffffffffffffffffffffff1916827bffffffffffffffffffffffffffffffffffffffffffffffffffffffff1916149050919050565b505050565b600a80549050600b600083815260200190815260200160002081905550600a81908060018154018082558091505060019003906000526020600020016000909190919091505550565b60006001612cc684610dbf565b612cd091906140b3565b9050600060096000848152602001908152602001600020549050818114612db5576000600860008673ffffffffffffffffffffffffffffffffffffffff1673ffffffffffffffffffffffffffffffffffffffff168152602001908152602001600020600084815260200190815260200160002054905080600860008773ffffffffffffffffffffffffffffffffffffffff1673ffffffffffffffffffffffffffffffffffffffff168152602001908152602001600020600084815260200190815260200160002081905550816009600083815260200190815260200160002081905550505b6009600084815260200190815260200160002060009055600860008573ffffffffffffffffffffffffffffffffffffffff1673ffffffffffffffffffffffffffffffffffffffff16815260200190815260200160002060008381526020019081526020016000206000905550505050565b60006001600a80549050612e3a91906140b3565b90506000600b60008481526020019081526020016000205490506000600a8381548110612e6a57612e69613bc8565b5b9060005260206000200154905080600a8381548110612e8c57612e8b613bc8565b5b906000526020600020018190555081600b600083815260200190815260200160002081905550600b600085815260200190815260200160002060009055600a805480612edb57612eda6147fa565b5b6001900381819060005260206000200160009055905550505050565b6000612f0283610dbf565b905081600860008573ffffffffffffffffffffffffffffffffffffffff1673ffffffffffffffffffffffffffffffffffffffff168152602001908152602001600020600083815260200190815260200160002081905550806009600084815260200190815260200160002081905550505050565b6000604051905090565b600080fd5b600080fd5b60007fffffffff0000000000000000000000000000000000000000000000000000000082169050919050565b612fbf81612f8a565b8114612fca57600080fd5b50565b600081359050612fdc81612fb6565b92915050565b600060208284031215612ff857612ff7612f80565b5b600061300684828501612fcd565b91505092915050565b60008115159050919050565b6130248161300f565b82525050565b600060208201905061303f600083018461301b565b92915050565b600081519050919050565b600082825260208201905092915050565b60005b8381101561307f578082015181840152602081019050613064565b8381111561308e576000848401525b50505050565b6000601f19601f8301169050919050565b60006130b082613045565b6130ba8185613050565b93506130ca818560208601613061565b6130d381613094565b840191505092915050565b600060208201905081810360008301526130f881846130a5565b905092915050565b6000819050919050565b61311381613100565b811461311e57600080fd5b50565b6000813590506131308161310a565b92915050565b60006020828403121561314c5761314b612f80565b5b600061315a84828501613121565b91505092915050565b600073ffffffffffffffffffffffffffffffffffffffff82169050919050565b600061318e82613163565b9050919050565b61319e81613183565b82525050565b60006020820190506131b96000830184613195565b92915050565b6131c881613183565b81146131d357600080fd5b50565b6000813590506131e5816131bf565b92915050565b6000806040838503121561320257613201612f80565b5b6000613210858286016131d6565b925050602061322185828601613121565b9150509250929050565b61323481613100565b82525050565b600060208201905061324f600083018461322b565b92915050565b60008060006060848603121561326e5761326d612f80565b5b600061327c868287016131d6565b935050602061328d868287016131d6565b925050604061329e86828701613121565b9150509250925092565b6000819050919050565b6132bb816132a8565b81146132c657600080fd5b50565b6000813590506132d8816132b2565b92915050565b6000602082840312156132f4576132f3612f80565b5b6000613302848285016132c9565b91505092915050565b613314816132a8565b82525050565b600060208201905061332f600083018461330b565b92915050565b6000806040838503121561334c5761334b612f80565b5b600061335a858286016132c9565b925050602061336b858286016131d6565b9150509250929050565b60006020828403121561338b5761338a612f80565b5b6000613399848285016131d6565b91505092915050565b600080604083850312156133b9576133b8612f80565b5b60006133c7858286016132c9565b92505060206133d885828601613121565b9150509250929050565b6133eb8161300f565b81146133f657600080fd5b50565b600081359050613408816133e2565b92915050565b6000806040838503121561342557613424612f80565b5b6000613433858286016131d6565b9250506020613444858286016133f9565b9150509250929050565b600080fd5b600080fd5b7f4e487b7100000000000000000000000000000000000000000000000000000000600052604160045260246000fd5b61349082613094565b810181811067ffffffffffffffff821117156134af576134ae613458565b5b80604052505050565b60006134c2612f76565b90506134ce8282613487565b919050565b600067ffffffffffffffff8211156134ee576134ed613458565b5b6134f782613094565b9050602081019050919050565b82818337600083830152505050565b6000613526613521846134d3565b6134b8565b90508281526020810184848401111561354257613541613453565b5b61354d848285613504565b509392505050565b600082601f83011261356a5761356961344e565b5b813561357a848260208601613513565b91505092915050565b6000806000806080858703121561359d5761359c612f80565b5b60006135ab878288016131d6565b94505060206135bc878288016131d6565b93505060406135cd87828801613121565b925050606085013567ffffffffffffffff8111156135ee576135ed612f85565b5b6135fa87828801613555565b91505092959194509250565b6000806040838503121561361d5761361c612f80565b5b600061362b858286016131d6565b925050602061363c858286016131d6565b9150509250929050565b7f4e487b7100000000000000000000000000000000000000000000000000000000600052602260045260246000fd5b6000600282049050600182168061368d57607f821691505b6020821081036136a05761369f613646565b5b50919050565b7f4552433732313a20617070726f76656420717565727920666f72206e6f6e657860008201527f697374656e7420746f6b656e0000000000000000000000000000000000000000602082015250565b6000613702602c83613050565b915061370d826136a6565b604082019050919050565b60006020820190508181036000830152613731816136f5565b9050919050565b7f4552433732313a20617070726f76616c20746f2063757272656e74206f776e6560008201527f7200000000000000000000000000000000000000000000000000000000000000602082015250565b6000613794602183613050565b915061379f82613738565b604082019050919050565b600060208201905081810360008301526137c381613787565b9050919050565b7f4552433732313a20617070726f76652063616c6c6572206973206e6f74206f7760008201527f6e6572206e6f7220617070726f76656420666f7220616c6c0000000000000000602082015250565b6000613826603883613050565b9150613831826137ca565b604082019050919050565b6000602082019050818103600083015261385581613819565b9050919050565b7f4552433732313a207472616e736665722063616c6c6572206973206e6f74206f60008201527f776e6572206e6f7220617070726f766564000000000000000000000000000000602082015250565b60006138b8603183613050565b91506138c38261385c565b604082019050919050565b600060208201905081810360008301526138e7816138ab565b9050919050565b7f455243373231456e756d657261626c653a206f776e657220696e646578206f7560008201527f74206f6620626f756e6473000000000000000000000000000000000000000000602082015250565b600061394a602b83613050565b9150613955826138ee565b604082019050919050565b600060208201905081810360008301526139798161393d565b9050919050565b7f416363657373436f6e74726f6c3a2063616e206f6e6c792072656e6f756e636560008201527f20726f6c657320666f722073656c660000000000000000000000000000000000602082015250565b60006139dc602f83613050565b91506139e782613980565b604082019050919050565b60006020820190508181036000830152613a0b816139cf565b9050919050565b7f4552433732315072657365744d696e7465725061757365724175746f49643a2060008201527f6d75737420686176652070617573657220726f6c6520746f20756e7061757365602082015250565b6000613a6e604083613050565b9150613a7982613a12565b604082019050919050565b60006020820190508181036000830152613a9d81613a61565b9050919050565b7f4552433732314275726e61626c653a2063616c6c6572206973206e6f74206f7760008201527f6e6572206e6f7220617070726f76656400000000000000000000000000000000602082015250565b6000613b00603083613050565b9150613b0b82613aa4565b604082019050919050565b60006020820190508181036000830152613b2f81613af3565b9050919050565b7f455243373231456e756d657261626c653a20676c6f62616c20696e646578206f60008201527f7574206f6620626f756e64730000000000000000000000000000000000000000602082015250565b6000613b92602c83613050565b9150613b9d82613b36565b604082019050919050565b60006020820190508181036000830152613bc181613b85565b9050919050565b7f4e487b7100000000000000000000000000000000000000000000000000000000600052603260045260246000fd5b7f4552433732313a206f776e657220717565727920666f72206e6f6e657869737460008201527f656e7420746f6b656e0000000000000000000000000000000000000000000000602082015250565b6000613c53602983613050565b9150613c5e82613bf7565b604082019050919050565b60006020820190508181036000830152613c8281613c46565b9050919050565b7f4e487b7100000000000000000000000000000000000000000000000000000000600052600160045260246000fd5b7f4552433732313a2062616c616e636520717565727920666f7220746865207a6560008201527f726f206164647265737300000000000000000000000000000000000000000000602082015250565b6000613d14602a83613050565b9150613d1f82613cb8565b604082019050919050565b60006020820190508181036000830152613d4381613d07565b9050919050565b7f4552433732315072657365744d696e7465725061757365724175746f49643a2060008201527f6d75737420686176652070617573657220726f6c6520746f2070617573650000602082015250565b6000613da6603e83613050565b9150613db182613d4a565b604082019050919050565b60006020820190508181036000830152613dd581613d99565b9050919050565b7f4552433732314d657461646174613a2055524920717565727920666f72206e6f60008201527f6e6578697374656e7420746f6b656e0000000000000000000000000000000000602082015250565b6000613e38602f83613050565b9150613e4382613ddc565b604082019050919050565b60006020820190508181036000830152613e6781613e2b565b9050919050565b600081905092915050565b6000613e8482613045565b613e8e8185613e6e565b9350613e9e818560208601613061565b80840191505092915050565b6000613eb68285613e79565b9150613ec28284613e79565b91508190509392505050565b7f4552433732313a206f70657261746f7220717565727920666f72206e6f6e657860008201527f697374656e7420746f6b656e0000000000000000000000000000000000000000602082015250565b6000613f2a602c83613050565b9150613f3582613ece565b604082019050919050565b60006020820190508181036000830152613f5981613f1d565b9050919050565b7f4552433732313a207472616e736665722066726f6d20696e636f72726563742060008201527f6f776e6572000000000000000000000000000000000000000000000000000000602082015250565b6000613fbc602583613050565b9150613fc782613f60565b604082019050919050565b60006020820190508181036000830152613feb81613faf565b9050919050565b7f4552433732313a207472616e7366657220746f20746865207a65726f2061646460008201527f7265737300000000000000000000000000000000000000000000000000000000602082015250565b600061404e602483613050565b915061405982613ff2565b604082019050919050565b6000602082019050818103600083015261407d81614041565b9050919050565b7f4e487b7100000000000000000000000000000000000000000000000000000000600052601160045260246000fd5b60006140be82613100565b91506140c983613100565b9250828210156140dc576140db614084565b5b828203905092915050565b60006140f282613100565b91506140fd83613100565b9250827fffffffffffffffffffffffffffffffffffffffffffffffffffffffffffffffff0382111561413257614131614084565b5b828201905092915050565b7f416363657373436f6e74726f6c3a206163636f756e7420000000000000000000600082015250565b6000614173601783613e6e565b915061417e8261413d565b601782019050919050565b7f206973206d697373696e6720726f6c6520000000000000000000000000000000600082015250565b60006141bf601183613e6e565b91506141ca82614189565b601182019050919050565b60006141e082614166565b91506141ec8285613e79565b91506141f7826141b2565b91506142038284613e79565b91508190509392505050565b7f5061757361626c653a206e6f7420706175736564000000000000000000000000600082015250565b6000614245601483613050565b91506142508261420f565b602082019050919050565b6000602082019050818103600083015261427481614238565b9050919050565b7f4552433732313a206d696e7420746f20746865207a65726f2061646472657373600082015250565b60006142b1602083613050565b91506142bc8261427b565b602082019050919050565b600060208201905081810360008301526142e0816142a4565b9050919050565b7f4552433732313a20746f6b656e20616c7265616479206d696e74656400000000600082015250565b600061431d601c83613050565b9150614328826142e7565b602082019050919050565b6000602082019050818103600083015261434c81614310565b9050919050565b7f5061757361626c653a2070617573656400000000000000000000000000000000600082015250565b6000614389601083613050565b915061439482614353565b602082019050919050565b600060208201905081810360008301526143b88161437c565b9050919050565b7f4552433732313a20617070726f766520746f2063616c6c657200000000000000600082015250565b60006143f5601983613050565b9150614400826143bf565b602082019050919050565b60006020820190508181036000830152614424816143e8565b9050919050565b7f4552433732313a207472616e7366657220746f206e6f6e20455243373231526560008201527f63656976657220696d706c656d656e7465720000000000000000000000000000602082015250565b6000614487603283613050565b91506144928261442b565b604082019050919050565b600060208201905081810360008301526144b68161447a565b9050919050565b60006144c882613100565b91507fffffffffffffffffffffffffffffffffffffffffffffffffffffffffffffffff82036144fa576144f9614084565b5b600182019050919050565b7f4e487b7100000000000000000000000000000000000000000000000000000000600052601260045260246000fd5b600061453f82613100565b915061454a83613100565b92508261455a57614559614505565b5b828204905092915050565b600061457082613100565b915061457b83613100565b92508261458b5761458a614505565b5b828206905092915050565b60006145a182613100565b91506145ac83613100565b9250817fffffffffffffffffffffffffffffffffffffffffffffffffffffffffffffffff04831182151516156145e5576145e4614084565b5b828202905092915050565b60006145fb82613100565b91506000820361460e5761460d614084565b5b600182039050919050565b7f537472696e67733a20686578206c656e67746820696e73756666696369656e74600082015250565b600061464f602083613050565b915061465a82614619565b602082019050919050565b6000602082019050818103600083015261467e81614642565b9050919050565b600081519050919050565b600082825260208201905092915050565b60006146ac82614685565b6146b68185614690565b93506146c6818560208601613061565b6146cf81613094565b840191505092915050565b60006080820190506146ef6000830187613195565b6146fc6020830186613195565b614709604083018561322b565b818103606083015261471b81846146a1565b905095945050505050565b60008151905061473581612fb6565b92915050565b60006020828403121561475157614750612f80565b5b600061475f84828501614726565b91505092915050565b7f4552433732315061757361626c653a20746f6b656e207472616e73666572207760008201527f68696c6520706175736564000000000000000000000000000000000000000000602082015250565b60006147c4602b83613050565b91506147cf82614768565b604082019050919050565b600060208201905081810360008301526147f3816147b7565b9050919050565b7f4e487b7100000000000000000000000000000000000000000000000000000000600052603160045260246000fdfea2646970667358221220f460654b1511ffd17b0dc3e89a9a403b532c11c2b27aa5375abf967e68d0691364736f6c634300080d003368747470733a2f2f676174657761792e70696e6174612e636c6f75642f697066732f516d56666353466f554a3543454d67505841645a6e616268734856713958754a5544706d777275794d43674556322f",
  "immutableReferences": {},
  "source": "// SPDX-License-Identifier: MIT\r\npragma solidity ^0.8.0;\r\n\r\nimport \"@openzeppelin/contracts/token/ERC721/presets/ERC721PresetMinterPauserAutoId.sol\";\r\nimport \"@openzeppelin/contracts/token/ERC721/ERC721.sol\";\r\nimport \"@openzeppelin/contracts/utils/Counters.sol\";\r\n\r\ncontract VoteAsset is ERC721PresetMinterPauserAutoId {\r\n    using Counters for Counters.Counter;\r\n    \r\n    Counters.Counter private _tokenIdTracker;\r\n    // voted event\r\n    event mintingEvent(address mintedAddress);\r\n\r\n    mapping(address => bool) public mintersMap;\r\n\r\n    constructor() ERC721PresetMinterPauserAutoId(\"VoteAsset\", \"VAST\", \"https://gateway.pinata.cloud/ipfs/QmVfcSFoUJ5CEMgPXAdZnabhsHVq9XuJUDpmwruyMCgEV2/\") {}\r\n\r\n    // Overriding mint function to remove minter role so that everyone can mint nft.\r\n    function mint(address to) public override virtual \r\n    {\r\n        // Voters cannot mint NFT more than once.\r\n        assert(mintersMap[msg.sender] == false);\r\n\r\n        _mint(to, _tokenIdTracker.current());\r\n        _tokenIdTracker.increment();\r\n\r\n        // Voter has minted.\r\n        mintersMap[msg.sender] = true;\r\n        emit mintingEvent(to);\r\n    }\r\n}",
  "sourcePath": "E:\\yazlm\\blockchain\\VotingDapp\\contracts\\VoteAsset.sol",
  "compiler": {
    "name": "solc",
    "version": "0.8.13+commit.abaa5c0e.Emscripten.clang"
  },
  "schemaVersion": "3.4.7",
  "updatedAt": "2022-04-30T12:23:15.147Z",
  "networkType": "ethereum",
  "devdoc": {
    "kind": "dev",
    "methods": {
      "approve(address,uint256)": {
        "details": "See {IERC721-approve}."
      },
      "balanceOf(address)": {
        "details": "See {IERC721-balanceOf}."
      },
      "burn(uint256)": {
        "details": "Burns `tokenId`. See {ERC721-_burn}. Requirements: - The caller must own `tokenId` or be an approved operator."
      },
      "getApproved(uint256)": {
        "details": "See {IERC721-getApproved}."
      },
      "getRoleAdmin(bytes32)": {
        "details": "Returns the admin role that controls `role`. See {grantRole} and {revokeRole}. To change a role's admin, use {_setRoleAdmin}."
      },
      "getRoleMember(bytes32,uint256)": {
        "details": "Returns one of the accounts that have `role`. `index` must be a value between 0 and {getRoleMemberCount}, non-inclusive. Role bearers are not sorted in any particular way, and their ordering may change at any point. WARNING: When using {getRoleMember} and {getRoleMemberCount}, make sure you perform all queries on the same block. See the following https://forum.openzeppelin.com/t/iterating-over-elements-on-enumerableset-in-openzeppelin-contracts/2296[forum post] for more information."
      },
      "getRoleMemberCount(bytes32)": {
        "details": "Returns the number of accounts that have `role`. Can be used together with {getRoleMember} to enumerate all bearers of a role."
      },
      "grantRole(bytes32,address)": {
        "details": "Grants `role` to `account`. If `account` had not been already granted `role`, emits a {RoleGranted} event. Requirements: - the caller must have ``role``'s admin role."
      },
      "hasRole(bytes32,address)": {
        "details": "Returns `true` if `account` has been granted `role`."
      },
      "isApprovedForAll(address,address)": {
        "details": "See {IERC721-isApprovedForAll}."
      },
      "mint(address)": {
        "details": "Creates a new token for `to`. Its token ID will be automatically assigned (and available on the emitted {IERC721-Transfer} event), and the token URI autogenerated based on the base URI passed at construction. See {ERC721-_mint}. Requirements: - the caller must have the `MINTER_ROLE`."
      },
      "name()": {
        "details": "See {IERC721Metadata-name}."
      },
      "ownerOf(uint256)": {
        "details": "See {IERC721-ownerOf}."
      },
      "pause()": {
        "details": "Pauses all token transfers. See {ERC721Pausable} and {Pausable-_pause}. Requirements: - the caller must have the `PAUSER_ROLE`."
      },
      "paused()": {
        "details": "Returns true if the contract is paused, and false otherwise."
      },
      "renounceRole(bytes32,address)": {
        "details": "Revokes `role` from the calling account. Roles are often managed via {grantRole} and {revokeRole}: this function's purpose is to provide a mechanism for accounts to lose their privileges if they are compromised (such as when a trusted device is misplaced). If the calling account had been revoked `role`, emits a {RoleRevoked} event. Requirements: - the caller must be `account`."
      },
      "revokeRole(bytes32,address)": {
        "details": "Revokes `role` from `account`. If `account` had been granted `role`, emits a {RoleRevoked} event. Requirements: - the caller must have ``role``'s admin role."
      },
      "safeTransferFrom(address,address,uint256)": {
        "details": "See {IERC721-safeTransferFrom}."
      },
      "safeTransferFrom(address,address,uint256,bytes)": {
        "details": "See {IERC721-safeTransferFrom}."
      },
      "setApprovalForAll(address,bool)": {
        "details": "See {IERC721-setApprovalForAll}."
      },
      "supportsInterface(bytes4)": {
        "details": "See {IERC165-supportsInterface}."
      },
      "symbol()": {
        "details": "See {IERC721Metadata-symbol}."
      },
      "tokenByIndex(uint256)": {
        "details": "See {IERC721Enumerable-tokenByIndex}."
      },
      "tokenOfOwnerByIndex(address,uint256)": {
        "details": "See {IERC721Enumerable-tokenOfOwnerByIndex}."
      },
      "tokenURI(uint256)": {
        "details": "See {IERC721Metadata-tokenURI}."
      },
      "totalSupply()": {
        "details": "See {IERC721Enumerable-totalSupply}."
      },
      "transferFrom(address,address,uint256)": {
        "details": "See {IERC721-transferFrom}."
      },
      "unpause()": {
        "details": "Unpauses all token transfers. See {ERC721Pausable} and {Pausable-_unpause}. Requirements: - the caller must have the `PAUSER_ROLE`."
      }
    },
    "version": 1
  },
  "userdoc": {
    "kind": "user",
    "methods": {},
    "version": 1
  }
}