{
  "contractName": "Voting",
  "abi": [
    {
      "inputs": [],
      "stateMutability": "nonpayable",
      "type": "constructor"
    },
    {
      "anonymous": false,
      "inputs": [
        {
          "indexed": true,
          "internalType": "uint256",
          "name": "candidateId",
          "type": "uint256"
        }
      ],
      "name": "votingEvent",
      "type": "event"
    },
    {
      "inputs": [
        {
          "internalType": "uint256",
          "name": "",
          "type": "uint256"
        }
      ],
      "name": "candidatesMap",
      "outputs": [
        {
          "internalType": "uint256",
          "name": "id",
          "type": "uint256"
        },
        {
          "internalType": "string",
          "name": "name",
          "type": "string"
        },
        {
          "internalType": "uint256",
          "name": "voteCount",
          "type": "uint256"
        }
      ],
      "stateMutability": "view",
      "type": "function",
      "constant": true
    },
    {
      "inputs": [],
      "name": "count",
      "outputs": [
        {
          "internalType": "uint256",
          "name": "",
          "type": "uint256"
        }
      ],
      "stateMutability": "view",
      "type": "function",
      "constant": true
    },
    {
      "inputs": [
        {
          "internalType": "address",
          "name": "",
          "type": "address"
        }
      ],
      "name": "votersMap",
      "outputs": [
        {
          "internalType": "bool",
          "name": "",
          "type": "bool"
        }
      ],
      "stateMutability": "view",
      "type": "function",
      "constant": true
    },
    {
      "inputs": [
        {
          "internalType": "address",
          "name": "",
          "type": "address"
        }
      ],
      "name": "votersMapID",
      "outputs": [
        {
          "internalType": "uint256",
          "name": "",
          "type": "uint256"
        }
      ],
      "stateMutability": "view",
      "type": "function",
      "constant": true
    },
    {
      "inputs": [
        {
          "internalType": "address",
          "name": "_key",
          "type": "address"
        }
      ],
      "name": "getVotedIDValue",
      "outputs": [
        {
          "internalType": "uint256",
          "name": "",
          "type": "uint256"
        }
      ],
      "stateMutability": "view",
      "type": "function",
      "constant": true
    },
    {
      "inputs": [
        {
          "internalType": "address",
          "name": "_key",
          "type": "address"
        }
      ],
      "name": "getVotersMapValue",
      "outputs": [
        {
          "internalType": "bool",
          "name": "",
          "type": "bool"
        }
      ],
      "stateMutability": "view",
      "type": "function",
      "constant": true
    },
    {
      "inputs": [
        {
          "internalType": "uint256",
          "name": "candidateId",
          "type": "uint256"
        }
      ],
      "name": "vote",
      "outputs": [],
      "stateMutability": "nonpayable",
      "type": "function"
    }
  ],
  "bytecode": "0x608060405260006001553480156200001657600080fd5b506200005d6040518060400160405280600f81526020017f4d75726174204d757261746f676c7500000000000000000000000000000000008152506200013560201b60201c565b620000a36040518060400160405280600981526020017f4970656b204b6f7a6100000000000000000000000000000000000000000000008152506200013560201b60201c565b620000e96040518060400160405280600e81526020017f456b696e2059696c64697a68616e0000000000000000000000000000000000008152506200013560201b60201c565b6200012f6040518060400160405280600a81526020017f48696c616c2053617269000000000000000000000000000000000000000000008152506200013560201b60201c565b62000354565b600160008154809291906200014a90620002a3565b91905055506040518060600160405280600154815260200182815260200160008152506000806001548152602001908152602001600020600082015181600001556020820151816001019080519060200190620001a9929190620001ba565b506040820151816002015590505050565b828054620001c8906200031f565b90600052602060002090601f016020900481019282620001ec576000855562000238565b82601f106200020757805160ff191683800117855562000238565b8280016001018555821562000238579182015b82811115620002375782518255916020019190600101906200021a565b5b5090506200024791906200024b565b5090565b5b80821115620002665760008160009055506001016200024c565b5090565b7f4e487b7100000000000000000000000000000000000000000000000000000000600052601160045260246000fd5b6000819050919050565b6000620002b08262000299565b91507fffffffffffffffffffffffffffffffffffffffffffffffffffffffffffffffff8203620002e557620002e46200026a565b5b600182019050919050565b7f4e487b7100000000000000000000000000000000000000000000000000000000600052602260045260246000fd5b600060028204905060018216806200033857607f821691505b6020821081036200034e576200034d620002f0565b5b50919050565b61086a80620003646000396000f3fe608060405234801561001057600080fd5b506004361061007d5760003560e01c8063585d43861161005b578063585d4386146100ee578063ae66d4f41461011e578063ca2e4d741461014e578063f7b9440e1461017e5761007d565b80630121b93f1461008257806306661abd1461009e578063101ed4e1146100bc575b600080fd5b61009c6004803603810190610097919061053f565b6101ae565b005b6100a6610375565b6040516100b3919061057b565b60405180910390f35b6100d660048036038101906100d1919061053f565b61037b565b6040516100e59392919061062f565b60405180910390f35b610108600480360381019061010391906106cb565b61042d565b604051610115919061057b565b60405180910390f35b610138600480360381019061013391906106cb565b610476565b6040516101459190610713565b60405180910390f35b610168600480360381019061016391906106cb565b610496565b6040516101759190610713565b60405180910390f35b610198600480360381019061019391906106cb565b6104ec565b6040516101a5919061057b565b60405180910390f35b60001515600260003373ffffffffffffffffffffffffffffffffffffffff1673ffffffffffffffffffffffffffffffffffffffff16815260200190815260200160002060009054906101000a900460ff1615151461020f5761020e61072e565b5b6000600360003373ffffffffffffffffffffffffffffffffffffffff1673ffffffffffffffffffffffffffffffffffffffff168152602001908152602001600020541461025f5761025e61072e565b5b60008111801561027157506001548111155b61027e5761027d61072e565b5b6001600260003373ffffffffffffffffffffffffffffffffffffffff1673ffffffffffffffffffffffffffffffffffffffff16815260200190815260200160002060006101000a81548160ff02191690831515021790555080600360003373ffffffffffffffffffffffffffffffffffffffff1673ffffffffffffffffffffffffffffffffffffffff1681526020019081526020016000208190555060008082815260200190815260200160002060020160008154809291906103409061078c565b9190505550807f3474d7a80d734f2c159cbc95fd43cc116f75c5cc5b1b755e0fd91a0dbfc3c8c160405160405180910390a250565b60015481565b60006020528060005260406000206000915090508060000154908060010180546103a490610803565b80601f01602080910402602001604051908101604052809291908181526020018280546103d090610803565b801561041d5780601f106103f25761010080835404028352916020019161041d565b820191906000526020600020905b81548152906001019060200180831161040057829003601f168201915b5050505050908060020154905083565b6000600360008373ffffffffffffffffffffffffffffffffffffffff1673ffffffffffffffffffffffffffffffffffffffff168152602001908152602001600020549050919050565b60026020528060005260406000206000915054906101000a900460ff1681565b6000600260008373ffffffffffffffffffffffffffffffffffffffff1673ffffffffffffffffffffffffffffffffffffffff16815260200190815260200160002060009054906101000a900460ff169050919050565b60036020528060005260406000206000915090505481565b600080fd5b6000819050919050565b61051c81610509565b811461052757600080fd5b50565b60008135905061053981610513565b92915050565b60006020828403121561055557610554610504565b5b60006105638482850161052a565b91505092915050565b61057581610509565b82525050565b6000602082019050610590600083018461056c565b92915050565b600081519050919050565b600082825260208201905092915050565b60005b838110156105d05780820151818401526020810190506105b5565b838111156105df576000848401525b50505050565b6000601f19601f8301169050919050565b600061060182610596565b61060b81856105a1565b935061061b8185602086016105b2565b610624816105e5565b840191505092915050565b6000606082019050610644600083018661056c565b818103602083015261065681856105f6565b9050610665604083018461056c565b949350505050565b600073ffffffffffffffffffffffffffffffffffffffff82169050919050565b60006106988261066d565b9050919050565b6106a88161068d565b81146106b357600080fd5b50565b6000813590506106c58161069f565b92915050565b6000602082840312156106e1576106e0610504565b5b60006106ef848285016106b6565b91505092915050565b60008115159050919050565b61070d816106f8565b82525050565b60006020820190506107286000830184610704565b92915050565b7f4e487b7100000000000000000000000000000000000000000000000000000000600052600160045260246000fd5b7f4e487b7100000000000000000000000000000000000000000000000000000000600052601160045260246000fd5b600061079782610509565b91507fffffffffffffffffffffffffffffffffffffffffffffffffffffffffffffffff82036107c9576107c861075d565b5b600182019050919050565b7f4e487b7100000000000000000000000000000000000000000000000000000000600052602260045260246000fd5b6000600282049050600182168061081b57607f821691505b60208210810361082e5761082d6107d4565b5b5091905056fea2646970667358221220fa079c6ca4398a0f05a92b6f5df15dca6d5c4075076e7ac29d2b02b43d6589ba64736f6c634300080d0033",
  "immutableReferences": {},
  "source": "// SPDX-License-Identifier: MIT\r\npragma solidity ^0.8.0;\r\n\r\n// Voting contract for village chief election.\r\ncontract Voting \r\n{\r\n    // Struct of a Candidate.\r\n    struct Candidate \r\n    {\r\n        uint256 id;\r\n        string name;\r\n        uint256 voteCount;\r\n    }\r\n\r\n    // Key - value mapping of Candidate: id - Candidate.\r\n    mapping(uint256 => Candidate) public candidatesMap;\r\n    // Count of candidates. It is represented as id.\r\n    uint256 public count = 0;\r\n    \r\n    // Key - value mapping of votersMap: Voter address - hasVoted.\r\n    mapping(address => bool) public votersMap;\r\n    // Key - value mapping of votersMap: Voter address - ID.\r\n    mapping(address => uint256) public votersMapID;\r\n\r\n    // voted event\r\n    event votingEvent(uint256 indexed candidateId);\r\n\r\n    constructor() \r\n    {\r\n        addCandidate(\"Murat Muratoglu\");\r\n        addCandidate(\"Ipek Koza\");\r\n        addCandidate(\"Ekin Yildizhan\");\r\n        addCandidate(\"Hilal Sari\");\r\n    }\r\n\r\n    // Creates candidate with given name.\r\n    function addCandidate(string memory candidateName) private \r\n    {\r\n        count++;\r\n        // Candidate is created with count id, candidateName name and 0 vote.\r\n        candidatesMap[count] = Candidate(count, candidateName, 0);\r\n    }\r\n\r\n    function getVotedIDValue(address _key) public view returns (uint256)\r\n    {\r\n        return votersMapID[_key];\r\n    }\r\n\r\n    function getVotersMapValue(address _key) public view returns (bool)\r\n    {\r\n        return votersMap[_key];\r\n    }\r\n\r\n    function vote(uint256 candidateId) public \r\n    {\r\n        // Voters can't vote twice, this line of code ensures that.\r\n        assert(votersMap[msg.sender] == false);\r\n        // Same voter can't vote for the same candidate.\r\n        assert(votersMapID[msg.sender] == 0);\r\n        // require a valid candidate\r\n        assert(candidateId > 0 && candidateId <= count);\r\n\r\n        // Voter has voted.\r\n        votersMap[msg.sender] = true;\r\n        // Voters candidate id is set.\r\n        votersMapID[msg.sender] = candidateId;\r\n\r\n        // update candidate vote Count\r\n        candidatesMap[candidateId].voteCount++;\r\n\r\n        emit votingEvent(candidateId);\r\n    }\r\n}",
  "sourcePath": "E:\\yazlm\\blockchain\\VotingDapp\\contracts\\Voting.sol",
  "compiler": {
    "name": "solc",
    "version": "0.8.13+commit.abaa5c0e.Emscripten.clang"
  },
  "schemaVersion": "3.4.7",
  "updatedAt": "2022-04-24T19:53:01.060Z",
  "networkType": "ethereum",
  "devdoc": {
    "kind": "dev",
    "methods": {},
    "version": 1
  },
  "userdoc": {
    "kind": "user",
    "methods": {},
    "version": 1
  }
}